{
  "_format": "hh-sol-artifact-1",
  "contractName": "CertificateVerifier",
  "sourceName": "contracts/verifier/CertificateVerifier.sol",
  "abi": [
    {
      "inputs": [],
      "stateMutability": "nonpayable",
      "type": "constructor"
    },
    {
      "inputs": [],
      "name": "CPO_TYPE_HASH",
      "outputs": [
        {
          "internalType": "bytes32",
          "name": "",
          "type": "bytes32"
        }
      ],
      "stateMutability": "view",
      "type": "function"
    },
    {
      "inputs": [],
      "name": "EMP_TYPE_HASH",
      "outputs": [
        {
          "internalType": "bytes32",
          "name": "",
          "type": "bytes32"
        }
      ],
      "stateMutability": "view",
      "type": "function"
    },
    {
      "inputs": [],
      "name": "getDomain",
      "outputs": [
        {
          "internalType": "bytes32",
          "name": "",
          "type": "bytes32"
        }
      ],
      "stateMutability": "nonpayable",
      "type": "function"
    },
    {
      "inputs": [],
      "name": "getDomainParts",
      "outputs": [
        {
          "internalType": "bytes32",
          "name": "",
          "type": "bytes32"
        },
        {
          "internalType": "uint256",
          "name": "",
          "type": "uint256"
        },
        {
          "internalType": "address",
          "name": "",
          "type": "address"
        }
      ],
      "stateMutability": "nonpayable",
      "type": "function"
    },
    {
      "inputs": [
        {
          "internalType": "bytes",
          "name": "certificateData",
          "type": "bytes"
        },
        {
          "internalType": "bytes",
          "name": "signatureData",
          "type": "bytes"
        }
      ],
      "name": "verifyCPO",
      "outputs": [
        {
          "internalType": "address",
          "name": "",
          "type": "address"
        },
        {
          "components": [
            {
              "internalType": "string",
              "name": "identifier",
              "type": "string"
            },
            {
              "internalType": "string",
              "name": "name",
              "type": "string"
            },
            {
              "internalType": "address",
              "name": "owner",
              "type": "address"
            }
          ],
          "internalType": "struct ICertificateVerifier.CPOCertificate",
          "name": "",
          "type": "tuple"
        },
        {
          "components": [
            {
              "internalType": "bytes32",
              "name": "r",
              "type": "bytes32"
            },
            {
              "internalType": "bytes32",
              "name": "s",
              "type": "bytes32"
            },
            {
              "internalType": "uint8",
              "name": "v",
              "type": "uint8"
            }
          ],
          "internalType": "struct ICertificateVerifier.Signature",
          "name": "",
          "type": "tuple"
        }
      ],
      "stateMutability": "view",
      "type": "function"
    },
    {
      "inputs": [
        {
          "internalType": "bytes",
          "name": "certificateData",
          "type": "bytes"
        },
        {
          "internalType": "bytes",
          "name": "signatureData",
          "type": "bytes"
        }
      ],
      "name": "verifyEMP",
      "outputs": [
        {
          "internalType": "address",
          "name": "",
          "type": "address"
        },
        {
          "components": [
            {
              "internalType": "string",
              "name": "name",
              "type": "string"
            },
            {
              "internalType": "string",
              "name": "marktfunktion",
              "type": "string"
            },
            {
              "internalType": "string",
              "name": "lieferant",
              "type": "string"
            },
            {
              "internalType": "string",
              "name": "bilanzkreis",
              "type": "string"
            },
            {
              "internalType": "address",
              "name": "owner",
              "type": "address"
            }
          ],
          "internalType": "struct ICertificateVerifier.EMPCertificate",
          "name": "",
          "type": "tuple"
        },
        {
          "components": [
            {
              "internalType": "bytes32",
              "name": "r",
              "type": "bytes32"
            },
            {
              "internalType": "bytes32",
              "name": "s",
              "type": "bytes32"
            },
            {
              "internalType": "uint8",
              "name": "v",
              "type": "uint8"
            }
          ],
          "internalType": "struct ICertificateVerifier.Signature",
          "name": "",
          "type": "tuple"
        }
      ],
      "stateMutability": "view",
      "type": "function"
    }
  ],
  "bytecode": "0x60806040523480156200001157600080fd5b50620000e96040518060a001604052806040518060400160405280600681526020017f42616e756c61000000000000000000000000000000000000000000000000000081525081526020016040518060400160405280600181526020017f310000000000000000000000000000000000000000000000000000000000000081525081526020014681526020013073ffffffffffffffffffffffffffffffffffffffff1681526020017f62616e756c616f636e0000000000000000000000000000000000000000000000815250620000f560201b60201c565b6000819055506200025b565b60007fd87cd6ef79d4e2b95e15ce8abf732db51ec771f1ca2edccf22a46c729ac564728260000151805190602001208360200151805190602001208460400151856060015186608001516040516020016200015696959493929190620001ee565b604051602081830303815290604052805190602001209050919050565b6000819050919050565b620001888162000173565b82525050565b6000819050919050565b620001a3816200018e565b82525050565b600073ffffffffffffffffffffffffffffffffffffffff82169050919050565b6000620001d682620001a9565b9050919050565b620001e881620001c9565b82525050565b600060c0820190506200020560008301896200017d565b6200021460208301886200017d565b6200022360408301876200017d565b62000232606083018662000198565b620002416080830185620001dd565b6200025060a08301846200017d565b979650505050505050565b611093806200026b6000396000f3fe608060405234801561001057600080fd5b50600436106100625760003560e01c806389fe310114610067578063ab66ff6014610085578063b68d1809146100b7578063d0ce021b146100d5578063e9135cc8146100f5578063fbb87f9714610113575b600080fd5b61006f610145565b60405161007c919061053e565b60405180910390f35b61009f600480360381019061009a91906106b3565b610168565b6040516100ae939291906108be565b60405180910390f35b6100bf6101e7565b6040516100cc919061053e565b60405180910390f35b6100dd6101f0565b6040516100ec93929190610915565b60405180910390f35b6100fd610223565b60405161010a919061053e565b60405180910390f35b61012d600480360381019061012891906106b3565b610246565b60405161013c939291906109d7565b60405180910390f35b6040518060600160405280603b8152602001610fc1603b91398051906020012081565b600061017261047f565b61017a6104b6565b6000858060200190518101906101909190610b88565b90506000858060200190518101906101a89190610c8d565b905060006101b5836102c5565b905060006101d18284600001518560200151866040015161034d565b9050808484965096509650505050509250925092565b60008054905090565b60008060007f62616e756c616f636e00000000000000000000000000000000000000000000004630925092509250909192565b6040518060a0016040528060628152602001610ffc606291398051906020012081565b60006102506104e0565b6102586104b6565b60008580602001905181019061026e9190610db6565b90506000858060200190518101906102869190610c8d565b90506000610293836103dd565b905060006102af8284600001518560200151866040015161034d565b9050808484965096509650505050509250925092565b60006040518060600160405280603b8152602001610fc1603b913980519060200120826000015180519060200120836020015180519060200120846040015173ffffffffffffffffffffffffffffffffffffffff1660001b6040516020016103309493929190610e20565b604051602081830303815290604052805190602001209050919050565b60008060005486604051602001610365929190610ec5565b6040516020818303038152906040528051906020012090506000600182858888604051600081526020016040526040516103a29493929190610f0b565b6020604051602081039080840390855afa1580156103c4573d6000803e3d6000fd5b5050506020604051035190508092505050949350505050565b60006040518060a0016040528060628152602001610ffc6062913980519060200120826000015180519060200120836020015180519060200120846040015180519060200120856060015180519060200120866080015173ffffffffffffffffffffffffffffffffffffffff1660001b60405160200161046296959493929190610f50565b604051602081830303815290604052805190602001209050919050565b60405180606001604052806060815260200160608152602001600073ffffffffffffffffffffffffffffffffffffffff1681525090565b60405180606001604052806000801916815260200160008019168152602001600060ff1681525090565b6040518060a0016040528060608152602001606081526020016060815260200160608152602001600073ffffffffffffffffffffffffffffffffffffffff1681525090565b6000819050919050565b61053881610525565b82525050565b6000602082019050610553600083018461052f565b92915050565b6000604051905090565b600080fd5b600080fd5b600080fd5b600080fd5b6000601f19601f8301169050919050565b7f4e487b7100000000000000000000000000000000000000000000000000000000600052604160045260246000fd5b6105c082610577565b810181811067ffffffffffffffff821117156105df576105de610588565b5b80604052505050565b60006105f2610559565b90506105fe82826105b7565b919050565b600067ffffffffffffffff82111561061e5761061d610588565b5b61062782610577565b9050602081019050919050565b82818337600083830152505050565b600061065661065184610603565b6105e8565b90508281526020810184848401111561067257610671610572565b5b61067d848285610634565b509392505050565b600082601f83011261069a5761069961056d565b5b81356106aa848260208601610643565b91505092915050565b600080604083850312156106ca576106c9610563565b5b600083013567ffffffffffffffff8111156106e8576106e7610568565b5b6106f485828601610685565b925050602083013567ffffffffffffffff81111561071557610714610568565b5b61072185828601610685565b9150509250929050565b600073ffffffffffffffffffffffffffffffffffffffff82169050919050565b60006107568261072b565b9050919050565b6107668161074b565b82525050565b600081519050919050565b600082825260208201905092915050565b60005b838110156107a657808201518184015260208101905061078b565b60008484015250505050565b60006107bd8261076c565b6107c78185610777565b93506107d7818560208601610788565b6107e081610577565b840191505092915050565b6107f48161074b565b82525050565b6000606083016000830151848203600086015261081782826107b2565b9150506020830151848203602086015261083182826107b2565b915050604083015161084660408601826107eb565b508091505092915050565b61085a81610525565b82525050565b600060ff82169050919050565b61087681610860565b82525050565b6060820160008201516108926000850182610851565b5060208201516108a56020850182610851565b5060408201516108b8604085018261086d565b50505050565b600060a0820190506108d3600083018661075d565b81810360208301526108e581856107fa565b90506108f4604083018461087c565b949350505050565b6000819050919050565b61090f816108fc565b82525050565b600060608201905061092a600083018661052f565b6109376020830185610906565b610944604083018461075d565b949350505050565b600060a083016000830151848203600086015261096982826107b2565b9150506020830151848203602086015261098382826107b2565b9150506040830151848203604086015261099d82826107b2565b915050606083015184820360608601526109b782826107b2565b91505060808301516109cc60808601826107eb565b508091505092915050565b600060a0820190506109ec600083018661075d565b81810360208301526109fe818561094c565b9050610a0d604083018461087c565b949350505050565b600080fd5b600080fd5b600067ffffffffffffffff821115610a3a57610a39610588565b5b610a4382610577565b9050602081019050919050565b6000610a63610a5e84610a1f565b6105e8565b905082815260208101848484011115610a7f57610a7e610572565b5b610a8a848285610788565b509392505050565b600082601f830112610aa757610aa661056d565b5b8151610ab7848260208601610a50565b91505092915050565b610ac98161074b565b8114610ad457600080fd5b50565b600081519050610ae681610ac0565b92915050565b600060608284031215610b0257610b01610a15565b5b610b0c60606105e8565b9050600082015167ffffffffffffffff811115610b2c57610b2b610a1a565b5b610b3884828501610a92565b600083015250602082015167ffffffffffffffff811115610b5c57610b5b610a1a565b5b610b6884828501610a92565b6020830152506040610b7c84828501610ad7565b60408301525092915050565b600060208284031215610b9e57610b9d610563565b5b600082015167ffffffffffffffff811115610bbc57610bbb610568565b5b610bc884828501610aec565b91505092915050565b610bda81610525565b8114610be557600080fd5b50565b600081519050610bf781610bd1565b92915050565b610c0681610860565b8114610c1157600080fd5b50565b600081519050610c2381610bfd565b92915050565b600060608284031215610c3f57610c3e610a15565b5b610c4960606105e8565b90506000610c5984828501610be8565b6000830152506020610c6d84828501610be8565b6020830152506040610c8184828501610c14565b60408301525092915050565b600060608284031215610ca357610ca2610563565b5b6000610cb184828501610c29565b91505092915050565b600060a08284031215610cd057610ccf610a15565b5b610cda60a06105e8565b9050600082015167ffffffffffffffff811115610cfa57610cf9610a1a565b5b610d0684828501610a92565b600083015250602082015167ffffffffffffffff811115610d2a57610d29610a1a565b5b610d3684828501610a92565b602083015250604082015167ffffffffffffffff811115610d5a57610d59610a1a565b5b610d6684828501610a92565b604083015250606082015167ffffffffffffffff811115610d8a57610d89610a1a565b5b610d9684828501610a92565b6060830152506080610daa84828501610ad7565b60808301525092915050565b600060208284031215610dcc57610dcb610563565b5b600082015167ffffffffffffffff811115610dea57610de9610568565b5b610df684828501610cba565b91505092915050565b6000819050919050565b610e1a610e1582610525565b610dff565b82525050565b6000610e2c8287610e09565b602082019150610e3c8286610e09565b602082019150610e4c8285610e09565b602082019150610e5c8284610e09565b60208201915081905095945050505050565b600081905092915050565b7f1901000000000000000000000000000000000000000000000000000000000000600082015250565b6000610eaf600283610e6e565b9150610eba82610e79565b600282019050919050565b6000610ed082610ea2565b9150610edc8285610e09565b602082019150610eec8284610e09565b6020820191508190509392505050565b610f0581610860565b82525050565b6000608082019050610f20600083018761052f565b610f2d6020830186610efc565b610f3a604083018561052f565b610f47606083018461052f565b95945050505050565b6000610f5c8289610e09565b602082019150610f6c8288610e09565b602082019150610f7c8287610e09565b602082019150610f8c8286610e09565b602082019150610f9c8285610e09565b602082019150610fac8284610e09565b60208201915081905097965050505050505056fe43504f436572746966696361746528737472696e67206964656e7469666965722c737472696e67206e616d652c61646472657373206f776e657229454d50436572746966696361746528737472696e67206e616d652c737472696e67206d61726b7466756e6b74696f6e2c737472696e67206c6965666572616e742c737472696e672062696c616e7a6b726569732c61646472657373206f776e657229a26469706673582212200c801eee4285721239525744aadd244baa6026848c84d72a57f1fdd7b726f5d864736f6c63430008140033",
  "linkReferences": {},
  "deployedLinkReferences": {}
}