{
  "address": "0x57B0b49eA53AD2D000729c224c8Ef39F384253EF",
  "abi": [
    {
      "inputs": [
        {
          "internalType": "address",
          "name": "_euroStablecoin",
          "type": "address"
        },
        {
          "internalType": "uint256",
          "name": "_fundingYearlyAmount",
          "type": "uint256"
        }
      ],
      "stateMutability": "nonpayable",
      "type": "constructor"
    },
    {
      "inputs": [],
      "name": "AccessControlBadConfirmation",
      "type": "error"
    },
    {
      "inputs": [
        {
          "internalType": "address",
          "name": "account",
          "type": "address"
        },
        {
          "internalType": "bytes32",
          "name": "neededRole",
          "type": "bytes32"
        }
      ],
      "name": "AccessControlUnauthorizedAccount",
      "type": "error"
    },
    {
      "inputs": [],
      "name": "InsufficientAllowance",
      "type": "error"
    },
    {
      "inputs": [],
      "name": "NoFundsStaked",
      "type": "error"
    },
    {
      "inputs": [],
      "name": "TransferFailed",
      "type": "error"
    },
    {
      "inputs": [],
      "name": "WithdrawalNotAllowed",
      "type": "error"
    },
    {
      "anonymous": false,
      "inputs": [
        {
          "indexed": true,
          "internalType": "address",
          "name": "oldAdmin",
          "type": "address"
        },
        {
          "indexed": true,
          "internalType": "address",
          "name": "newAdmin",
          "type": "address"
        }
      ],
      "name": "OwnershipTransferred",
      "type": "event"
    },
    {
      "anonymous": false,
      "inputs": [
        {
          "indexed": true,
          "internalType": "address",
          "name": "party",
          "type": "address"
        },
        {
          "indexed": false,
          "internalType": "address",
          "name": "ocnWallet",
          "type": "address"
        },
        {
          "indexed": false,
          "internalType": "uint256",
          "name": "amount",
          "type": "uint256"
        }
      ],
      "name": "PartialWithdrawal",
      "type": "event"
    },
    {
      "anonymous": false,
      "inputs": [
        {
          "indexed": true,
          "internalType": "address",
          "name": "operator",
          "type": "address"
        },
        {
          "indexed": false,
          "internalType": "uint256",
          "name": "amount",
          "type": "uint256"
        }
      ],
      "name": "PaymentMade",
      "type": "event"
    },
    {
      "anonymous": false,
      "inputs": [
        {
          "indexed": true,
          "internalType": "bytes32",
          "name": "role",
          "type": "bytes32"
        },
        {
          "indexed": true,
          "internalType": "bytes32",
          "name": "previousAdminRole",
          "type": "bytes32"
        },
        {
          "indexed": true,
          "internalType": "bytes32",
          "name": "newAdminRole",
          "type": "bytes32"
        }
      ],
      "name": "RoleAdminChanged",
      "type": "event"
    },
    {
      "anonymous": false,
      "inputs": [
        {
          "indexed": true,
          "internalType": "bytes32",
          "name": "role",
          "type": "bytes32"
        },
        {
          "indexed": true,
          "internalType": "address",
          "name": "account",
          "type": "address"
        },
        {
          "indexed": true,
          "internalType": "address",
          "name": "sender",
          "type": "address"
        }
      ],
      "name": "RoleGranted",
      "type": "event"
    },
    {
      "anonymous": false,
      "inputs": [
        {
          "indexed": true,
          "internalType": "bytes32",
          "name": "role",
          "type": "bytes32"
        },
        {
          "indexed": true,
          "internalType": "address",
          "name": "account",
          "type": "address"
        },
        {
          "indexed": true,
          "internalType": "address",
          "name": "sender",
          "type": "address"
        }
      ],
      "name": "RoleRevoked",
      "type": "event"
    },
    {
      "inputs": [],
      "name": "DEFAULT_ADMIN_ROLE",
      "outputs": [
        {
          "internalType": "bytes32",
          "name": "",
          "type": "bytes32"
        }
      ],
      "stateMutability": "view",
      "type": "function"
    },
    {
      "inputs": [],
      "name": "euroStablecoin",
      "outputs": [
        {
          "internalType": "contract IERC20",
          "name": "",
          "type": "address"
        }
      ],
      "stateMutability": "view",
      "type": "function"
    },
    {
      "inputs": [],
      "name": "fundingYearlyAmount",
      "outputs": [
        {
          "internalType": "uint256",
          "name": "",
          "type": "uint256"
        }
      ],
      "stateMutability": "view",
      "type": "function"
    },
    {
      "inputs": [],
      "name": "getFundingYearlyAmount",
      "outputs": [
        {
          "internalType": "uint256",
          "name": "",
          "type": "uint256"
        }
      ],
      "stateMutability": "view",
      "type": "function"
    },
    {
      "inputs": [
        {
          "internalType": "address",
          "name": "operator",
          "type": "address"
        }
      ],
      "name": "getPaymentStatus",
      "outputs": [
        {
          "internalType": "enum IOcnPaymentManager.PaymentStatus",
          "name": "",
          "type": "uint8"
        }
      ],
      "stateMutability": "view",
      "type": "function"
    },
    {
      "inputs": [
        {
          "internalType": "bytes32",
          "name": "role",
          "type": "bytes32"
        }
      ],
      "name": "getRoleAdmin",
      "outputs": [
        {
          "internalType": "bytes32",
          "name": "",
          "type": "bytes32"
        }
      ],
      "stateMutability": "view",
      "type": "function"
    },
    {
      "inputs": [
        {
          "internalType": "bytes32",
          "name": "role",
          "type": "bytes32"
        },
        {
          "internalType": "address",
          "name": "account",
          "type": "address"
        }
      ],
      "name": "grantRole",
      "outputs": [],
      "stateMutability": "nonpayable",
      "type": "function"
    },
    {
      "inputs": [
        {
          "internalType": "bytes32",
          "name": "role",
          "type": "bytes32"
        },
        {
          "internalType": "address",
          "name": "account",
          "type": "address"
        }
      ],
      "name": "hasRole",
      "outputs": [
        {
          "internalType": "bool",
          "name": "",
          "type": "bool"
        }
      ],
      "stateMutability": "view",
      "type": "function"
    },
    {
      "inputs": [
        {
          "internalType": "address",
          "name": "",
          "type": "address"
        }
      ],
      "name": "lastPaymentTime",
      "outputs": [
        {
          "internalType": "uint256",
          "name": "",
          "type": "uint256"
        }
      ],
      "stateMutability": "view",
      "type": "function"
    },
    {
      "inputs": [],
      "name": "ocnWallet",
      "outputs": [
        {
          "internalType": "address",
          "name": "",
          "type": "address"
        }
      ],
      "stateMutability": "view",
      "type": "function"
    },
    {
      "inputs": [],
      "name": "pay",
      "outputs": [],
      "stateMutability": "nonpayable",
      "type": "function"
    },
    {
      "inputs": [
        {
          "internalType": "bytes32",
          "name": "role",
          "type": "bytes32"
        },
        {
          "internalType": "address",
          "name": "callerConfirmation",
          "type": "address"
        }
      ],
      "name": "renounceRole",
      "outputs": [],
      "stateMutability": "nonpayable",
      "type": "function"
    },
    {
      "inputs": [
        {
          "internalType": "bytes32",
          "name": "role",
          "type": "bytes32"
        },
        {
          "internalType": "address",
          "name": "account",
          "type": "address"
        }
      ],
      "name": "revokeRole",
      "outputs": [],
      "stateMutability": "nonpayable",
      "type": "function"
    },
    {
      "inputs": [
        {
          "internalType": "uint256",
          "name": "_fundingYearlyAmount",
          "type": "uint256"
        }
      ],
      "name": "setFundingYearlyAmount",
      "outputs": [],
      "stateMutability": "nonpayable",
      "type": "function"
    },
    {
      "inputs": [
        {
          "internalType": "address",
          "name": "_euroStablecoin",
          "type": "address"
        }
      ],
      "name": "setStablecoinAddress",
      "outputs": [],
      "stateMutability": "nonpayable",
      "type": "function"
    },
    {
      "inputs": [
        {
          "internalType": "address",
          "name": "",
          "type": "address"
        }
      ],
      "name": "stakedFunds",
      "outputs": [
        {
          "internalType": "uint256",
          "name": "",
          "type": "uint256"
        }
      ],
      "stateMutability": "view",
      "type": "function"
    },
    {
      "inputs": [
        {
          "internalType": "bytes4",
          "name": "interfaceId",
          "type": "bytes4"
        }
      ],
      "name": "supportsInterface",
      "outputs": [
        {
          "internalType": "bool",
          "name": "",
          "type": "bool"
        }
      ],
      "stateMutability": "view",
      "type": "function"
    },
    {
      "inputs": [
        {
          "internalType": "address",
          "name": "newOwner",
          "type": "address"
        }
      ],
      "name": "transferOwnership",
      "outputs": [],
      "stateMutability": "nonpayable",
      "type": "function"
    },
    {
      "inputs": [
        {
          "internalType": "address",
          "name": "party",
          "type": "address"
        }
      ],
      "name": "withdrawToOcnWallet",
      "outputs": [],
      "stateMutability": "nonpayable",
      "type": "function"
    }
  ],
  "transactionHash": "0x490be971ca421892df42179546ec358208c7d576acb6278a1cd67fdf978dd829",
  "args": [
    "0x37C0Da4D25Cc1e2404703E09B42D181a9383e4D1",
    100
  ],
  "numDeployments": 1,
  "solcInputHash": "c04738306f2ab0b645277dc28d36c787",
  "bytecode": "0x608060405234801561001057600080fd5b50604051610aff380380610aff83398101604081905261002f9161011e565b600280546001600160a01b0319166001600160a01b03841617905561005c81670de0b6b3a7640000610158565b60015561006a600033610072565b50505061017d565b6000828152602081815260408083206001600160a01b038516845290915281205460ff16610114576000838152602081815260408083206001600160a01b03861684529091529020805460ff191660011790556100cc3390565b6001600160a01b0316826001600160a01b0316847f2f8788117e7eff1d82e926ec794901d17c78024a50270940304540a733656f0d60405160405180910390a4506001610118565b5060005b92915050565b6000806040838503121561013157600080fd5b82516001600160a01b038116811461014857600080fd5b6020939093015192949293505050565b808202811582820484141761011857634e487b7160e01b600052601160045260246000fd5b6109738061018c6000396000f3fe608060405234801561001057600080fd5b50600436106101215760003560e01c80636c1e630b116100ad578063bc7b286d11610071578063bc7b286d14610275578063c081665814610295578063d547741f1461029d578063f2fde38b146102b0578063fc5f72fc146102c357600080fd5b80636c1e630b14610216578063888b22841461022757806391d14854146102475780639ecd05001461025a578063a217fddf1461026d57600080fd5b8063248a9ca3116100f4578063248a9ca3146101825780632f2ff15d146101a557806336568abe146101b85780633ae780bc146101cb578063697532b2146101f657600080fd5b806301ffc9a7146101265780631459616f1461014e5780631b9265b8146101655780631f81b2c01461016f575b600080fd5b6101396101343660046107d0565b6102d6565b60405190151581526020015b60405180910390f35b61015760015481565b604051908152602001610145565b61016d61030d565b005b61016d61017d366004610801565b6104b4565b610157610190366004610801565b60009081526020819052604090206001015490565b61016d6101b3366004610831565b6104d8565b61016d6101c6366004610831565b610503565b6003546101de906001600160a01b031681565b6040516001600160a01b039091168152602001610145565b61015761020436600461085d565b60056020526000908152604090205481565b61016d61022436600461085d565b50565b61023a61023536600461085d565b61053b565b6040516101459190610878565b610139610255366004610831565b610594565b61016d61026836600461085d565b6105bd565b610157600081565b61015761028336600461085d565b60046020526000908152604090205481565b6101576105eb565b61016d6102ab366004610831565b610608565b61016d6102be36600461085d565b61062d565b6002546101de906001600160a01b031681565b60006001600160e01b03198216637965db0b60e01b148061030757506301ffc9a760e01b6001600160e01b03198316145b92915050565b600254604051636eb1769f60e11b81523360048201523060248201526000916001600160a01b03169063dd62ed3e90604401602060405180830381865afa15801561035c573d6000803e3d6000fd5b505050506040513d601f19601f8201168201806040525081019061038091906108a0565b90506001548110156103a5576040516313be252b60e01b815260040160405180910390fd5b6002546001546040516323b872dd60e01b815233600482015230602482015260448101919091526001600160a01b03909116906323b872dd906064016020604051808303816000875af1158015610400573d6000803e3d6000fd5b505050506040513d601f19601f8201168201806040525081019061042491906108b9565b610441576040516312171d8360e31b815260040160405180910390fd5b60015433600090815260046020526040812080549091906104639084906108f1565b90915550503360008181526005602090815260409182902042905560015491519182527f3a2d0e41c506b136330c6e5e0295ccbf0966daece99bfe7c89020cc01dbfb8d6910160405180910390a250565b60006104bf81610688565b6104d182670de0b6b3a7640000610904565b6001555050565b6000828152602081905260409020600101546104f381610688565b6104fd8383610692565b50505050565b6001600160a01b038116331461052c5760405163334bd91960e11b815260040160405180910390fd5b6105368282610724565b505050565b6001600160a01b0381166000908152600460205260408120541561056157506001919050565b6001600160a01b0382166000908152600560205260409020541561058757506002919050565b506000919050565b919050565b6000918252602082815260408084206001600160a01b0393909316845291905290205460ff1690565b60006105c881610688565b50600280546001600160a01b0319166001600160a01b0392909216919091179055565b6000670de0b6b3a7640000600154610603919061091b565b905090565b60008281526020819052604090206001015461062381610688565b6104fd8383610724565b600061063881610688565b6106436000836104d8565b61064e600033610608565b6040516001600160a01b0383169033907f8be0079c531659141344cd1fd0a4f28419497f9722a3daafe3b4186f6b6457e090600090a35050565b610224813361078f565b600061069e8383610594565b61071c576000838152602081815260408083206001600160a01b03861684529091529020805460ff191660011790556106d43390565b6001600160a01b0316826001600160a01b0316847f2f8788117e7eff1d82e926ec794901d17c78024a50270940304540a733656f0d60405160405180910390a4506001610307565b506000610307565b60006107308383610594565b1561071c576000838152602081815260408083206001600160a01b0386168085529252808320805460ff1916905551339286917ff6391f5c32d9c69d2a47ea670b442974b53935d1edc7fd64eb21e047a839171b9190a4506001610307565b6107998282610594565b6107cc5760405163e2517d3f60e01b81526001600160a01b03821660048201526024810183905260440160405180910390fd5b5050565b6000602082840312156107e257600080fd5b81356001600160e01b0319811681146107fa57600080fd5b9392505050565b60006020828403121561081357600080fd5b5035919050565b80356001600160a01b038116811461058f57600080fd5b6000806040838503121561084457600080fd5b823591506108546020840161081a565b90509250929050565b60006020828403121561086f57600080fd5b6107fa8261081a565b602081016004831061089a57634e487b7160e01b600052602160045260246000fd5b91905290565b6000602082840312156108b257600080fd5b5051919050565b6000602082840312156108cb57600080fd5b815180151581146107fa57600080fd5b634e487b7160e01b600052601160045260246000fd5b80820180821115610307576103076108db565b8082028115828204841417610307576103076108db565b60008261093857634e487b7160e01b600052601260045260246000fd5b50049056fea26469706673582212209e7fc860557acaf728531498208f3c6302b53e7a9813720a2d0593f47b41ad0164736f6c63430008180033",
  "devdoc": {
    "errors": {
      "AccessControlBadConfirmation()": [
        {
          "details": "The caller of a function is not the expected one. NOTE: Don't confuse with {AccessControlUnauthorizedAccount}."
        }
      ],
      "AccessControlUnauthorizedAccount(address,bytes32)": [
        {
          "details": "The `account` is missing a role."
        }
      ]
    },
    "events": {
      "RoleAdminChanged(bytes32,bytes32,bytes32)": {
        "details": "Emitted when `newAdminRole` is set as ``role``'s admin role, replacing `previousAdminRole` `DEFAULT_ADMIN_ROLE` is the starting admin for all roles, despite {RoleAdminChanged} not being emitted signaling this."
      },
      "RoleGranted(bytes32,address,address)": {
        "details": "Emitted when `account` is granted `role`. `sender` is the account that originated the contract call, an admin role bearer except when using {AccessControl-_setupRole}."
      },
      "RoleRevoked(bytes32,address,address)": {
        "details": "Emitted when `account` is revoked `role`. `sender` is the account that originated the contract call:   - if using `revokeRole`, it is the admin role bearer   - if using `renounceRole`, it is the role bearer (i.e. `account`)"
      }
    },
    "kind": "dev",
    "methods": {
      "constructor": {
        "custom:oz-upgrades-unsafe-allow": "constructor"
      },
      "getRoleAdmin(bytes32)": {
        "details": "Returns the admin role that controls `role`. See {grantRole} and {revokeRole}. To change a role's admin, use {_setRoleAdmin}."
      },
      "grantRole(bytes32,address)": {
        "details": "Grants `role` to `account`. If `account` had not been already granted `role`, emits a {RoleGranted} event. Requirements: - the caller must have ``role``'s admin role. May emit a {RoleGranted} event."
      },
      "hasRole(bytes32,address)": {
        "details": "Returns `true` if `account` has been granted `role`."
      },
      "renounceRole(bytes32,address)": {
        "details": "Revokes `role` from the calling account. Roles are often managed via {grantRole} and {revokeRole}: this function's purpose is to provide a mechanism for accounts to lose their privileges if they are compromised (such as when a trusted device is misplaced). If the calling account had been revoked `role`, emits a {RoleRevoked} event. Requirements: - the caller must be `callerConfirmation`. May emit a {RoleRevoked} event."
      },
      "revokeRole(bytes32,address)": {
        "details": "Revokes `role` from `account`. If `account` had been granted `role`, emits a {RoleRevoked} event. Requirements: - the caller must have ``role``'s admin role. May emit a {RoleRevoked} event."
      },
      "supportsInterface(bytes4)": {
        "details": "See {IERC165-supportsInterface}."
      }
    },
    "version": 1
  },
  "userdoc": {
    "kind": "user",
    "methods": {
      "getPaymentStatus(address)": {
        "notice": "Returns the payment status of a given operator. PAYMENT_UP_TO_DATE: has staked funds INSUFFICIENT_FUNDS: has no staked funds but has made a payment before PENDING: has not made any payment yet"
      },
      "pay()": {
        "notice": "Allows an operator to make a payment."
      },
      "withdrawToOcnWallet(address)": {
        "notice": "Execute a partial withdrawal of the staked funds to the OCN wallet."
      }
    },
    "version": 1
  },
  "storageLayout": {
    "storage": [
      {
        "astId": 26,
        "contract": "contracts/OcnPaymentManager.sol:OcnPaymentManager",
        "label": "_roles",
        "offset": 0,
        "slot": "0",
        "type": "t_mapping(t_bytes32,t_struct(RoleData)21_storage)"
      },
      {
        "astId": 14148,
        "contract": "contracts/OcnPaymentManager.sol:OcnPaymentManager",
        "label": "fundingYearlyAmount",
        "offset": 0,
        "slot": "1",
        "type": "t_uint256"
      },
      {
        "astId": 14151,
        "contract": "contracts/OcnPaymentManager.sol:OcnPaymentManager",
        "label": "euroStablecoin",
        "offset": 0,
        "slot": "2",
        "type": "t_contract(IERC20)6542"
      },
      {
        "astId": 14153,
        "contract": "contracts/OcnPaymentManager.sol:OcnPaymentManager",
        "label": "ocnWallet",
        "offset": 0,
        "slot": "3",
        "type": "t_address"
      },
      {
        "astId": 14157,
        "contract": "contracts/OcnPaymentManager.sol:OcnPaymentManager",
        "label": "stakedFunds",
        "offset": 0,
        "slot": "4",
        "type": "t_mapping(t_address,t_uint256)"
      },
      {
        "astId": 14161,
        "contract": "contracts/OcnPaymentManager.sol:OcnPaymentManager",
        "label": "lastPaymentTime",
        "offset": 0,
        "slot": "5",
        "type": "t_mapping(t_address,t_uint256)"
      }
    ],
    "types": {
      "t_address": {
        "encoding": "inplace",
        "label": "address",
        "numberOfBytes": "20"
      },
      "t_bool": {
        "encoding": "inplace",
        "label": "bool",
        "numberOfBytes": "1"
      },
      "t_bytes32": {
        "encoding": "inplace",
        "label": "bytes32",
        "numberOfBytes": "32"
      },
      "t_contract(IERC20)6542": {
        "encoding": "inplace",
        "label": "contract IERC20",
        "numberOfBytes": "20"
      },
      "t_mapping(t_address,t_bool)": {
        "encoding": "mapping",
        "key": "t_address",
        "label": "mapping(address => bool)",
        "numberOfBytes": "32",
        "value": "t_bool"
      },
      "t_mapping(t_address,t_uint256)": {
        "encoding": "mapping",
        "key": "t_address",
        "label": "mapping(address => uint256)",
        "numberOfBytes": "32",
        "value": "t_uint256"
      },
      "t_mapping(t_bytes32,t_struct(RoleData)21_storage)": {
        "encoding": "mapping",
        "key": "t_bytes32",
        "label": "mapping(bytes32 => struct AccessControl.RoleData)",
        "numberOfBytes": "32",
        "value": "t_struct(RoleData)21_storage"
      },
      "t_struct(RoleData)21_storage": {
        "encoding": "inplace",
        "label": "struct AccessControl.RoleData",
        "members": [
          {
            "astId": 18,
            "contract": "contracts/OcnPaymentManager.sol:OcnPaymentManager",
            "label": "hasRole",
            "offset": 0,
            "slot": "0",
            "type": "t_mapping(t_address,t_bool)"
          },
          {
            "astId": 20,
            "contract": "contracts/OcnPaymentManager.sol:OcnPaymentManager",
            "label": "adminRole",
            "offset": 0,
            "slot": "1",
            "type": "t_bytes32"
          }
        ],
        "numberOfBytes": "64"
      },
      "t_uint256": {
        "encoding": "inplace",
        "label": "uint256",
        "numberOfBytes": "32"
      }
    }
  }
}