{
  "address": "0xa5194cb376FDa2222f3fb37dA6F3F2Df69Bd27DB",
  "abi": [
    {
      "inputs": [
        {
          "internalType": "address",
          "name": "_euroStablecoin",
          "type": "address"
        }
      ],
      "stateMutability": "nonpayable",
      "type": "constructor"
    },
    {
      "inputs": [],
      "name": "AccessControlBadConfirmation",
      "type": "error"
    },
    {
      "inputs": [
        {
          "internalType": "address",
          "name": "account",
          "type": "address"
        },
        {
          "internalType": "bytes32",
          "name": "neededRole",
          "type": "bytes32"
        }
      ],
      "name": "AccessControlUnauthorizedAccount",
      "type": "error"
    },
    {
      "anonymous": false,
      "inputs": [
        {
          "indexed": true,
          "internalType": "address",
          "name": "operator",
          "type": "address"
        },
        {
          "indexed": false,
          "internalType": "uint256",
          "name": "amount",
          "type": "uint256"
        }
      ],
      "name": "PaymentMade",
      "type": "event"
    },
    {
      "anonymous": false,
      "inputs": [
        {
          "indexed": true,
          "internalType": "bytes32",
          "name": "role",
          "type": "bytes32"
        },
        {
          "indexed": true,
          "internalType": "bytes32",
          "name": "previousAdminRole",
          "type": "bytes32"
        },
        {
          "indexed": true,
          "internalType": "bytes32",
          "name": "newAdminRole",
          "type": "bytes32"
        }
      ],
      "name": "RoleAdminChanged",
      "type": "event"
    },
    {
      "anonymous": false,
      "inputs": [
        {
          "indexed": true,
          "internalType": "bytes32",
          "name": "role",
          "type": "bytes32"
        },
        {
          "indexed": true,
          "internalType": "address",
          "name": "account",
          "type": "address"
        },
        {
          "indexed": true,
          "internalType": "address",
          "name": "sender",
          "type": "address"
        }
      ],
      "name": "RoleGranted",
      "type": "event"
    },
    {
      "anonymous": false,
      "inputs": [
        {
          "indexed": true,
          "internalType": "bytes32",
          "name": "role",
          "type": "bytes32"
        },
        {
          "indexed": true,
          "internalType": "address",
          "name": "account",
          "type": "address"
        },
        {
          "indexed": true,
          "internalType": "address",
          "name": "sender",
          "type": "address"
        }
      ],
      "name": "RoleRevoked",
      "type": "event"
    },
    {
      "anonymous": false,
      "inputs": [
        {
          "indexed": true,
          "internalType": "address",
          "name": "party",
          "type": "address"
        },
        {
          "indexed": false,
          "internalType": "uint256",
          "name": "amount",
          "type": "uint256"
        }
      ],
      "name": "Withdrawal",
      "type": "event"
    },
    {
      "inputs": [],
      "name": "DEFAULT_ADMIN_ROLE",
      "outputs": [
        {
          "internalType": "bytes32",
          "name": "",
          "type": "bytes32"
        }
      ],
      "stateMutability": "view",
      "type": "function"
    },
    {
      "inputs": [],
      "name": "euroStablecoin",
      "outputs": [
        {
          "internalType": "contract IERC20",
          "name": "",
          "type": "address"
        }
      ],
      "stateMutability": "view",
      "type": "function"
    },
    {
      "inputs": [],
      "name": "fundingYearlyAmount",
      "outputs": [
        {
          "internalType": "uint256",
          "name": "",
          "type": "uint256"
        }
      ],
      "stateMutability": "view",
      "type": "function"
    },
    {
      "inputs": [],
      "name": "getFundingYearlyAmount",
      "outputs": [
        {
          "internalType": "uint256",
          "name": "",
          "type": "uint256"
        }
      ],
      "stateMutability": "view",
      "type": "function"
    },
    {
      "inputs": [
        {
          "internalType": "address",
          "name": "operator",
          "type": "address"
        }
      ],
      "name": "getPaymentStatus",
      "outputs": [
        {
          "internalType": "enum IOcnPaymentManager.PaymentStatus",
          "name": "",
          "type": "uint8"
        }
      ],
      "stateMutability": "view",
      "type": "function"
    },
    {
      "inputs": [
        {
          "internalType": "bytes32",
          "name": "role",
          "type": "bytes32"
        }
      ],
      "name": "getRoleAdmin",
      "outputs": [
        {
          "internalType": "bytes32",
          "name": "",
          "type": "bytes32"
        }
      ],
      "stateMutability": "view",
      "type": "function"
    },
    {
      "inputs": [
        {
          "internalType": "bytes32",
          "name": "role",
          "type": "bytes32"
        },
        {
          "internalType": "address",
          "name": "account",
          "type": "address"
        }
      ],
      "name": "grantRole",
      "outputs": [],
      "stateMutability": "nonpayable",
      "type": "function"
    },
    {
      "inputs": [
        {
          "internalType": "bytes32",
          "name": "role",
          "type": "bytes32"
        },
        {
          "internalType": "address",
          "name": "account",
          "type": "address"
        }
      ],
      "name": "hasRole",
      "outputs": [
        {
          "internalType": "bool",
          "name": "",
          "type": "bool"
        }
      ],
      "stateMutability": "view",
      "type": "function"
    },
    {
      "inputs": [
        {
          "internalType": "address",
          "name": "",
          "type": "address"
        }
      ],
      "name": "lastPaymentTime",
      "outputs": [
        {
          "internalType": "uint256",
          "name": "",
          "type": "uint256"
        }
      ],
      "stateMutability": "view",
      "type": "function"
    },
    {
      "inputs": [],
      "name": "pay",
      "outputs": [],
      "stateMutability": "nonpayable",
      "type": "function"
    },
    {
      "inputs": [
        {
          "internalType": "bytes32",
          "name": "role",
          "type": "bytes32"
        },
        {
          "internalType": "address",
          "name": "callerConfirmation",
          "type": "address"
        }
      ],
      "name": "renounceRole",
      "outputs": [],
      "stateMutability": "nonpayable",
      "type": "function"
    },
    {
      "inputs": [
        {
          "internalType": "bytes32",
          "name": "role",
          "type": "bytes32"
        },
        {
          "internalType": "address",
          "name": "account",
          "type": "address"
        }
      ],
      "name": "revokeRole",
      "outputs": [],
      "stateMutability": "nonpayable",
      "type": "function"
    },
    {
      "inputs": [
        {
          "internalType": "uint256",
          "name": "_fundingYearlyAmount",
          "type": "uint256"
        }
      ],
      "name": "setFundingYearlyAmount",
      "outputs": [],
      "stateMutability": "nonpayable",
      "type": "function"
    },
    {
      "inputs": [
        {
          "internalType": "address",
          "name": "",
          "type": "address"
        }
      ],
      "name": "stakedFunds",
      "outputs": [
        {
          "internalType": "uint256",
          "name": "",
          "type": "uint256"
        }
      ],
      "stateMutability": "view",
      "type": "function"
    },
    {
      "inputs": [
        {
          "internalType": "bytes4",
          "name": "interfaceId",
          "type": "bytes4"
        }
      ],
      "name": "supportsInterface",
      "outputs": [
        {
          "internalType": "bool",
          "name": "",
          "type": "bool"
        }
      ],
      "stateMutability": "view",
      "type": "function"
    },
    {
      "inputs": [
        {
          "internalType": "address",
          "name": "newOwner",
          "type": "address"
        }
      ],
      "name": "transferOwnership",
      "outputs": [],
      "stateMutability": "nonpayable",
      "type": "function"
    },
    {
      "inputs": [],
      "name": "withdraw",
      "outputs": [],
      "stateMutability": "nonpayable",
      "type": "function"
    }
  ],
  "transactionHash": "0xef56e20533ab1adc30a9db46c1b2f769c59f8f0e25dbc751816488a6c1b9fc64",
  "args": [
    "0xaAaF1856adFf7367cbc47e4f3A2C5D44A215E661"
  ],
  "numDeployments": 1,
  "solcInputHash": "5047614b24583c3220ab424483bbf334",
  "bytecode": "0x608060405234801561001057600080fd5b50604051610c60380380610c6083398101604081905261002f91610115565b600280546001600160a01b0319166001600160a01b03831617905568056bc75e2d63100000600155610062600033610069565b5050610145565b6000828152602081815260408083206001600160a01b038516845290915281205460ff1661010b576000838152602081815260408083206001600160a01b03861684529091529020805460ff191660011790556100c33390565b6001600160a01b0316826001600160a01b0316847f2f8788117e7eff1d82e926ec794901d17c78024a50270940304540a733656f0d60405160405180910390a450600161010f565b5060005b92915050565b60006020828403121561012757600080fd5b81516001600160a01b038116811461013e57600080fd5b9392505050565b610b0c806101546000396000f3fe608060405234801561001057600080fd5b506004361061010b5760003560e01c8063697532b2116100a2578063bc7b286d11610071578063bc7b286d14610218578063c081665814610238578063d547741f14610240578063f2fde38b14610253578063fc5f72fc1461026657600080fd5b8063697532b2146101bd578063888b2284146101dd57806391d14854146101fd578063a217fddf1461021057600080fd5b8063248a9ca3116100de578063248a9ca31461016c5780632f2ff15d1461018f57806336568abe146101a25780633ccfd60b146101b557600080fd5b806301ffc9a7146101105780631459616f146101385780631b9265b81461014f5780631f81b2c014610159575b600080fd5b61012361011e366004610956565b610291565b60405190151581526020015b60405180910390f35b61014160015481565b60405190815260200161012f565b6101576102c8565b005b610157610167366004610987565b600155565b61014161017a366004610987565b60009081526020819052604090206001015490565b61015761019d3660046109b7565b6104cf565b6101576101b03660046109b7565b6104fa565b610157610532565b6101416101cb3660046109e3565b60046020526000908152604090205481565b6101f06101eb3660046109e3565b610742565b60405161012f91906109fe565b61012361020b3660046109b7565b6107a0565b610141600081565b6101416102263660046109e3565b60036020526000908152604090205481565b600154610141565b61015761024e3660046109b7565b6107c9565b6101576102613660046109e3565b6107ee565b600254610279906001600160a01b031681565b6040516001600160a01b03909116815260200161012f565b60006001600160e01b03198216637965db0b60e01b14806102c257506301ffc9a760e01b6001600160e01b03198316145b92915050565b600254604051636eb1769f60e11b81523360048201523060248201526000916001600160a01b03169063dd62ed3e90604401602060405180830381865afa158015610317573d6000803e3d6000fd5b505050506040513d601f19601f8201168201806040525081019061033b9190610a26565b905060015481101561039f5760405162461bcd60e51b815260206004820152602260248201527f496e73756666696369656e7420616c6c6f77616e636520666f72207061796d656044820152611b9d60f21b60648201526084015b60405180910390fd5b6002546001546040516323b872dd60e01b815233600482015230602482015260448101919091526001600160a01b03909116906323b872dd906064016020604051808303816000875af11580156103fa573d6000803e3d6000fd5b505050506040513d601f19601f8201168201806040525081019061041e9190610a3f565b61045c5760405162461bcd60e51b815260206004820152600f60248201526e151c985b9cd9995c8819985a5b1959608a1b6044820152606401610396565b600154336000908152600360205260408120805490919061047e908490610a77565b90915550503360008181526004602090815260409182902042905560015491519182527f3a2d0e41c506b136330c6e5e0295ccbf0966daece99bfe7c89020cc01dbfb8d6910160405180910390a250565b6000828152602081905260409020600101546104ea81610813565b6104f48383610820565b50505050565b6001600160a01b03811633146105235760405163334bd91960e11b815260040160405180910390fd5b61052d82826108b2565b505050565b336000908152600360205260409020546105805760405162461bcd60e51b815260206004820152600f60248201526e139bc8199d5b991cc81cdd185ad959608a1b6044820152606401610396565b3360009081526004602052604081205461059a9042610a8a565b905060006301e13380826001546105b19190610a9d565b6105bb9190610ab4565b90506000811161060d5760405162461bcd60e51b815260206004820152601a60248201527f5769746864726177616c206e6f7420616c6c6f776564207965740000000000006044820152606401610396565b60025460405163a9059cbb60e01b8152336004820152602481018390526001600160a01b039091169063a9059cbb906044016020604051808303816000875af115801561065e573d6000803e3d6000fd5b505050506040513d601f19601f820116820180604052508101906106829190610a3f565b6106ce5760405162461bcd60e51b815260206004820152601a60248201527f5769746864726177616c207472616e73666572206661696c65640000000000006044820152606401610396565b33600090815260036020526040812080548392906106ed908490610a8a565b90915550503360008181526004602052604090819020429055517f7fcf532c15f0a6db0bd6d0e038bea71d30d808c7d98cb3bf7268a95bf5081b65906107369084815260200190565b60405180910390a25050565b6001546001600160a01b03821660009081526003602052604081205490911161076d57506001919050565b6001600160a01b0382166000908152600360205260409020541561079357506002919050565b506000919050565b919050565b6000918252602082815260408084206001600160a01b0393909316845291905290205460ff1690565b6000828152602081905260409020600101546107e481610813565b6104f483836108b2565b60006107f981610813565b6108046000836104cf565b61080f6000336107c9565b5050565b61081d813361091d565b50565b600061082c83836107a0565b6108aa576000838152602081815260408083206001600160a01b03861684529091529020805460ff191660011790556108623390565b6001600160a01b0316826001600160a01b0316847f2f8788117e7eff1d82e926ec794901d17c78024a50270940304540a733656f0d60405160405180910390a45060016102c2565b5060006102c2565b60006108be83836107a0565b156108aa576000838152602081815260408083206001600160a01b0386168085529252808320805460ff1916905551339286917ff6391f5c32d9c69d2a47ea670b442974b53935d1edc7fd64eb21e047a839171b9190a45060016102c2565b61092782826107a0565b61080f5760405163e2517d3f60e01b81526001600160a01b038216600482015260248101839052604401610396565b60006020828403121561096857600080fd5b81356001600160e01b03198116811461098057600080fd5b9392505050565b60006020828403121561099957600080fd5b5035919050565b80356001600160a01b038116811461079b57600080fd5b600080604083850312156109ca57600080fd5b823591506109da602084016109a0565b90509250929050565b6000602082840312156109f557600080fd5b610980826109a0565b6020810160048310610a2057634e487b7160e01b600052602160045260246000fd5b91905290565b600060208284031215610a3857600080fd5b5051919050565b600060208284031215610a5157600080fd5b8151801515811461098057600080fd5b634e487b7160e01b600052601160045260246000fd5b808201808211156102c2576102c2610a61565b818103818111156102c2576102c2610a61565b80820281158282048414176102c2576102c2610a61565b600082610ad157634e487b7160e01b600052601260045260246000fd5b50049056fea2646970667358221220fc2ec27de57ae5e916a38ee1b2caea0e6bc548293e5d8c8f3164ecb342f7568264736f6c63430008140033",
  "devdoc": {
    "errors": {
      "AccessControlBadConfirmation()": [
        {
          "details": "The caller of a function is not the expected one. NOTE: Don't confuse with {AccessControlUnauthorizedAccount}."
        }
      ],
      "AccessControlUnauthorizedAccount(address,bytes32)": [
        {
          "details": "The `account` is missing a role."
        }
      ]
    },
    "events": {
      "RoleAdminChanged(bytes32,bytes32,bytes32)": {
        "details": "Emitted when `newAdminRole` is set as ``role``'s admin role, replacing `previousAdminRole` `DEFAULT_ADMIN_ROLE` is the starting admin for all roles, despite {RoleAdminChanged} not being emitted signaling this."
      },
      "RoleGranted(bytes32,address,address)": {
        "details": "Emitted when `account` is granted `role`. `sender` is the account that originated the contract call, an admin role bearer except when using {AccessControl-_setupRole}."
      },
      "RoleRevoked(bytes32,address,address)": {
        "details": "Emitted when `account` is revoked `role`. `sender` is the account that originated the contract call:   - if using `revokeRole`, it is the admin role bearer   - if using `renounceRole`, it is the role bearer (i.e. `account`)"
      }
    },
    "kind": "dev",
    "methods": {
      "constructor": {
        "custom:oz-upgrades-unsafe-allow": "constructor"
      },
      "getRoleAdmin(bytes32)": {
        "details": "Returns the admin role that controls `role`. See {grantRole} and {revokeRole}. To change a role's admin, use {_setRoleAdmin}."
      },
      "grantRole(bytes32,address)": {
        "details": "Grants `role` to `account`. If `account` had not been already granted `role`, emits a {RoleGranted} event. Requirements: - the caller must have ``role``'s admin role. May emit a {RoleGranted} event."
      },
      "hasRole(bytes32,address)": {
        "details": "Returns `true` if `account` has been granted `role`."
      },
      "renounceRole(bytes32,address)": {
        "details": "Revokes `role` from the calling account. Roles are often managed via {grantRole} and {revokeRole}: this function's purpose is to provide a mechanism for accounts to lose their privileges if they are compromised (such as when a trusted device is misplaced). If the calling account had been revoked `role`, emits a {RoleRevoked} event. Requirements: - the caller must be `callerConfirmation`. May emit a {RoleRevoked} event."
      },
      "revokeRole(bytes32,address)": {
        "details": "Revokes `role` from `account`. If `account` had been granted `role`, emits a {RoleRevoked} event. Requirements: - the caller must have ``role``'s admin role. May emit a {RoleRevoked} event."
      },
      "supportsInterface(bytes4)": {
        "details": "See {IERC165-supportsInterface}."
      }
    },
    "version": 1
  },
  "userdoc": {
    "kind": "user",
    "methods": {
      "getPaymentStatus(address)": {
        "notice": "Returns the payment status of a given operator."
      },
      "pay()": {
        "notice": "Allows an operator to make a payment."
      },
      "withdraw()": {
        "notice": "Allows an operator to withdraw their staked funds gradually."
      }
    },
    "version": 1
  },
  "storageLayout": {
    "storage": [
      {
        "astId": 26,
        "contract": "contracts/OcnPaymentManager.sol:OcnPaymentManager",
        "label": "_roles",
        "offset": 0,
        "slot": "0",
        "type": "t_mapping(t_bytes32,t_struct(RoleData)21_storage)"
      },
      {
        "astId": 591,
        "contract": "contracts/OcnPaymentManager.sol:OcnPaymentManager",
        "label": "fundingYearlyAmount",
        "offset": 0,
        "slot": "1",
        "type": "t_uint256"
      },
      {
        "astId": 594,
        "contract": "contracts/OcnPaymentManager.sol:OcnPaymentManager",
        "label": "euroStablecoin",
        "offset": 0,
        "slot": "2",
        "type": "t_contract(IERC20)456"
      },
      {
        "astId": 598,
        "contract": "contracts/OcnPaymentManager.sol:OcnPaymentManager",
        "label": "stakedFunds",
        "offset": 0,
        "slot": "3",
        "type": "t_mapping(t_address,t_uint256)"
      },
      {
        "astId": 602,
        "contract": "contracts/OcnPaymentManager.sol:OcnPaymentManager",
        "label": "lastPaymentTime",
        "offset": 0,
        "slot": "4",
        "type": "t_mapping(t_address,t_uint256)"
      }
    ],
    "types": {
      "t_address": {
        "encoding": "inplace",
        "label": "address",
        "numberOfBytes": "20"
      },
      "t_bool": {
        "encoding": "inplace",
        "label": "bool",
        "numberOfBytes": "1"
      },
      "t_bytes32": {
        "encoding": "inplace",
        "label": "bytes32",
        "numberOfBytes": "32"
      },
      "t_contract(IERC20)456": {
        "encoding": "inplace",
        "label": "contract IERC20",
        "numberOfBytes": "20"
      },
      "t_mapping(t_address,t_bool)": {
        "encoding": "mapping",
        "key": "t_address",
        "label": "mapping(address => bool)",
        "numberOfBytes": "32",
        "value": "t_bool"
      },
      "t_mapping(t_address,t_uint256)": {
        "encoding": "mapping",
        "key": "t_address",
        "label": "mapping(address => uint256)",
        "numberOfBytes": "32",
        "value": "t_uint256"
      },
      "t_mapping(t_bytes32,t_struct(RoleData)21_storage)": {
        "encoding": "mapping",
        "key": "t_bytes32",
        "label": "mapping(bytes32 => struct AccessControl.RoleData)",
        "numberOfBytes": "32",
        "value": "t_struct(RoleData)21_storage"
      },
      "t_struct(RoleData)21_storage": {
        "encoding": "inplace",
        "label": "struct AccessControl.RoleData",
        "members": [
          {
            "astId": 18,
            "contract": "contracts/OcnPaymentManager.sol:OcnPaymentManager",
            "label": "hasRole",
            "offset": 0,
            "slot": "0",
            "type": "t_mapping(t_address,t_bool)"
          },
          {
            "astId": 20,
            "contract": "contracts/OcnPaymentManager.sol:OcnPaymentManager",
            "label": "adminRole",
            "offset": 0,
            "slot": "1",
            "type": "t_bytes32"
          }
        ],
        "numberOfBytes": "64"
      },
      "t_uint256": {
        "encoding": "inplace",
        "label": "uint256",
        "numberOfBytes": "32"
      }
    }
  }
}