{
  "address": "0x49277299920B077E20ced0287Ee1c8775e49Db1e",
  "abi": [
    {
      "inputs": [
        {
          "internalType": "address",
          "name": "_euroStablecoin",
          "type": "address"
        }
      ],
      "stateMutability": "nonpayable",
      "type": "constructor"
    },
    {
      "inputs": [],
      "name": "AccessControlBadConfirmation",
      "type": "error"
    },
    {
      "inputs": [
        {
          "internalType": "address",
          "name": "account",
          "type": "address"
        },
        {
          "internalType": "bytes32",
          "name": "neededRole",
          "type": "bytes32"
        }
      ],
      "name": "AccessControlUnauthorizedAccount",
      "type": "error"
    },
    {
      "anonymous": false,
      "inputs": [
        {
          "indexed": true,
          "internalType": "address",
          "name": "operator",
          "type": "address"
        },
        {
          "indexed": false,
          "internalType": "uint256",
          "name": "amount",
          "type": "uint256"
        }
      ],
      "name": "PaymentMade",
      "type": "event"
    },
    {
      "anonymous": false,
      "inputs": [
        {
          "indexed": true,
          "internalType": "bytes32",
          "name": "role",
          "type": "bytes32"
        },
        {
          "indexed": true,
          "internalType": "bytes32",
          "name": "previousAdminRole",
          "type": "bytes32"
        },
        {
          "indexed": true,
          "internalType": "bytes32",
          "name": "newAdminRole",
          "type": "bytes32"
        }
      ],
      "name": "RoleAdminChanged",
      "type": "event"
    },
    {
      "anonymous": false,
      "inputs": [
        {
          "indexed": true,
          "internalType": "bytes32",
          "name": "role",
          "type": "bytes32"
        },
        {
          "indexed": true,
          "internalType": "address",
          "name": "account",
          "type": "address"
        },
        {
          "indexed": true,
          "internalType": "address",
          "name": "sender",
          "type": "address"
        }
      ],
      "name": "RoleGranted",
      "type": "event"
    },
    {
      "anonymous": false,
      "inputs": [
        {
          "indexed": true,
          "internalType": "bytes32",
          "name": "role",
          "type": "bytes32"
        },
        {
          "indexed": true,
          "internalType": "address",
          "name": "account",
          "type": "address"
        },
        {
          "indexed": true,
          "internalType": "address",
          "name": "sender",
          "type": "address"
        }
      ],
      "name": "RoleRevoked",
      "type": "event"
    },
    {
      "anonymous": false,
      "inputs": [
        {
          "indexed": true,
          "internalType": "address",
          "name": "party",
          "type": "address"
        },
        {
          "indexed": false,
          "internalType": "uint256",
          "name": "amount",
          "type": "uint256"
        }
      ],
      "name": "Withdrawal",
      "type": "event"
    },
    {
      "inputs": [],
      "name": "DEFAULT_ADMIN_ROLE",
      "outputs": [
        {
          "internalType": "bytes32",
          "name": "",
          "type": "bytes32"
        }
      ],
      "stateMutability": "view",
      "type": "function"
    },
    {
      "inputs": [],
      "name": "euroStablecoin",
      "outputs": [
        {
          "internalType": "contract IERC20",
          "name": "",
          "type": "address"
        }
      ],
      "stateMutability": "view",
      "type": "function"
    },
    {
      "inputs": [],
      "name": "fundingYearlyAmount",
      "outputs": [
        {
          "internalType": "uint256",
          "name": "",
          "type": "uint256"
        }
      ],
      "stateMutability": "view",
      "type": "function"
    },
    {
      "inputs": [],
      "name": "getFundingYearlyAmount",
      "outputs": [
        {
          "internalType": "uint256",
          "name": "",
          "type": "uint256"
        }
      ],
      "stateMutability": "view",
      "type": "function"
    },
    {
      "inputs": [
        {
          "internalType": "address",
          "name": "operator",
          "type": "address"
        }
      ],
      "name": "getPaymentStatus",
      "outputs": [
        {
          "internalType": "enum IOcnPaymentManager.PaymentStatus",
          "name": "",
          "type": "uint8"
        }
      ],
      "stateMutability": "view",
      "type": "function"
    },
    {
      "inputs": [
        {
          "internalType": "bytes32",
          "name": "role",
          "type": "bytes32"
        }
      ],
      "name": "getRoleAdmin",
      "outputs": [
        {
          "internalType": "bytes32",
          "name": "",
          "type": "bytes32"
        }
      ],
      "stateMutability": "view",
      "type": "function"
    },
    {
      "inputs": [
        {
          "internalType": "bytes32",
          "name": "role",
          "type": "bytes32"
        },
        {
          "internalType": "address",
          "name": "account",
          "type": "address"
        }
      ],
      "name": "grantRole",
      "outputs": [],
      "stateMutability": "nonpayable",
      "type": "function"
    },
    {
      "inputs": [
        {
          "internalType": "bytes32",
          "name": "role",
          "type": "bytes32"
        },
        {
          "internalType": "address",
          "name": "account",
          "type": "address"
        }
      ],
      "name": "hasRole",
      "outputs": [
        {
          "internalType": "bool",
          "name": "",
          "type": "bool"
        }
      ],
      "stateMutability": "view",
      "type": "function"
    },
    {
      "inputs": [
        {
          "internalType": "address",
          "name": "",
          "type": "address"
        }
      ],
      "name": "lastPaymentTime",
      "outputs": [
        {
          "internalType": "uint256",
          "name": "",
          "type": "uint256"
        }
      ],
      "stateMutability": "view",
      "type": "function"
    },
    {
      "inputs": [],
      "name": "pay",
      "outputs": [],
      "stateMutability": "nonpayable",
      "type": "function"
    },
    {
      "inputs": [
        {
          "internalType": "bytes32",
          "name": "role",
          "type": "bytes32"
        },
        {
          "internalType": "address",
          "name": "callerConfirmation",
          "type": "address"
        }
      ],
      "name": "renounceRole",
      "outputs": [],
      "stateMutability": "nonpayable",
      "type": "function"
    },
    {
      "inputs": [
        {
          "internalType": "bytes32",
          "name": "role",
          "type": "bytes32"
        },
        {
          "internalType": "address",
          "name": "account",
          "type": "address"
        }
      ],
      "name": "revokeRole",
      "outputs": [],
      "stateMutability": "nonpayable",
      "type": "function"
    },
    {
      "inputs": [
        {
          "internalType": "uint256",
          "name": "_fundingYearlyAmount",
          "type": "uint256"
        }
      ],
      "name": "setFundingYearlyAmount",
      "outputs": [],
      "stateMutability": "nonpayable",
      "type": "function"
    },
    {
      "inputs": [
        {
          "internalType": "address",
          "name": "",
          "type": "address"
        }
      ],
      "name": "stakedFunds",
      "outputs": [
        {
          "internalType": "uint256",
          "name": "",
          "type": "uint256"
        }
      ],
      "stateMutability": "view",
      "type": "function"
    },
    {
      "inputs": [
        {
          "internalType": "bytes4",
          "name": "interfaceId",
          "type": "bytes4"
        }
      ],
      "name": "supportsInterface",
      "outputs": [
        {
          "internalType": "bool",
          "name": "",
          "type": "bool"
        }
      ],
      "stateMutability": "view",
      "type": "function"
    },
    {
      "inputs": [
        {
          "internalType": "address",
          "name": "newOwner",
          "type": "address"
        }
      ],
      "name": "transferOwnership",
      "outputs": [],
      "stateMutability": "nonpayable",
      "type": "function"
    },
    {
      "inputs": [],
      "name": "withdraw",
      "outputs": [],
      "stateMutability": "nonpayable",
      "type": "function"
    }
  ],
  "transactionHash": "0x6d6a84d24e4c166105ceea4b5c2c753a50dc9d4090e7dc6a380dddb4f3239020",
  "args": [
    "0xa30e68C44E86D624d5dD46d4B30a8E6D4e4C26e7"
  ],
  "numDeployments": 1,
  "solcInputHash": "7567e9fdc990be83af9fc90e7c37cc5d",
  "bytecode": "0x608060405234801561001057600080fd5b50604051610c95380380610c9583398101604081905261002f91610115565b600280546001600160a01b0319166001600160a01b0383161790556801a055690d9db80000600155610062600033610069565b5050610145565b6000828152602081815260408083206001600160a01b038516845290915281205460ff1661010b576000838152602081815260408083206001600160a01b03861684529091529020805460ff191660011790556100c33390565b6001600160a01b0316826001600160a01b0316847f2f8788117e7eff1d82e926ec794901d17c78024a50270940304540a733656f0d60405160405180910390a450600161010f565b5060005b92915050565b60006020828403121561012757600080fd5b81516001600160a01b038116811461013e57600080fd5b9392505050565b610b41806101546000396000f3fe608060405234801561001057600080fd5b506004361061010b5760003560e01c8063697532b2116100a2578063bc7b286d11610071578063bc7b286d14610218578063c081665814610238578063d547741f14610240578063f2fde38b14610253578063fc5f72fc1461026657600080fd5b8063697532b2146101bd578063888b2284146101dd57806391d14854146101fd578063a217fddf1461021057600080fd5b8063248a9ca3116100de578063248a9ca31461016c5780632f2ff15d1461018f57806336568abe146101a25780633ccfd60b146101b557600080fd5b806301ffc9a7146101105780631459616f146101385780631b9265b81461014f5780631f81b2c014610159575b600080fd5b61012361011e36600461098b565b610291565b60405190151581526020015b60405180910390f35b61014160015481565b60405190815260200161012f565b6101576102c8565b005b6101576101673660046109bc565b6104cf565b61014161017a3660046109bc565b60009081526020819052604090206001015490565b61015761019d3660046109ec565b6104e7565b6101576101b03660046109ec565b610512565b61015761054a565b6101416101cb366004610a18565b60046020526000908152604090205481565b6101f06101eb366004610a18565b61075a565b60405161012f9190610a33565b61012361020b3660046109ec565b6107b8565b610141600081565b610141610226366004610a18565b60036020526000908152604090205481565b6101416107e1565b61015761024e3660046109ec565b6107fe565b610157610261366004610a18565b610823565b600254610279906001600160a01b031681565b6040516001600160a01b03909116815260200161012f565b60006001600160e01b03198216637965db0b60e01b14806102c257506301ffc9a760e01b6001600160e01b03198316145b92915050565b600254604051636eb1769f60e11b81523360048201523060248201526000916001600160a01b03169063dd62ed3e90604401602060405180830381865afa158015610317573d6000803e3d6000fd5b505050506040513d601f19601f8201168201806040525081019061033b9190610a5b565b905060015481101561039f5760405162461bcd60e51b815260206004820152602260248201527f496e73756666696369656e7420616c6c6f77616e636520666f72207061796d656044820152611b9d60f21b60648201526084015b60405180910390fd5b6002546001546040516323b872dd60e01b815233600482015230602482015260448101919091526001600160a01b03909116906323b872dd906064016020604051808303816000875af11580156103fa573d6000803e3d6000fd5b505050506040513d601f19601f8201168201806040525081019061041e9190610a74565b61045c5760405162461bcd60e51b815260206004820152600f60248201526e151c985b9cd9995c8819985a5b1959608a1b6044820152606401610396565b600154336000908152600360205260408120805490919061047e908490610aac565b90915550503360008181526004602090815260409182902042905560015491519182527f3a2d0e41c506b136330c6e5e0295ccbf0966daece99bfe7c89020cc01dbfb8d6910160405180910390a250565b6104e181670de0b6b3a7640000610abf565b60015550565b60008281526020819052604090206001015461050281610848565b61050c8383610855565b50505050565b6001600160a01b038116331461053b5760405163334bd91960e11b815260040160405180910390fd5b61054582826108e7565b505050565b336000908152600360205260409020546105985760405162461bcd60e51b815260206004820152600f60248201526e139bc8199d5b991cc81cdd185ad959608a1b6044820152606401610396565b336000908152600460205260408120546105b29042610ad6565b905060006301e13380826001546105c99190610abf565b6105d39190610ae9565b9050600081116106255760405162461bcd60e51b815260206004820152601a60248201527f5769746864726177616c206e6f7420616c6c6f776564207965740000000000006044820152606401610396565b60025460405163a9059cbb60e01b8152336004820152602481018390526001600160a01b039091169063a9059cbb906044016020604051808303816000875af1158015610676573d6000803e3d6000fd5b505050506040513d601f19601f8201168201806040525081019061069a9190610a74565b6106e65760405162461bcd60e51b815260206004820152601a60248201527f5769746864726177616c207472616e73666572206661696c65640000000000006044820152606401610396565b3360009081526003602052604081208054839290610705908490610ad6565b90915550503360008181526004602052604090819020429055517f7fcf532c15f0a6db0bd6d0e038bea71d30d808c7d98cb3bf7268a95bf5081b659061074e9084815260200190565b60405180910390a25050565b6001546001600160a01b03821660009081526003602052604081205490911161078557506001919050565b6001600160a01b038216600090815260036020526040902054156107ab57506002919050565b506000919050565b919050565b6000918252602082815260408084206001600160a01b0393909316845291905290205460ff1690565b6000670de0b6b3a76400006001546107f99190610ae9565b905090565b60008281526020819052604090206001015461081981610848565b61050c83836108e7565b600061082e81610848565b6108396000836104e7565b6108446000336107fe565b5050565b6108528133610952565b50565b600061086183836107b8565b6108df576000838152602081815260408083206001600160a01b03861684529091529020805460ff191660011790556108973390565b6001600160a01b0316826001600160a01b0316847f2f8788117e7eff1d82e926ec794901d17c78024a50270940304540a733656f0d60405160405180910390a45060016102c2565b5060006102c2565b60006108f383836107b8565b156108df576000838152602081815260408083206001600160a01b0386168085529252808320805460ff1916905551339286917ff6391f5c32d9c69d2a47ea670b442974b53935d1edc7fd64eb21e047a839171b9190a45060016102c2565b61095c82826107b8565b6108445760405163e2517d3f60e01b81526001600160a01b038216600482015260248101839052604401610396565b60006020828403121561099d57600080fd5b81356001600160e01b0319811681146109b557600080fd5b9392505050565b6000602082840312156109ce57600080fd5b5035919050565b80356001600160a01b03811681146107b357600080fd5b600080604083850312156109ff57600080fd5b82359150610a0f602084016109d5565b90509250929050565b600060208284031215610a2a57600080fd5b6109b5826109d5565b6020810160048310610a5557634e487b7160e01b600052602160045260246000fd5b91905290565b600060208284031215610a6d57600080fd5b5051919050565b600060208284031215610a8657600080fd5b815180151581146109b557600080fd5b634e487b7160e01b600052601160045260246000fd5b808201808211156102c2576102c2610a96565b80820281158282048414176102c2576102c2610a96565b818103818111156102c2576102c2610a96565b600082610b0657634e487b7160e01b600052601260045260246000fd5b50049056fea26469706673582212202a773a3554e54cb4d14ce6b3cd860b424c8ec04026aae94116778c411c46eb3a64736f6c63430008140033",
  "devdoc": {
    "errors": {
      "AccessControlBadConfirmation()": [
        {
          "details": "The caller of a function is not the expected one. NOTE: Don't confuse with {AccessControlUnauthorizedAccount}."
        }
      ],
      "AccessControlUnauthorizedAccount(address,bytes32)": [
        {
          "details": "The `account` is missing a role."
        }
      ]
    },
    "events": {
      "RoleAdminChanged(bytes32,bytes32,bytes32)": {
        "details": "Emitted when `newAdminRole` is set as ``role``'s admin role, replacing `previousAdminRole` `DEFAULT_ADMIN_ROLE` is the starting admin for all roles, despite {RoleAdminChanged} not being emitted signaling this."
      },
      "RoleGranted(bytes32,address,address)": {
        "details": "Emitted when `account` is granted `role`. `sender` is the account that originated the contract call, an admin role bearer except when using {AccessControl-_setupRole}."
      },
      "RoleRevoked(bytes32,address,address)": {
        "details": "Emitted when `account` is revoked `role`. `sender` is the account that originated the contract call:   - if using `revokeRole`, it is the admin role bearer   - if using `renounceRole`, it is the role bearer (i.e. `account`)"
      }
    },
    "kind": "dev",
    "methods": {
      "constructor": {
        "custom:oz-upgrades-unsafe-allow": "constructor"
      },
      "getRoleAdmin(bytes32)": {
        "details": "Returns the admin role that controls `role`. See {grantRole} and {revokeRole}. To change a role's admin, use {_setRoleAdmin}."
      },
      "grantRole(bytes32,address)": {
        "details": "Grants `role` to `account`. If `account` had not been already granted `role`, emits a {RoleGranted} event. Requirements: - the caller must have ``role``'s admin role. May emit a {RoleGranted} event."
      },
      "hasRole(bytes32,address)": {
        "details": "Returns `true` if `account` has been granted `role`."
      },
      "renounceRole(bytes32,address)": {
        "details": "Revokes `role` from the calling account. Roles are often managed via {grantRole} and {revokeRole}: this function's purpose is to provide a mechanism for accounts to lose their privileges if they are compromised (such as when a trusted device is misplaced). If the calling account had been revoked `role`, emits a {RoleRevoked} event. Requirements: - the caller must be `callerConfirmation`. May emit a {RoleRevoked} event."
      },
      "revokeRole(bytes32,address)": {
        "details": "Revokes `role` from `account`. If `account` had been granted `role`, emits a {RoleRevoked} event. Requirements: - the caller must have ``role``'s admin role. May emit a {RoleRevoked} event."
      },
      "supportsInterface(bytes4)": {
        "details": "See {IERC165-supportsInterface}."
      }
    },
    "version": 1
  },
  "userdoc": {
    "kind": "user",
    "methods": {
      "getPaymentStatus(address)": {
        "notice": "Returns the payment status of a given operator."
      },
      "pay()": {
        "notice": "Allows an operator to make a payment."
      },
      "withdraw()": {
        "notice": "Allows an operator to withdraw their staked funds gradually."
      }
    },
    "version": 1
  },
  "storageLayout": {
    "storage": [
      {
        "astId": 26,
        "contract": "contracts/OcnPaymentManager.sol:OcnPaymentManager",
        "label": "_roles",
        "offset": 0,
        "slot": "0",
        "type": "t_mapping(t_bytes32,t_struct(RoleData)21_storage)"
      },
      {
        "astId": 591,
        "contract": "contracts/OcnPaymentManager.sol:OcnPaymentManager",
        "label": "fundingYearlyAmount",
        "offset": 0,
        "slot": "1",
        "type": "t_uint256"
      },
      {
        "astId": 594,
        "contract": "contracts/OcnPaymentManager.sol:OcnPaymentManager",
        "label": "euroStablecoin",
        "offset": 0,
        "slot": "2",
        "type": "t_contract(IERC20)456"
      },
      {
        "astId": 598,
        "contract": "contracts/OcnPaymentManager.sol:OcnPaymentManager",
        "label": "stakedFunds",
        "offset": 0,
        "slot": "3",
        "type": "t_mapping(t_address,t_uint256)"
      },
      {
        "astId": 602,
        "contract": "contracts/OcnPaymentManager.sol:OcnPaymentManager",
        "label": "lastPaymentTime",
        "offset": 0,
        "slot": "4",
        "type": "t_mapping(t_address,t_uint256)"
      }
    ],
    "types": {
      "t_address": {
        "encoding": "inplace",
        "label": "address",
        "numberOfBytes": "20"
      },
      "t_bool": {
        "encoding": "inplace",
        "label": "bool",
        "numberOfBytes": "1"
      },
      "t_bytes32": {
        "encoding": "inplace",
        "label": "bytes32",
        "numberOfBytes": "32"
      },
      "t_contract(IERC20)456": {
        "encoding": "inplace",
        "label": "contract IERC20",
        "numberOfBytes": "20"
      },
      "t_mapping(t_address,t_bool)": {
        "encoding": "mapping",
        "key": "t_address",
        "label": "mapping(address => bool)",
        "numberOfBytes": "32",
        "value": "t_bool"
      },
      "t_mapping(t_address,t_uint256)": {
        "encoding": "mapping",
        "key": "t_address",
        "label": "mapping(address => uint256)",
        "numberOfBytes": "32",
        "value": "t_uint256"
      },
      "t_mapping(t_bytes32,t_struct(RoleData)21_storage)": {
        "encoding": "mapping",
        "key": "t_bytes32",
        "label": "mapping(bytes32 => struct AccessControl.RoleData)",
        "numberOfBytes": "32",
        "value": "t_struct(RoleData)21_storage"
      },
      "t_struct(RoleData)21_storage": {
        "encoding": "inplace",
        "label": "struct AccessControl.RoleData",
        "members": [
          {
            "astId": 18,
            "contract": "contracts/OcnPaymentManager.sol:OcnPaymentManager",
            "label": "hasRole",
            "offset": 0,
            "slot": "0",
            "type": "t_mapping(t_address,t_bool)"
          },
          {
            "astId": 20,
            "contract": "contracts/OcnPaymentManager.sol:OcnPaymentManager",
            "label": "adminRole",
            "offset": 0,
            "slot": "1",
            "type": "t_bytes32"
          }
        ],
        "numberOfBytes": "64"
      },
      "t_uint256": {
        "encoding": "inplace",
        "label": "uint256",
        "numberOfBytes": "32"
      }
    }
  }
}