{
  "address": "0x8859aDdef2d86aE6c0d0Dd73a60cD099E770c8d6",
  "abi": [
    {
      "inputs": [
        {
          "internalType": "address",
          "name": "_paymentManager",
          "type": "address"
        }
      ],
      "stateMutability": "nonpayable",
      "type": "constructor"
    },
    {
      "inputs": [],
      "name": "AccessControlBadConfirmation",
      "type": "error"
    },
    {
      "inputs": [
        {
          "internalType": "address",
          "name": "account",
          "type": "address"
        },
        {
          "internalType": "bytes32",
          "name": "neededRole",
          "type": "bytes32"
        }
      ],
      "name": "AccessControlUnauthorizedAccount",
      "type": "error"
    },
    {
      "anonymous": false,
      "inputs": [
        {
          "indexed": true,
          "internalType": "address",
          "name": "operator",
          "type": "address"
        },
        {
          "indexed": false,
          "internalType": "string",
          "name": "domain",
          "type": "string"
        }
      ],
      "name": "OperatorUpdate",
      "type": "event"
    },
    {
      "anonymous": false,
      "inputs": [
        {
          "indexed": false,
          "internalType": "bytes2",
          "name": "countryCode",
          "type": "bytes2"
        },
        {
          "indexed": false,
          "internalType": "bytes3",
          "name": "partyId",
          "type": "bytes3"
        },
        {
          "indexed": true,
          "internalType": "address",
          "name": "partyAddress",
          "type": "address"
        },
        {
          "indexed": false,
          "internalType": "enum OcnRegistry.Role[]",
          "name": "roles",
          "type": "uint8[]"
        },
        {
          "indexed": true,
          "internalType": "address",
          "name": "operatorAddress",
          "type": "address"
        }
      ],
      "name": "PartyUpdate",
      "type": "event"
    },
    {
      "anonymous": false,
      "inputs": [
        {
          "indexed": true,
          "internalType": "bytes32",
          "name": "role",
          "type": "bytes32"
        },
        {
          "indexed": true,
          "internalType": "bytes32",
          "name": "previousAdminRole",
          "type": "bytes32"
        },
        {
          "indexed": true,
          "internalType": "bytes32",
          "name": "newAdminRole",
          "type": "bytes32"
        }
      ],
      "name": "RoleAdminChanged",
      "type": "event"
    },
    {
      "anonymous": false,
      "inputs": [
        {
          "indexed": true,
          "internalType": "bytes32",
          "name": "role",
          "type": "bytes32"
        },
        {
          "indexed": true,
          "internalType": "address",
          "name": "account",
          "type": "address"
        },
        {
          "indexed": true,
          "internalType": "address",
          "name": "sender",
          "type": "address"
        }
      ],
      "name": "RoleGranted",
      "type": "event"
    },
    {
      "anonymous": false,
      "inputs": [
        {
          "indexed": true,
          "internalType": "bytes32",
          "name": "role",
          "type": "bytes32"
        },
        {
          "indexed": true,
          "internalType": "address",
          "name": "account",
          "type": "address"
        },
        {
          "indexed": true,
          "internalType": "address",
          "name": "sender",
          "type": "address"
        }
      ],
      "name": "RoleRevoked",
      "type": "event"
    },
    {
      "inputs": [],
      "name": "DEFAULT_ADMIN_ROLE",
      "outputs": [
        {
          "internalType": "bytes32",
          "name": "",
          "type": "bytes32"
        }
      ],
      "stateMutability": "view",
      "type": "function"
    },
    {
      "inputs": [
        {
          "internalType": "address",
          "name": "operator",
          "type": "address"
        }
      ],
      "name": "adminDeleteOperator",
      "outputs": [],
      "stateMutability": "nonpayable",
      "type": "function"
    },
    {
      "inputs": [
        {
          "internalType": "bytes2",
          "name": "countryCode",
          "type": "bytes2"
        },
        {
          "internalType": "bytes3",
          "name": "partyId",
          "type": "bytes3"
        }
      ],
      "name": "adminDeleteParty",
      "outputs": [],
      "stateMutability": "nonpayable",
      "type": "function"
    },
    {
      "inputs": [],
      "name": "deleteNode",
      "outputs": [],
      "stateMutability": "nonpayable",
      "type": "function"
    },
    {
      "inputs": [
        {
          "internalType": "address",
          "name": "operator",
          "type": "address"
        },
        {
          "internalType": "uint8",
          "name": "v",
          "type": "uint8"
        },
        {
          "internalType": "bytes32",
          "name": "r",
          "type": "bytes32"
        },
        {
          "internalType": "bytes32",
          "name": "s",
          "type": "bytes32"
        }
      ],
      "name": "deleteNodeRaw",
      "outputs": [],
      "stateMutability": "nonpayable",
      "type": "function"
    },
    {
      "inputs": [],
      "name": "deleteParty",
      "outputs": [],
      "stateMutability": "nonpayable",
      "type": "function"
    },
    {
      "inputs": [
        {
          "internalType": "address",
          "name": "party",
          "type": "address"
        },
        {
          "internalType": "uint8",
          "name": "v",
          "type": "uint8"
        },
        {
          "internalType": "bytes32",
          "name": "r",
          "type": "bytes32"
        },
        {
          "internalType": "bytes32",
          "name": "s",
          "type": "bytes32"
        }
      ],
      "name": "deletePartyRaw",
      "outputs": [],
      "stateMutability": "nonpayable",
      "type": "function"
    },
    {
      "inputs": [
        {
          "internalType": "address",
          "name": "operator",
          "type": "address"
        }
      ],
      "name": "getNode",
      "outputs": [
        {
          "internalType": "string",
          "name": "",
          "type": "string"
        }
      ],
      "stateMutability": "view",
      "type": "function"
    },
    {
      "inputs": [],
      "name": "getNodeOperators",
      "outputs": [
        {
          "internalType": "address[]",
          "name": "",
          "type": "address[]"
        }
      ],
      "stateMutability": "view",
      "type": "function"
    },
    {
      "inputs": [
        {
          "internalType": "address",
          "name": "party",
          "type": "address"
        }
      ],
      "name": "getOperatorByAddress",
      "outputs": [
        {
          "internalType": "address",
          "name": "operator",
          "type": "address"
        },
        {
          "internalType": "string",
          "name": "domain",
          "type": "string"
        }
      ],
      "stateMutability": "view",
      "type": "function"
    },
    {
      "inputs": [
        {
          "internalType": "bytes2",
          "name": "countryCode",
          "type": "bytes2"
        },
        {
          "internalType": "bytes3",
          "name": "partyId",
          "type": "bytes3"
        }
      ],
      "name": "getOperatorByOcpi",
      "outputs": [
        {
          "internalType": "address",
          "name": "operator",
          "type": "address"
        },
        {
          "internalType": "string",
          "name": "domain",
          "type": "string"
        }
      ],
      "stateMutability": "view",
      "type": "function"
    },
    {
      "inputs": [],
      "name": "getParties",
      "outputs": [
        {
          "internalType": "address[]",
          "name": "",
          "type": "address[]"
        }
      ],
      "stateMutability": "view",
      "type": "function"
    },
    {
      "inputs": [
        {
          "internalType": "address",
          "name": "partyAddress",
          "type": "address"
        }
      ],
      "name": "getPartyDetailsByAddress",
      "outputs": [
        {
          "internalType": "bytes2",
          "name": "countryCode",
          "type": "bytes2"
        },
        {
          "internalType": "bytes3",
          "name": "partyId",
          "type": "bytes3"
        },
        {
          "internalType": "enum OcnRegistry.Role[]",
          "name": "roles",
          "type": "uint8[]"
        },
        {
          "internalType": "address",
          "name": "operatorAddress",
          "type": "address"
        },
        {
          "internalType": "string",
          "name": "operatorDomain",
          "type": "string"
        }
      ],
      "stateMutability": "view",
      "type": "function"
    },
    {
      "inputs": [
        {
          "internalType": "bytes2",
          "name": "countryCode",
          "type": "bytes2"
        },
        {
          "internalType": "bytes3",
          "name": "partyId",
          "type": "bytes3"
        }
      ],
      "name": "getPartyDetailsByOcpi",
      "outputs": [
        {
          "internalType": "address",
          "name": "partyAddress",
          "type": "address"
        },
        {
          "internalType": "enum OcnRegistry.Role[]",
          "name": "roles",
          "type": "uint8[]"
        },
        {
          "internalType": "address",
          "name": "operatorAddress",
          "type": "address"
        },
        {
          "internalType": "string",
          "name": "operatorDomain",
          "type": "string"
        }
      ],
      "stateMutability": "view",
      "type": "function"
    },
    {
      "inputs": [
        {
          "internalType": "bytes32",
          "name": "role",
          "type": "bytes32"
        }
      ],
      "name": "getRoleAdmin",
      "outputs": [
        {
          "internalType": "bytes32",
          "name": "",
          "type": "bytes32"
        }
      ],
      "stateMutability": "view",
      "type": "function"
    },
    {
      "inputs": [
        {
          "internalType": "bytes32",
          "name": "role",
          "type": "bytes32"
        },
        {
          "internalType": "address",
          "name": "account",
          "type": "address"
        }
      ],
      "name": "grantRole",
      "outputs": [],
      "stateMutability": "nonpayable",
      "type": "function"
    },
    {
      "inputs": [
        {
          "internalType": "bytes32",
          "name": "role",
          "type": "bytes32"
        },
        {
          "internalType": "address",
          "name": "account",
          "type": "address"
        }
      ],
      "name": "hasRole",
      "outputs": [
        {
          "internalType": "bool",
          "name": "",
          "type": "bool"
        }
      ],
      "stateMutability": "view",
      "type": "function"
    },
    {
      "inputs": [],
      "name": "paymentManager",
      "outputs": [
        {
          "internalType": "contract IOcnPaymentManager",
          "name": "",
          "type": "address"
        }
      ],
      "stateMutability": "view",
      "type": "function"
    },
    {
      "inputs": [
        {
          "internalType": "bytes32",
          "name": "role",
          "type": "bytes32"
        },
        {
          "internalType": "address",
          "name": "callerConfirmation",
          "type": "address"
        }
      ],
      "name": "renounceRole",
      "outputs": [],
      "stateMutability": "nonpayable",
      "type": "function"
    },
    {
      "inputs": [
        {
          "internalType": "bytes32",
          "name": "role",
          "type": "bytes32"
        },
        {
          "internalType": "address",
          "name": "account",
          "type": "address"
        }
      ],
      "name": "revokeRole",
      "outputs": [],
      "stateMutability": "nonpayable",
      "type": "function"
    },
    {
      "inputs": [
        {
          "internalType": "string",
          "name": "domain",
          "type": "string"
        }
      ],
      "name": "setNode",
      "outputs": [],
      "stateMutability": "nonpayable",
      "type": "function"
    },
    {
      "inputs": [
        {
          "internalType": "address",
          "name": "operator",
          "type": "address"
        },
        {
          "internalType": "string",
          "name": "domain",
          "type": "string"
        },
        {
          "internalType": "uint8",
          "name": "v",
          "type": "uint8"
        },
        {
          "internalType": "bytes32",
          "name": "r",
          "type": "bytes32"
        },
        {
          "internalType": "bytes32",
          "name": "s",
          "type": "bytes32"
        }
      ],
      "name": "setNodeRaw",
      "outputs": [],
      "stateMutability": "nonpayable",
      "type": "function"
    },
    {
      "inputs": [
        {
          "internalType": "bytes2",
          "name": "countryCode",
          "type": "bytes2"
        },
        {
          "internalType": "bytes3",
          "name": "partyId",
          "type": "bytes3"
        },
        {
          "internalType": "enum OcnRegistry.Role[]",
          "name": "roles",
          "type": "uint8[]"
        },
        {
          "internalType": "address",
          "name": "operator",
          "type": "address"
        },
        {
          "internalType": "string",
          "name": "name",
          "type": "string"
        },
        {
          "internalType": "string",
          "name": "url",
          "type": "string"
        }
      ],
      "name": "setParty",
      "outputs": [],
      "stateMutability": "nonpayable",
      "type": "function"
    },
    {
      "inputs": [
        {
          "internalType": "address",
          "name": "party",
          "type": "address"
        },
        {
          "internalType": "bytes2",
          "name": "countryCode",
          "type": "bytes2"
        },
        {
          "internalType": "bytes3",
          "name": "partyId",
          "type": "bytes3"
        },
        {
          "internalType": "enum OcnRegistry.Role[]",
          "name": "roles",
          "type": "uint8[]"
        },
        {
          "internalType": "address",
          "name": "operator",
          "type": "address"
        },
        {
          "internalType": "string",
          "name": "name",
          "type": "string"
        },
        {
          "internalType": "string",
          "name": "url",
          "type": "string"
        },
        {
          "internalType": "uint8",
          "name": "v",
          "type": "uint8"
        },
        {
          "internalType": "bytes32",
          "name": "r",
          "type": "bytes32"
        },
        {
          "internalType": "bytes32",
          "name": "s",
          "type": "bytes32"
        }
      ],
      "name": "setPartyRaw",
      "outputs": [],
      "stateMutability": "nonpayable",
      "type": "function"
    },
    {
      "inputs": [
        {
          "internalType": "bytes4",
          "name": "interfaceId",
          "type": "bytes4"
        }
      ],
      "name": "supportsInterface",
      "outputs": [
        {
          "internalType": "bool",
          "name": "",
          "type": "bool"
        }
      ],
      "stateMutability": "view",
      "type": "function"
    },
    {
      "inputs": [
        {
          "internalType": "address",
          "name": "newOwner",
          "type": "address"
        }
      ],
      "name": "transferOwnership",
      "outputs": [],
      "stateMutability": "nonpayable",
      "type": "function"
    },
    {
      "inputs": [
        {
          "internalType": "address",
          "name": "party",
          "type": "address"
        }
      ],
      "name": "updatePaymentStatus",
      "outputs": [],
      "stateMutability": "nonpayable",
      "type": "function"
    }
  ],
  "transactionHash": "0x7d1014eafa8c4e5747ab1c867dc9c3b6813efd945eec914c86cc93cff2f4873e",
  "args": [
    "0x49277299920B077E20ced0287Ee1c8775e49Db1e"
  ],
  "numDeployments": 1,
  "solcInputHash": "33e1e0c64ad6312ee0f2affbec3ec2b2",
  "bytecode": "0x60806040523480156200001157600080fd5b50604051620031e9380380620031e9833981016040819052620000349162000157565b60408051808201909152601c81527f19457468657265756d205369676e6564204d6573736167653a0a33320000000060208201526001906200007790826200022e565b50600b80546001600160a01b0319166001600160a01b038316179055620000a0600033620000a8565b5050620002fa565b6000828152602081815260408083206001600160a01b038516845290915281205460ff166200014d576000838152602081815260408083206001600160a01b03861684529091529020805460ff19166001179055620001043390565b6001600160a01b0316826001600160a01b0316847f2f8788117e7eff1d82e926ec794901d17c78024a50270940304540a733656f0d60405160405180910390a450600162000151565b5060005b92915050565b6000602082840312156200016a57600080fd5b81516001600160a01b03811681146200018257600080fd5b9392505050565b634e487b7160e01b600052604160045260246000fd5b600181811c90821680620001b457607f821691505b602082108103620001d557634e487b7160e01b600052602260045260246000fd5b50919050565b601f8211156200022957600081815260208120601f850160051c81016020861015620002045750805b601f850160051c820191505b81811015620002255782815560010162000210565b5050505b505050565b81516001600160401b038111156200024a576200024a62000189565b62000262816200025b84546200019f565b84620001db565b602080601f8311600181146200029a5760008415620002815750858301515b600019600386901b1c1916600185901b17855562000225565b600085815260208120601f198616915b82811015620002cb57888601518255948401946001909101908401620002aa565b5085821015620002ea5787850151600019600388901b60f8161c191681555b5050505050600190811b01905550565b612edf806200030a6000396000f3fe608060405234801561001057600080fd5b50600436106101a95760003560e01c806391d14854116100f9578063aee1fe4911610097578063d547741f11610071578063d547741f146103b1578063d63a84d4146103c4578063df516128146103d7578063f2fde38b146103fb57600080fd5b8063aee1fe491461036b578063bdb8107814610396578063c6a1b9961461039e57600080fd5b8063a217fddf116100d3578063a217fddf14610330578063a5b5ffbb14610338578063a8311aa81461035b578063acaef0e01461036357600080fd5b806391d14854146102ea57806399bd6901146102fd5780639d2090481461031057600080fd5b806366acaa33116101665780637a091aa5116101405780637a091aa51461029057806385cb8602146102b157806388857204146102c457806388cf72a0146102d757600080fd5b806366acaa331461025557806366e706fb1461026a5780636c265bbc1461027d57600080fd5b806301ffc9a7146101ae578063248a9ca3146101d65780632d8fe452146102075780632f2ff15d1461021c57806336568abe1461022f5780635140b71c14610242575b600080fd5b6101c16101bc36600461248f565b61040e565b60405190151581526020015b60405180910390f35b6101f96101e43660046124c0565b60009081526020819052604090206001015490565b6040519081526020016101cd565b61021a6102153660046124f5565b610445565b005b61021a61022a366004612510565b61045d565b61021a61023d366004612510565b610488565b61021a6102503660046126c2565b6104c0565b61025d6105cb565b6040516101cd91906127b3565b61021a610278366004612800565b61062d565b61021a61028b366004612800565b61072a565b6102a361029e366004612842565b6107ee565b6040516101cd9291906128bc565b61021a6102bf3660046128e8565b6108db565b61021a6102d23660046124f5565b6108e8565b6102a36102e53660046124f5565b610a1a565b6101c16102f8366004612510565b610ad9565b61021a61030b36600461291d565b610b02565b61032361031e3660046124f5565b610bc3565b6040516101cd919061298d565b6101f9600081565b61034b610346366004612842565b610c6f565b6040516101cd9493929190612a1a565b61025d610fdc565b61021a61103c565b600b5461037e906001600160a01b031681565b6040516001600160a01b0390911681526020016101cd565b61021a611047565b61021a6103ac366004612a62565b611050565b61021a6103bf366004612510565b61105f565b61021a6103d2366004612842565b611084565b6103ea6103e53660046124f5565b6110d0565b6040516101cd959493929190612b1b565b61021a6104093660046124f5565b61142d565b60006001600160e01b03198216637965db0b60e01b148061043f57506301ffc9a760e01b6001600160e01b03198316145b92915050565b60006104508161144e565b61045982611458565b5050565b6000828152602081905260409020600101546104788161144e565b61048283836115fe565b50505050565b6001600160a01b03811633146104b15760405163334bd91960e11b815260040160405180910390fd5b6104bb8282611690565b505050565b60008a8a8a8a8a6040516020016104db959493929190612b71565b60405160208183030381529060405280519060200120905060006001808360405160200161050a929190612c29565b60408051601f198184030181528282528051602091820120600084529083018083525260ff881690820152606081018690526080810185905260a0016020604051602081039080840390855afa158015610568573d6000803e3d6000fd5b5050506020604051035190508b6001600160a01b0316816001600160a01b0316146105ae5760405162461bcd60e51b81526004016105a590612ca4565b60405180910390fd5b6105bd818c8c8c8c8c8c6116fb565b505050505050505050505050565b6060600580548060200260200160405190810160405280929190818152602001828054801561062357602002820191906000526020600020905b81546001600160a01b03168152600190910190602001808311610605575b5050505050905090565b6040516bffffffffffffffffffffffff19606086901b16602082015260009060340160405160208183030381529060405280519060200120905060006001808360405160200161067e929190612c29565b60408051601f198184030181528282528051602091820120600084529083018083525260ff881690820152606081018690526080810185905260a0016020604051602081039080840390855afa1580156106dc573d6000803e3d6000fd5b505050602060405103519050856001600160a01b0316816001600160a01b0316146107195760405162461bcd60e51b81526004016105a590612ca4565b61072281611d1d565b505050505050565b6040516bffffffffffffffffffffffff19606086901b16602082015260009060340160405160208183030381529060405280519060200120905060006001808360405160200161077b929190612c29565b60408051601f198184030181528282528051602091820120600084529083018083525260ff881690820152606081018690526080810185905260a0016020604051602081039080840390855afa1580156107d9573d6000803e3d6000fd5b50505060206040510351905061072281611458565b6001600160f01b0319821660009081526006602090815260408083206001600160e81b0319851684528252808320546001600160a01b039081168085526009845282852054909116808552600290935292208054919260609290919061085390612bef565b80601f016020809104026020016040519081016040528092919081815260200182805461087f90612bef565b80156108cc5780601f106108a1576101008083540402835291602001916108cc565b820191906000526020600020905b8154815290600101906020018083116108af57829003601f168201915b50505050509150509250929050565b6108e53382612138565b50565b600b546001600160a01b031633146109685760405162461bcd60e51b815260206004820152603e60248201527f556e617574686f72697a65643a206f6e6c79204f636e5061796d656e744d616e60448201527f616765722063616e20757064617465207061796d656e7420737461747573000060648201526084016105a5565b600b54604051632222c8a160e21b81526001600160a01b038381166004830152600092169063888b228490602401602060405180830381865afa1580156109b3573d6000803e3d6000fd5b505050506040513d601f19601f820116820180604052508101906109d79190612cf0565b6001600160a01b03831660009081526008602052604090206004018054919250829160ff19166001836003811115610a1157610a116129a0565b02179055505050565b6001600160a01b038082166000908152600960209081526040808320549093168083526002909152919020805460609190610a5490612bef565b80601f0160208091040260200160405190810160405280929190818152602001828054610a8090612bef565b8015610acd5780601f10610aa257610100808354040283529160200191610acd565b820191906000526020600020905b815481529060010190602001808311610ab057829003601f168201915b50505050509050915091565b6000918252602082815260408084206001600160a01b0393909316845291905290205460ff1690565b60008585604051602001610b17929190612d11565b604051602081830303815290604052805190602001209050600060018083604051602001610b46929190612c29565b60408051601f198184030181528282528051602091820120600084529083018083525260ff881690820152606081018690526080810185905260a0016020604051602081039080840390855afa158015610ba4573d6000803e3d6000fd5b505050602060405103519050610bba8187612138565b50505050505050565b6001600160a01b0381166000908152600260205260409020805460609190610bea90612bef565b80601f0160208091040260200160405190810160405280929190818152602001828054610c1690612bef565b8015610c635780601f10610c3857610100808354040283529160200191610c63565b820191906000526020600020905b815481529060010190602001808311610c4657829003601f168201915b50505050509050919050565b6001600160f01b031980831660009081526006602090815260408083206001600160e81b03198087168552908352818420546001600160a01b031680855260088452828520835161010081018552815460f081901b90981681526201000090970460e81b9092168685015260018201805484518187028101870186528181529297606097968896889692959294908601939091830182828015610d6157602002820191906000526020600020906000905b82829054906101000a900460ff166006811115610d3f57610d3f6129a0565b815260206001928301818104948501949093039092029101808411610d205790505b50505050508152602001600282018054610d7a90612bef565b80601f0160208091040260200160405190810160405280929190818152602001828054610da690612bef565b8015610df35780601f10610dc857610100808354040283529160200191610df3565b820191906000526020600020905b815481529060010190602001808311610dd657829003601f168201915b50505050508152602001600382018054610e0c90612bef565b80601f0160208091040260200160405190810160405280929190818152602001828054610e3890612bef565b8015610e855780601f10610e5a57610100808354040283529160200191610e85565b820191906000526020600020905b815481529060010190602001808311610e6857829003601f168201915b5050509183525050600482015460209091019060ff166003811115610eac57610eac6129a0565b6003811115610ebd57610ebd6129a0565b81526020016004820160019054906101000a900460ff166002811115610ee557610ee56129a0565b6002811115610ef657610ef66129a0565b81526004919091015462010000900460ff1615156020918201526040828101516001600160a01b0389811660009081526009855283812054909116808252600290945291909120805491975091955091925090610f5290612bef565b80601f0160208091040260200160405190810160405280929190818152602001828054610f7e90612bef565b8015610fcb5780601f10610fa057610100808354040283529160200191610fcb565b820191906000526020600020905b815481529060010190602001808311610fae57829003601f168201915b505050505091505092959194509250565b6060600a805480602002602001604051908101604052809291908181526020018280548015610623576020028201919060005260206000209081546001600160a01b03168152600190910190602001808311610605575050505050905090565b61104533611458565b565b61104533611d1d565b610722338787878787876116fb565b60008281526020819052604090206001015461107a8161144e565b6104828383611690565b600061108f8161144e565b6001600160f01b0319831660009081526006602090815260408083206001600160e81b0319861684529091529020546001600160a01b031661048281611d1d565b6001600160a01b0381166000908152600860209081526040808320815161010081018352815460f081901b6001600160f01b031916825262010000900460e81b6001600160e81b031916818501526001820180548451818702810187018652818152879660609688968896889690959194928601939091908301828280156111a757602002820191906000526020600020906000905b82829054906101000a900460ff166006811115611185576111856129a0565b8152602060019283018181049485019490930390920291018084116111665790505b505050505081526020016002820180546111c090612bef565b80601f01602080910402602001604051908101604052809291908181526020018280546111ec90612bef565b80156112395780601f1061120e57610100808354040283529160200191611239565b820191906000526020600020905b81548152906001019060200180831161121c57829003601f168201915b5050505050815260200160038201805461125290612bef565b80601f016020809104026020016040519081016040528092919081815260200182805461127e90612bef565b80156112cb5780601f106112a0576101008083540402835291602001916112cb565b820191906000526020600020905b8154815290600101906020018083116112ae57829003601f168201915b5050509183525050600482015460209091019060ff1660038111156112f2576112f26129a0565b6003811115611303576113036129a0565b81526020016004820160019054906101000a900460ff16600281111561132b5761132b6129a0565b600281111561133c5761133c6129a0565b81526004919091015462010000900460ff1615156020918201528151828201516040808501516001600160a01b038d8116600090815260098752838120549091168082526002909652919091208054939b509199509750919550919250906113a390612bef565b80601f01602080910402602001604051908101604052809291908181526020018280546113cf90612bef565b801561141c5780601f106113f15761010080835404028352916020019161141c565b820191906000526020600020905b8154815290600101906020018083116113ff57829003601f168201915b505050505091505091939590929450565b60006114388161144e565b61144360008361045d565b61045960003361105f565b6108e58133612332565b6001600160a01b0381166000908152600260205260408120805461147b90612bef565b80601f01602080910402602001604051908101604052809291908181526020018280546114a790612bef565b80156114f45780601f106114c9576101008083540402835291602001916114f4565b820191906000526020600020905b8154815290600101906020018083116114d757829003601f168201915b50505050509050600081511161155c5760405162461bcd60e51b815260206004820152602760248201527f43616e6e6f742064656c657465206e6f6465207468617420646f6573206e6f746044820152661032bc34b9ba1760c91b60648201526084016105a5565b600060038260405161156e9190612d49565b9081526040805160209281900383019020805460ff1916931515939093179092556001600160a01b038416600090815260029091529081206115af9161236b565b816001600160a01b03167fb1f254c0ae74a753185ba13a1b17818bc803e32d05ef56851955c0ebf230f0d66040516115f290602080825260009082015260400190565b60405180910390a25050565b600061160a8383610ad9565b611688576000838152602081815260408083206001600160a01b03861684529091529020805460ff191660011790556116403390565b6001600160a01b0316826001600160a01b0316847f2f8788117e7eff1d82e926ec794901d17c78024a50270940304540a733656f0d60405160405180910390a450600161043f565b50600061043f565b600061169c8383610ad9565b15611688576000838152602081815260408083206001600160a01b0386168085529252808320805460ff1916905551339286917ff6391f5c32d9c69d2a47ea670b442974b53935d1edc7fd64eb21e047a839171b9190a450600161043f565b6001600160f01b031986166117785760405162461bcd60e51b815260206004820152603e60248201527f43616e6e6f742073657420656d70747920636f756e7472795f636f64652e205560448201527f73652064656c6574655061727479206d6574686f6420696e73746561642e000060648201526084016105a5565b6001600160e81b031985166117f55760405162461bcd60e51b815260206004820152603a60248201527f43616e6e6f742073657420656d7074792070617274795f69642e20557365206460448201527f656c6574655061727479206d6574686f6420696e73746561642e00000000000060648201526084016105a5565b600084511161183b5760405162461bcd60e51b81526020600482015260126024820152712737903937b632b990383937bb34b232b21760711b60448201526064016105a5565b6001600160a01b0383166118b75760405162461bcd60e51b815260206004820152603a60248201527f43616e6e6f742073657420656d707479206f70657261746f722e20557365206460448201527f656c6574655061727479206d6574686f6420696e73746561642e00000000000060648201526084016105a5565b6001600160f01b0319861660009081526006602090815260408083206001600160e81b0319891684529091529020546001600160a01b031680158061190d5750876001600160a01b0316816001600160a01b0316145b6119945760405162461bcd60e51b815260206004820152604c60248201527f5061727479207769746820636f756e7472795f636f64652f70617274795f696460448201527f20616c7265616479207265676973746572656420756e6465722064696666657260648201526b32b73a1030b2323932b9b99760a11b608482015260a4016105a5565b6001600160f01b0319871660009081526006602090815260408083206001600160e81b03198a168452825280832080546001600160a01b0319166001600160a01b038d811691909117909155871683526002909152902080546119f690612bef565b9050600003611a515760405162461bcd60e51b815260206004820152602160248201527f50726f7669646564206f70657261746f72206e6f7420726567697374657265646044820152601760f91b60648201526084016105a5565b6001600160a01b03881660009081526007602052604081205460ff1615159003611ac157600a80546001810182556000919091527fc65a7bb8d6351c1cf70c95a316cc6a92839c986682d98bc35f958f4883f9d2a80180546001600160a01b0319166001600160a01b038a161790555b6001600160a01b03888116600081815260076020526040808220805460ff19166001179055600b549051632222c8a160e21b815260048101939093529092169063888b228490602401602060405180830381865afa158015611b27573d6000803e3d6000fd5b505050506040513d601f19601f82011682018060405250810190611b4b9190612cf0565b9050604051806101000160405280896001600160f01b0319168152602001886001600160e81b0319168152602001878152602001858152602001848152602001826003811115611b9d57611b9d6129a0565b815260200160008152600160209182018190526001600160a01b038c16600090815260088352604090819020845181548686015160e81c620100000264ffffffffff1990911660f09290921c919091171781559084015180519193611c07938501929101906123a5565b5060608201516002820190611c1c9082612dab565b5060808201516003820190611c319082612dab565b5060a082015160048201805460ff19166001836003811115611c5557611c556129a0565b021790555060c082015160048201805461ff001916610100836002811115611c7f57611c7f6129a0565b021790555060e0919091015160049091018054911515620100000262ff0000199092169190911790556001600160a01b03808a166000818152600960205260409081902080549389166001600160a01b031990941684179055517f736c294392ae52241c1dfdf7bde0e86e54fea40d8303157119cb0e8d5855225990611d0a908c908c908c90612e6b565b60405180910390a3505050505050505050565b6001600160a01b0381811660009081526009602052604090205416611dbe5760405162461bcd60e51b815260206004820152604b60248201527f43616e6e6f742064656c657465207061727479207468617420646f6573206e6f60448201527f742065786973742e204e6f206f70657261746f7220666f756e6420666f72206760648201526a34bb32b7103830b93a3c9760a91b608482015260a4016105a5565b6001600160a01b038116600090815260096020908152604080832080546001600160a01b031916905560088252808320815161010081018352815460f081901b6001600160f01b031916825262010000900460e81b6001600160e81b03191681850152600182018054845181870281018701865281815292959394860193830182828015611e9b57602002820191906000526020600020906000905b82829054906101000a900460ff166006811115611e7957611e796129a0565b815260206001928301818104948501949093039092029101808411611e5a5790505b50505050508152602001600282018054611eb490612bef565b80601f0160208091040260200160405190810160405280929190818152602001828054611ee090612bef565b8015611f2d5780601f10611f0257610100808354040283529160200191611f2d565b820191906000526020600020905b815481529060010190602001808311611f1057829003601f168201915b50505050508152602001600382018054611f4690612bef565b80601f0160208091040260200160405190810160405280929190818152602001828054611f7290612bef565b8015611fbf5780601f10611f9457610100808354040283529160200191611fbf565b820191906000526020600020905b815481529060010190602001808311611fa257829003601f168201915b5050509183525050600482015460209091019060ff166003811115611fe657611fe66129a0565b6003811115611ff757611ff76129a0565b81526020016004820160019054906101000a900460ff16600281111561201f5761201f6129a0565b6002811115612030576120306129a0565b81526004919091015462010000900460ff16151560209182015281516001600160f01b0319166000908152600682526040808220848401516001600160e81b0319168352835280822080546001600160a01b03191690556001600160a01b03861682526008909252908120805464ffffffffff191681559192506120b76001830182612459565b6120c560028301600061236b565b6120d360038301600061236b565b50600401805462ffffff19169055805160208201516040516060926000926001600160a01b038716927f736c294392ae52241c1dfdf7bde0e86e54fea40d8303157119cb0e8d585522599261212b9290918790612e6b565b60405180910390a3505050565b80516000036121af5760405162461bcd60e51b815260206004820152603c60248201527f43616e6e6f742073657420656d70747920646f6d61696e206e616d652e20557360448201527f652064656c6574654e6f6465206d6574686f6420696e73746561642e0000000060648201526084016105a5565b6003816040516121bf9190612d49565b9081526040519081900360200190205460ff161561221f5760405162461bcd60e51b815260206004820152601f60248201527f446f6d61696e206e616d6520616c726561647920726567697374657265642e0060448201526064016105a5565b60016003826040516122319190612d49565b9081526040805160209281900383019020805460ff1916931515939093179092556001600160a01b038416600090815260049091529081205460ff16151590036122c157600580546001810182556000919091527f036b6384b5eca791c62761152d0c79bb0604c104a5fb6f4eb0703f3154bb3db00180546001600160a01b0319166001600160a01b0384161790555b6001600160a01b0382166000908152600460209081526040808320805460ff19166001179055600290915290206122f88282612dab565b50816001600160a01b03167fb1f254c0ae74a753185ba13a1b17818bc803e32d05ef56851955c0ebf230f0d6826040516115f2919061298d565b61233c8282610ad9565b6104595760405163e2517d3f60e01b81526001600160a01b0382166004820152602481018390526044016105a5565b50805461237790612bef565b6000825580601f10612387575050565b601f0160209004906000526020600020908101906108e5919061247a565b82805482825590600052602060002090601f016020900481019282156124495791602002820160005b8382111561241a57835183826101000a81548160ff021916908360068111156123f9576123f96129a0565b021790555092602001926001016020816000010492830192600103026123ce565b80156124475782816101000a81549060ff021916905560010160208160000104928301926001030261241a565b505b5061245592915061247a565b5090565b50805460008255601f0160209004906000526020600020908101906108e591905b5b80821115612455576000815560010161247b565b6000602082840312156124a157600080fd5b81356001600160e01b0319811681146124b957600080fd5b9392505050565b6000602082840312156124d257600080fd5b5035919050565b80356001600160a01b03811681146124f057600080fd5b919050565b60006020828403121561250757600080fd5b6124b9826124d9565b6000806040838503121561252357600080fd5b82359150612533602084016124d9565b90509250929050565b80356001600160f01b0319811681146124f057600080fd5b80356001600160e81b0319811681146124f057600080fd5b634e487b7160e01b600052604160045260246000fd5b604051601f8201601f1916810167ffffffffffffffff811182821017156125ab576125ab61256c565b604052919050565b600082601f8301126125c457600080fd5b8135602067ffffffffffffffff8211156125e0576125e061256c565b8160051b6125ef828201612582565b928352848101820192828101908785111561260957600080fd5b83870192505b84831015612636578235600781106126275760008081fd5b8252918301919083019061260f565b979650505050505050565b600082601f83011261265257600080fd5b813567ffffffffffffffff81111561266c5761266c61256c565b61267f601f8201601f1916602001612582565b81815284602083860101111561269457600080fd5b816020850160208301376000918101602001919091529392505050565b803560ff811681146124f057600080fd5b6000806000806000806000806000806101408b8d0312156126e257600080fd5b6126eb8b6124d9565b99506126f960208c0161253c565b985061270760408c01612554565b975060608b013567ffffffffffffffff8082111561272457600080fd5b6127308e838f016125b3565b985061273e60808e016124d9565b975060a08d013591508082111561275457600080fd5b6127608e838f01612641565b965060c08d013591508082111561277657600080fd5b506127838d828e01612641565b94505061279260e08c016126b1565b92506101008b013591506101208b013590509295989b9194979a5092959850565b6020808252825182820181905260009190848201906040850190845b818110156127f45783516001600160a01b0316835292840192918401916001016127cf565b50909695505050505050565b6000806000806080858703121561281657600080fd5b61281f856124d9565b935061282d602086016126b1565b93969395505050506040820135916060013590565b6000806040838503121561285557600080fd5b61285e8361253c565b915061253360208401612554565b60005b8381101561288757818101518382015260200161286f565b50506000910152565b600081518084526128a881602086016020860161286c565b601f01601f19169290920160200192915050565b6001600160a01b03831681526040602082018190526000906128e090830184612890565b949350505050565b6000602082840312156128fa57600080fd5b813567ffffffffffffffff81111561291157600080fd5b6128e084828501612641565b600080600080600060a0868803121561293557600080fd5b61293e866124d9565b9450602086013567ffffffffffffffff81111561295a57600080fd5b61296688828901612641565b945050612975604087016126b1565b94979396509394606081013594506080013592915050565b6020815260006124b96020830184612890565b634e487b7160e01b600052602160045260246000fd5b600781106129d457634e487b7160e01b600052602160045260246000fd5b9052565b600081518084526020808501945080840160005b83811015612a0f576129ff8783516129b6565b95820195908201906001016129ec565b509495945050505050565b600060018060a01b03808716835260806020840152612a3c60808401876129d8565b81861660408501528381036060850152612a568186612890565b98975050505050505050565b60008060008060008060c08789031215612a7b57600080fd5b612a848761253c565b9550612a9260208801612554565b9450604087013567ffffffffffffffff80821115612aaf57600080fd5b612abb8a838b016125b3565b9550612ac960608a016124d9565b94506080890135915080821115612adf57600080fd5b612aeb8a838b01612641565b935060a0890135915080821115612b0157600080fd5b50612b0e89828a01612641565b9150509295509295509295565b6001600160f01b0319861681526001600160e81b03198516602082015260a060408201819052600090612b50908301866129d8565b6001600160a01b03851660608401528281036080840152612a568185612890565b60006bffffffffffffffffffffffff19808860601b16835261ffff60f01b8716601484015262ffffff60e81b86166016840152601983018551602080880160005b83811015612bd557612bc58583516129b6565b9382019390820190600101612bb2565b5050505060609490941b1683525050601401949350505050565b600181811c90821680612c0357607f821691505b602082108103612c2357634e487b7160e01b600052602260045260246000fd5b50919050565b6000808454612c3781612bef565b60018281168015612c4f5760018114612c6457612c93565b60ff1984168752821515830287019450612c93565b8860005260208060002060005b85811015612c8a5781548a820152908401908201612c71565b50505082870194505b505050938152602001949350505050565b6020808252602c908201527f5369676e657220616e642070726f76696465642070617274792061646472657360408201526b39903234b33332b932b73a1760a11b606082015260800190565b600060208284031215612d0257600080fd5b8151600481106124b957600080fd5b6bffffffffffffffffffffffff198360601b16815260008251612d3b81601485016020870161286c565b919091016014019392505050565b60008251612d5b81846020870161286c565b9190910192915050565b601f8211156104bb57600081815260208120601f850160051c81016020861015612d8c5750805b601f850160051c820191505b8181101561072257828155600101612d98565b815167ffffffffffffffff811115612dc557612dc561256c565b612dd981612dd38454612bef565b84612d65565b602080601f831160018114612e0e5760008415612df65750858301515b600019600386901b1c1916600185901b178555610722565b600085815260208120601f198616915b82811015612e3d57888601518255948401946001909101908401612e1e565b5085821015612e5b5787850151600019600388901b60f8161c191681555b5050505050600190811b01905550565b6001600160f01b0319841681526001600160e81b031983166020820152606060408201819052600090612ea0908301846129d8565b9594505050505056fea26469706673582212207f31ac93ec6f5e0d5ef76ceedce2be2a26b346ddc631771c6c2e62d9994a014a64736f6c63430008140033",
  "devdoc": {
    "errors": {
      "AccessControlBadConfirmation()": [
        {
          "details": "The caller of a function is not the expected one. NOTE: Don't confuse with {AccessControlUnauthorizedAccount}."
        }
      ],
      "AccessControlUnauthorizedAccount(address,bytes32)": [
        {
          "details": "The `account` is missing a role."
        }
      ]
    },
    "events": {
      "RoleAdminChanged(bytes32,bytes32,bytes32)": {
        "details": "Emitted when `newAdminRole` is set as ``role``'s admin role, replacing `previousAdminRole` `DEFAULT_ADMIN_ROLE` is the starting admin for all roles, despite {RoleAdminChanged} not being emitted signaling this."
      },
      "RoleGranted(bytes32,address,address)": {
        "details": "Emitted when `account` is granted `role`. `sender` is the account that originated the contract call, an admin role bearer except when using {AccessControl-_setupRole}."
      },
      "RoleRevoked(bytes32,address,address)": {
        "details": "Emitted when `account` is revoked `role`. `sender` is the account that originated the contract call:   - if using `revokeRole`, it is the admin role bearer   - if using `renounceRole`, it is the role bearer (i.e. `account`)"
      }
    },
    "kind": "dev",
    "methods": {
      "getRoleAdmin(bytes32)": {
        "details": "Returns the admin role that controls `role`. See {grantRole} and {revokeRole}. To change a role's admin, use {_setRoleAdmin}."
      },
      "grantRole(bytes32,address)": {
        "details": "Grants `role` to `account`. If `account` had not been already granted `role`, emits a {RoleGranted} event. Requirements: - the caller must have ``role``'s admin role. May emit a {RoleGranted} event."
      },
      "hasRole(bytes32,address)": {
        "details": "Returns `true` if `account` has been granted `role`."
      },
      "renounceRole(bytes32,address)": {
        "details": "Revokes `role` from the calling account. Roles are often managed via {grantRole} and {revokeRole}: this function's purpose is to provide a mechanism for accounts to lose their privileges if they are compromised (such as when a trusted device is misplaced). If the calling account had been revoked `role`, emits a {RoleRevoked} event. Requirements: - the caller must be `callerConfirmation`. May emit a {RoleRevoked} event."
      },
      "revokeRole(bytes32,address)": {
        "details": "Revokes `role` from `account`. If `account` had been granted `role`, emits a {RoleRevoked} event. Requirements: - the caller must have ``role``'s admin role. May emit a {RoleRevoked} event."
      },
      "supportsInterface(bytes4)": {
        "details": "See {IERC165-supportsInterface}."
      }
    },
    "stateVariables": {
      "nodeOf": {
        "custom:oz-upgrades-unsafe-allow": "constructor"
      }
    },
    "version": 1
  },
  "userdoc": {
    "kind": "user",
    "methods": {
      "transferOwnership(address)": {
        "notice": "Called when Base Contract upgrades: iterate version   "
      }
    },
    "version": 1
  },
  "storageLayout": {
    "storage": [
      {
        "astId": 26,
        "contract": "contracts/OcnRegistry.sol:OcnRegistry",
        "label": "_roles",
        "offset": 0,
        "slot": "0",
        "type": "t_mapping(t_bytes32,t_struct(RoleData)21_storage)"
      },
      {
        "astId": 802,
        "contract": "contracts/OcnRegistry.sol:OcnRegistry",
        "label": "prefix",
        "offset": 0,
        "slot": "1",
        "type": "t_string_storage"
      },
      {
        "astId": 807,
        "contract": "contracts/OcnRegistry.sol:OcnRegistry",
        "label": "nodeOf",
        "offset": 0,
        "slot": "2",
        "type": "t_mapping(t_address,t_string_storage)"
      },
      {
        "astId": 811,
        "contract": "contracts/OcnRegistry.sol:OcnRegistry",
        "label": "uniqueDomains",
        "offset": 0,
        "slot": "3",
        "type": "t_mapping(t_string_memory_ptr,t_bool)"
      },
      {
        "astId": 815,
        "contract": "contracts/OcnRegistry.sol:OcnRegistry",
        "label": "uniqueOperators",
        "offset": 0,
        "slot": "4",
        "type": "t_mapping(t_address,t_bool)"
      },
      {
        "astId": 818,
        "contract": "contracts/OcnRegistry.sol:OcnRegistry",
        "label": "operators",
        "offset": 0,
        "slot": "5",
        "type": "t_array(t_address)dyn_storage"
      },
      {
        "astId": 865,
        "contract": "contracts/OcnRegistry.sol:OcnRegistry",
        "label": "uniqueParties",
        "offset": 0,
        "slot": "6",
        "type": "t_mapping(t_bytes2,t_mapping(t_bytes3,t_address))"
      },
      {
        "astId": 869,
        "contract": "contracts/OcnRegistry.sol:OcnRegistry",
        "label": "uniquePartyAddresses",
        "offset": 0,
        "slot": "7",
        "type": "t_mapping(t_address,t_bool)"
      },
      {
        "astId": 874,
        "contract": "contracts/OcnRegistry.sol:OcnRegistry",
        "label": "partyOf",
        "offset": 0,
        "slot": "8",
        "type": "t_mapping(t_address,t_struct(PartyDetails)859_storage)"
      },
      {
        "astId": 878,
        "contract": "contracts/OcnRegistry.sol:OcnRegistry",
        "label": "operatorOf",
        "offset": 0,
        "slot": "9",
        "type": "t_mapping(t_address,t_address)"
      },
      {
        "astId": 881,
        "contract": "contracts/OcnRegistry.sol:OcnRegistry",
        "label": "parties",
        "offset": 0,
        "slot": "10",
        "type": "t_array(t_address)dyn_storage"
      },
      {
        "astId": 884,
        "contract": "contracts/OcnRegistry.sol:OcnRegistry",
        "label": "paymentManager",
        "offset": 0,
        "slot": "11",
        "type": "t_contract(IOcnPaymentManager)580"
      }
    ],
    "types": {
      "t_address": {
        "encoding": "inplace",
        "label": "address",
        "numberOfBytes": "20"
      },
      "t_array(t_address)dyn_storage": {
        "base": "t_address",
        "encoding": "dynamic_array",
        "label": "address[]",
        "numberOfBytes": "32"
      },
      "t_array(t_enum(Role)826)dyn_storage": {
        "base": "t_enum(Role)826",
        "encoding": "dynamic_array",
        "label": "enum OcnRegistry.Role[]",
        "numberOfBytes": "32"
      },
      "t_bool": {
        "encoding": "inplace",
        "label": "bool",
        "numberOfBytes": "1"
      },
      "t_bytes2": {
        "encoding": "inplace",
        "label": "bytes2",
        "numberOfBytes": "2"
      },
      "t_bytes3": {
        "encoding": "inplace",
        "label": "bytes3",
        "numberOfBytes": "3"
      },
      "t_bytes32": {
        "encoding": "inplace",
        "label": "bytes32",
        "numberOfBytes": "32"
      },
      "t_contract(IOcnPaymentManager)580": {
        "encoding": "inplace",
        "label": "contract IOcnPaymentManager",
        "numberOfBytes": "20"
      },
      "t_enum(PaymentStatus)530": {
        "encoding": "inplace",
        "label": "enum IOcnPaymentManager.PaymentStatus",
        "numberOfBytes": "1"
      },
      "t_enum(Role)826": {
        "encoding": "inplace",
        "label": "enum OcnRegistry.Role",
        "numberOfBytes": "1"
      },
      "t_enum(VcStatus)838": {
        "encoding": "inplace",
        "label": "enum OcnRegistry.VcStatus",
        "numberOfBytes": "1"
      },
      "t_mapping(t_address,t_address)": {
        "encoding": "mapping",
        "key": "t_address",
        "label": "mapping(address => address)",
        "numberOfBytes": "32",
        "value": "t_address"
      },
      "t_mapping(t_address,t_bool)": {
        "encoding": "mapping",
        "key": "t_address",
        "label": "mapping(address => bool)",
        "numberOfBytes": "32",
        "value": "t_bool"
      },
      "t_mapping(t_address,t_string_storage)": {
        "encoding": "mapping",
        "key": "t_address",
        "label": "mapping(address => string)",
        "numberOfBytes": "32",
        "value": "t_string_storage"
      },
      "t_mapping(t_address,t_struct(PartyDetails)859_storage)": {
        "encoding": "mapping",
        "key": "t_address",
        "label": "mapping(address => struct OcnRegistry.PartyDetails)",
        "numberOfBytes": "32",
        "value": "t_struct(PartyDetails)859_storage"
      },
      "t_mapping(t_bytes2,t_mapping(t_bytes3,t_address))": {
        "encoding": "mapping",
        "key": "t_bytes2",
        "label": "mapping(bytes2 => mapping(bytes3 => address))",
        "numberOfBytes": "32",
        "value": "t_mapping(t_bytes3,t_address)"
      },
      "t_mapping(t_bytes3,t_address)": {
        "encoding": "mapping",
        "key": "t_bytes3",
        "label": "mapping(bytes3 => address)",
        "numberOfBytes": "32",
        "value": "t_address"
      },
      "t_mapping(t_bytes32,t_struct(RoleData)21_storage)": {
        "encoding": "mapping",
        "key": "t_bytes32",
        "label": "mapping(bytes32 => struct AccessControl.RoleData)",
        "numberOfBytes": "32",
        "value": "t_struct(RoleData)21_storage"
      },
      "t_mapping(t_string_memory_ptr,t_bool)": {
        "encoding": "mapping",
        "key": "t_string_memory_ptr",
        "label": "mapping(string => bool)",
        "numberOfBytes": "32",
        "value": "t_bool"
      },
      "t_string_memory_ptr": {
        "encoding": "bytes",
        "label": "string",
        "numberOfBytes": "32"
      },
      "t_string_storage": {
        "encoding": "bytes",
        "label": "string",
        "numberOfBytes": "32"
      },
      "t_struct(PartyDetails)859_storage": {
        "encoding": "inplace",
        "label": "struct OcnRegistry.PartyDetails",
        "members": [
          {
            "astId": 840,
            "contract": "contracts/OcnRegistry.sol:OcnRegistry",
            "label": "countryCode",
            "offset": 0,
            "slot": "0",
            "type": "t_bytes2"
          },
          {
            "astId": 842,
            "contract": "contracts/OcnRegistry.sol:OcnRegistry",
            "label": "partyId",
            "offset": 2,
            "slot": "0",
            "type": "t_bytes3"
          },
          {
            "astId": 846,
            "contract": "contracts/OcnRegistry.sol:OcnRegistry",
            "label": "roles",
            "offset": 0,
            "slot": "1",
            "type": "t_array(t_enum(Role)826)dyn_storage"
          },
          {
            "astId": 848,
            "contract": "contracts/OcnRegistry.sol:OcnRegistry",
            "label": "name",
            "offset": 0,
            "slot": "2",
            "type": "t_string_storage"
          },
          {
            "astId": 850,
            "contract": "contracts/OcnRegistry.sol:OcnRegistry",
            "label": "url",
            "offset": 0,
            "slot": "3",
            "type": "t_string_storage"
          },
          {
            "astId": 853,
            "contract": "contracts/OcnRegistry.sol:OcnRegistry",
            "label": "paymentStatus",
            "offset": 0,
            "slot": "4",
            "type": "t_enum(PaymentStatus)530"
          },
          {
            "astId": 856,
            "contract": "contracts/OcnRegistry.sol:OcnRegistry",
            "label": "vcStatus",
            "offset": 1,
            "slot": "4",
            "type": "t_enum(VcStatus)838"
          },
          {
            "astId": 858,
            "contract": "contracts/OcnRegistry.sol:OcnRegistry",
            "label": "active",
            "offset": 2,
            "slot": "4",
            "type": "t_bool"
          }
        ],
        "numberOfBytes": "160"
      },
      "t_struct(RoleData)21_storage": {
        "encoding": "inplace",
        "label": "struct AccessControl.RoleData",
        "members": [
          {
            "astId": 18,
            "contract": "contracts/OcnRegistry.sol:OcnRegistry",
            "label": "hasRole",
            "offset": 0,
            "slot": "0",
            "type": "t_mapping(t_address,t_bool)"
          },
          {
            "astId": 20,
            "contract": "contracts/OcnRegistry.sol:OcnRegistry",
            "label": "adminRole",
            "offset": 0,
            "slot": "1",
            "type": "t_bytes32"
          }
        ],
        "numberOfBytes": "64"
      }
    }
  }
}