{
  "address": "0x0F332020c8adA2A457D334903c956bC24B82D69C",
  "abi": [
    {
      "inputs": [
        {
          "internalType": "address",
          "name": "_paymentManager",
          "type": "address"
        }
      ],
      "stateMutability": "nonpayable",
      "type": "constructor"
    },
    {
      "inputs": [],
      "name": "AccessControlBadConfirmation",
      "type": "error"
    },
    {
      "inputs": [
        {
          "internalType": "address",
          "name": "account",
          "type": "address"
        },
        {
          "internalType": "bytes32",
          "name": "neededRole",
          "type": "bytes32"
        }
      ],
      "name": "AccessControlUnauthorizedAccount",
      "type": "error"
    },
    {
      "anonymous": false,
      "inputs": [
        {
          "indexed": true,
          "internalType": "address",
          "name": "operator",
          "type": "address"
        },
        {
          "indexed": false,
          "internalType": "string",
          "name": "domain",
          "type": "string"
        }
      ],
      "name": "OperatorUpdate",
      "type": "event"
    },
    {
      "anonymous": false,
      "inputs": [
        {
          "indexed": false,
          "internalType": "bytes2",
          "name": "countryCode",
          "type": "bytes2"
        },
        {
          "indexed": false,
          "internalType": "bytes3",
          "name": "partyId",
          "type": "bytes3"
        },
        {
          "indexed": true,
          "internalType": "address",
          "name": "partyAddress",
          "type": "address"
        },
        {
          "indexed": false,
          "internalType": "enum OcnRegistry.Role[]",
          "name": "roles",
          "type": "uint8[]"
        },
        {
          "indexed": true,
          "internalType": "address",
          "name": "operatorAddress",
          "type": "address"
        }
      ],
      "name": "PartyUpdate",
      "type": "event"
    },
    {
      "anonymous": false,
      "inputs": [
        {
          "indexed": true,
          "internalType": "bytes32",
          "name": "role",
          "type": "bytes32"
        },
        {
          "indexed": true,
          "internalType": "bytes32",
          "name": "previousAdminRole",
          "type": "bytes32"
        },
        {
          "indexed": true,
          "internalType": "bytes32",
          "name": "newAdminRole",
          "type": "bytes32"
        }
      ],
      "name": "RoleAdminChanged",
      "type": "event"
    },
    {
      "anonymous": false,
      "inputs": [
        {
          "indexed": true,
          "internalType": "bytes32",
          "name": "role",
          "type": "bytes32"
        },
        {
          "indexed": true,
          "internalType": "address",
          "name": "account",
          "type": "address"
        },
        {
          "indexed": true,
          "internalType": "address",
          "name": "sender",
          "type": "address"
        }
      ],
      "name": "RoleGranted",
      "type": "event"
    },
    {
      "anonymous": false,
      "inputs": [
        {
          "indexed": true,
          "internalType": "bytes32",
          "name": "role",
          "type": "bytes32"
        },
        {
          "indexed": true,
          "internalType": "address",
          "name": "account",
          "type": "address"
        },
        {
          "indexed": true,
          "internalType": "address",
          "name": "sender",
          "type": "address"
        }
      ],
      "name": "RoleRevoked",
      "type": "event"
    },
    {
      "inputs": [],
      "name": "DEFAULT_ADMIN_ROLE",
      "outputs": [
        {
          "internalType": "bytes32",
          "name": "",
          "type": "bytes32"
        }
      ],
      "stateMutability": "view",
      "type": "function"
    },
    {
      "inputs": [
        {
          "internalType": "address",
          "name": "operator",
          "type": "address"
        }
      ],
      "name": "adminDeleteOperator",
      "outputs": [],
      "stateMutability": "nonpayable",
      "type": "function"
    },
    {
      "inputs": [
        {
          "internalType": "bytes2",
          "name": "countryCode",
          "type": "bytes2"
        },
        {
          "internalType": "bytes3",
          "name": "partyId",
          "type": "bytes3"
        }
      ],
      "name": "adminDeleteParty",
      "outputs": [],
      "stateMutability": "nonpayable",
      "type": "function"
    },
    {
      "inputs": [],
      "name": "deleteNode",
      "outputs": [],
      "stateMutability": "nonpayable",
      "type": "function"
    },
    {
      "inputs": [
        {
          "internalType": "address",
          "name": "operator",
          "type": "address"
        },
        {
          "internalType": "uint8",
          "name": "v",
          "type": "uint8"
        },
        {
          "internalType": "bytes32",
          "name": "r",
          "type": "bytes32"
        },
        {
          "internalType": "bytes32",
          "name": "s",
          "type": "bytes32"
        }
      ],
      "name": "deleteNodeRaw",
      "outputs": [],
      "stateMutability": "nonpayable",
      "type": "function"
    },
    {
      "inputs": [],
      "name": "deleteParty",
      "outputs": [],
      "stateMutability": "nonpayable",
      "type": "function"
    },
    {
      "inputs": [
        {
          "internalType": "address",
          "name": "party",
          "type": "address"
        },
        {
          "internalType": "uint8",
          "name": "v",
          "type": "uint8"
        },
        {
          "internalType": "bytes32",
          "name": "r",
          "type": "bytes32"
        },
        {
          "internalType": "bytes32",
          "name": "s",
          "type": "bytes32"
        }
      ],
      "name": "deletePartyRaw",
      "outputs": [],
      "stateMutability": "nonpayable",
      "type": "function"
    },
    {
      "inputs": [
        {
          "internalType": "address",
          "name": "operator",
          "type": "address"
        }
      ],
      "name": "getNode",
      "outputs": [
        {
          "internalType": "string",
          "name": "",
          "type": "string"
        }
      ],
      "stateMutability": "view",
      "type": "function"
    },
    {
      "inputs": [],
      "name": "getNodeOperators",
      "outputs": [
        {
          "internalType": "address[]",
          "name": "",
          "type": "address[]"
        }
      ],
      "stateMutability": "view",
      "type": "function"
    },
    {
      "inputs": [
        {
          "internalType": "address",
          "name": "party",
          "type": "address"
        }
      ],
      "name": "getOperatorByAddress",
      "outputs": [
        {
          "internalType": "address",
          "name": "operator",
          "type": "address"
        },
        {
          "internalType": "string",
          "name": "domain",
          "type": "string"
        }
      ],
      "stateMutability": "view",
      "type": "function"
    },
    {
      "inputs": [
        {
          "internalType": "bytes2",
          "name": "countryCode",
          "type": "bytes2"
        },
        {
          "internalType": "bytes3",
          "name": "partyId",
          "type": "bytes3"
        }
      ],
      "name": "getOperatorByOcpi",
      "outputs": [
        {
          "internalType": "address",
          "name": "operator",
          "type": "address"
        },
        {
          "internalType": "string",
          "name": "domain",
          "type": "string"
        }
      ],
      "stateMutability": "view",
      "type": "function"
    },
    {
      "inputs": [],
      "name": "getParties",
      "outputs": [
        {
          "internalType": "address[]",
          "name": "",
          "type": "address[]"
        }
      ],
      "stateMutability": "view",
      "type": "function"
    },
    {
      "inputs": [
        {
          "internalType": "address",
          "name": "partyAddress",
          "type": "address"
        }
      ],
      "name": "getPartyDetailsByAddress",
      "outputs": [
        {
          "internalType": "bytes2",
          "name": "countryCode",
          "type": "bytes2"
        },
        {
          "internalType": "bytes3",
          "name": "partyId",
          "type": "bytes3"
        },
        {
          "internalType": "enum OcnRegistry.Role[]",
          "name": "roles",
          "type": "uint8[]"
        },
        {
          "internalType": "enum IOcnPaymentManager.PaymentStatus",
          "name": "paymentStatus",
          "type": "uint8"
        },
        {
          "internalType": "address",
          "name": "operatorAddress",
          "type": "address"
        },
        {
          "internalType": "string",
          "name": "operatorDomain",
          "type": "string"
        }
      ],
      "stateMutability": "view",
      "type": "function"
    },
    {
      "inputs": [
        {
          "internalType": "bytes2",
          "name": "countryCode",
          "type": "bytes2"
        },
        {
          "internalType": "bytes3",
          "name": "partyId",
          "type": "bytes3"
        }
      ],
      "name": "getPartyDetailsByOcpi",
      "outputs": [
        {
          "internalType": "address",
          "name": "partyAddress",
          "type": "address"
        },
        {
          "internalType": "enum OcnRegistry.Role[]",
          "name": "roles",
          "type": "uint8[]"
        },
        {
          "internalType": "address",
          "name": "operatorAddress",
          "type": "address"
        },
        {
          "internalType": "string",
          "name": "operatorDomain",
          "type": "string"
        }
      ],
      "stateMutability": "view",
      "type": "function"
    },
    {
      "inputs": [
        {
          "internalType": "bytes32",
          "name": "role",
          "type": "bytes32"
        }
      ],
      "name": "getRoleAdmin",
      "outputs": [
        {
          "internalType": "bytes32",
          "name": "",
          "type": "bytes32"
        }
      ],
      "stateMutability": "view",
      "type": "function"
    },
    {
      "inputs": [
        {
          "internalType": "bytes32",
          "name": "role",
          "type": "bytes32"
        },
        {
          "internalType": "address",
          "name": "account",
          "type": "address"
        }
      ],
      "name": "grantRole",
      "outputs": [],
      "stateMutability": "nonpayable",
      "type": "function"
    },
    {
      "inputs": [
        {
          "internalType": "bytes32",
          "name": "role",
          "type": "bytes32"
        },
        {
          "internalType": "address",
          "name": "account",
          "type": "address"
        }
      ],
      "name": "hasRole",
      "outputs": [
        {
          "internalType": "bool",
          "name": "",
          "type": "bool"
        }
      ],
      "stateMutability": "view",
      "type": "function"
    },
    {
      "inputs": [],
      "name": "paymentManager",
      "outputs": [
        {
          "internalType": "contract IOcnPaymentManager",
          "name": "",
          "type": "address"
        }
      ],
      "stateMutability": "view",
      "type": "function"
    },
    {
      "inputs": [
        {
          "internalType": "bytes32",
          "name": "role",
          "type": "bytes32"
        },
        {
          "internalType": "address",
          "name": "callerConfirmation",
          "type": "address"
        }
      ],
      "name": "renounceRole",
      "outputs": [],
      "stateMutability": "nonpayable",
      "type": "function"
    },
    {
      "inputs": [
        {
          "internalType": "bytes32",
          "name": "role",
          "type": "bytes32"
        },
        {
          "internalType": "address",
          "name": "account",
          "type": "address"
        }
      ],
      "name": "revokeRole",
      "outputs": [],
      "stateMutability": "nonpayable",
      "type": "function"
    },
    {
      "inputs": [
        {
          "internalType": "string",
          "name": "domain",
          "type": "string"
        }
      ],
      "name": "setNode",
      "outputs": [],
      "stateMutability": "nonpayable",
      "type": "function"
    },
    {
      "inputs": [
        {
          "internalType": "address",
          "name": "operator",
          "type": "address"
        },
        {
          "internalType": "string",
          "name": "domain",
          "type": "string"
        },
        {
          "internalType": "uint8",
          "name": "v",
          "type": "uint8"
        },
        {
          "internalType": "bytes32",
          "name": "r",
          "type": "bytes32"
        },
        {
          "internalType": "bytes32",
          "name": "s",
          "type": "bytes32"
        }
      ],
      "name": "setNodeRaw",
      "outputs": [],
      "stateMutability": "nonpayable",
      "type": "function"
    },
    {
      "inputs": [
        {
          "internalType": "bytes2",
          "name": "countryCode",
          "type": "bytes2"
        },
        {
          "internalType": "bytes3",
          "name": "partyId",
          "type": "bytes3"
        },
        {
          "internalType": "enum OcnRegistry.Role[]",
          "name": "roles",
          "type": "uint8[]"
        },
        {
          "internalType": "address",
          "name": "operator",
          "type": "address"
        },
        {
          "internalType": "string",
          "name": "name",
          "type": "string"
        },
        {
          "internalType": "string",
          "name": "url",
          "type": "string"
        }
      ],
      "name": "setParty",
      "outputs": [],
      "stateMutability": "nonpayable",
      "type": "function"
    },
    {
      "inputs": [
        {
          "internalType": "address",
          "name": "party",
          "type": "address"
        },
        {
          "internalType": "bytes2",
          "name": "countryCode",
          "type": "bytes2"
        },
        {
          "internalType": "bytes3",
          "name": "partyId",
          "type": "bytes3"
        },
        {
          "internalType": "enum OcnRegistry.Role[]",
          "name": "roles",
          "type": "uint8[]"
        },
        {
          "internalType": "address",
          "name": "operator",
          "type": "address"
        },
        {
          "internalType": "string",
          "name": "name",
          "type": "string"
        },
        {
          "internalType": "string",
          "name": "url",
          "type": "string"
        },
        {
          "internalType": "uint8",
          "name": "v",
          "type": "uint8"
        },
        {
          "internalType": "bytes32",
          "name": "r",
          "type": "bytes32"
        },
        {
          "internalType": "bytes32",
          "name": "s",
          "type": "bytes32"
        }
      ],
      "name": "setPartyRaw",
      "outputs": [],
      "stateMutability": "nonpayable",
      "type": "function"
    },
    {
      "inputs": [
        {
          "internalType": "bytes4",
          "name": "interfaceId",
          "type": "bytes4"
        }
      ],
      "name": "supportsInterface",
      "outputs": [
        {
          "internalType": "bool",
          "name": "",
          "type": "bool"
        }
      ],
      "stateMutability": "view",
      "type": "function"
    },
    {
      "inputs": [
        {
          "internalType": "address",
          "name": "newOwner",
          "type": "address"
        }
      ],
      "name": "transferOwnership",
      "outputs": [],
      "stateMutability": "nonpayable",
      "type": "function"
    },
    {
      "inputs": [
        {
          "internalType": "address",
          "name": "party",
          "type": "address"
        }
      ],
      "name": "updatePaymentStatus",
      "outputs": [],
      "stateMutability": "nonpayable",
      "type": "function"
    }
  ],
  "transactionHash": "0x438ce8fde115148f3ff79e0c292c1241917e2a1e1165b329bba2c45bbfa4f565",
  "args": [
    "0xbc85e5F9C0Baa7664e2edb22896d098F3000e8e4"
  ],
  "numDeployments": 1,
  "solcInputHash": "a028ab57c4b31eaedf398d63e62a075a",
  "bytecode": "0x60806040523480156200001157600080fd5b50604051620031c3380380620031c3833981016040819052620000349162000157565b60408051808201909152601c81527f19457468657265756d205369676e6564204d6573736167653a0a33320000000060208201526001906200007790826200022e565b50600b80546001600160a01b0319166001600160a01b038316179055620000a0600033620000a8565b5050620002fa565b6000828152602081815260408083206001600160a01b038516845290915281205460ff166200014d576000838152602081815260408083206001600160a01b03861684529091529020805460ff19166001179055620001043390565b6001600160a01b0316826001600160a01b0316847f2f8788117e7eff1d82e926ec794901d17c78024a50270940304540a733656f0d60405160405180910390a450600162000151565b5060005b92915050565b6000602082840312156200016a57600080fd5b81516001600160a01b03811681146200018257600080fd5b9392505050565b634e487b7160e01b600052604160045260246000fd5b600181811c90821680620001b457607f821691505b602082108103620001d557634e487b7160e01b600052602260045260246000fd5b50919050565b601f8211156200022957600081815260208120601f850160051c81016020861015620002045750805b601f850160051c820191505b81811015620002255782815560010162000210565b5050505b505050565b81516001600160401b038111156200024a576200024a62000189565b62000262816200025b84546200019f565b84620001db565b602080601f8311600181146200029a5760008415620002815750858301515b600019600386901b1c1916600185901b17855562000225565b600085815260208120601f198616915b82811015620002cb57888601518255948401946001909101908401620002aa565b5085821015620002ea5787850151600019600388901b60f8161c191681555b5050505050600190811b01905550565b612eb9806200030a6000396000f3fe608060405234801561001057600080fd5b50600436106101a95760003560e01c806391d14854116100f9578063aee1fe4911610097578063d547741f11610071578063d547741f146103b1578063d63a84d4146103c4578063df516128146103d7578063f2fde38b146103fc57600080fd5b8063aee1fe491461036b578063bdb8107814610396578063c6a1b9961461039e57600080fd5b8063a217fddf116100d3578063a217fddf14610330578063a5b5ffbb14610338578063a8311aa81461035b578063acaef0e01461036357600080fd5b806391d14854146102ea57806399bd6901146102fd5780639d2090481461031057600080fd5b806366acaa33116101665780637a091aa5116101405780637a091aa51461029057806385cb8602146102b157806388857204146102c457806388cf72a0146102d757600080fd5b806366acaa331461025557806366e706fb1461026a5780636c265bbc1461027d57600080fd5b806301ffc9a7146101ae578063248a9ca3146101d65780632d8fe452146102075780632f2ff15d1461021c57806336568abe1461022f5780635140b71c14610242575b600080fd5b6101c16101bc366004612453565b61040f565b60405190151581526020015b60405180910390f35b6101f96101e4366004612484565b60009081526020819052604090206001015490565b6040519081526020016101cd565b61021a6102153660046124b9565b610446565b005b61021a61022a3660046124d4565b61045e565b61021a61023d3660046124d4565b610489565b61021a610250366004612686565b6104c1565b61025d6105cc565b6040516101cd9190612777565b61021a6102783660046127c4565b61062e565b61021a61028b3660046127c4565b61072b565b6102a361029e366004612806565b6107ef565b6040516101cd929190612880565b61021a6102bf3660046128ac565b6108dc565b61021a6102d23660046124b9565b6108e9565b6102a36102e53660046124b9565b61099b565b6101c16102f83660046124d4565b610a5a565b61021a61030b3660046128e1565b610a83565b61032361031e3660046124b9565b610b44565b6040516101cd9190612951565b6101f9600081565b61034b610346366004612806565b610bf0565b6040516101cd94939291906129d0565b61025d610f5d565b61021a610fbd565b600b5461037e906001600160a01b031681565b6040516001600160a01b0390911681526020016101cd565b61021a610fc8565b61021a6103ac366004612a18565b610fd1565b61021a6103bf3660046124d4565b610fe0565b61021a6103d2366004612806565b611005565b6103ea6103e53660046124b9565b611051565b6040516101cd96959493929190612ad1565b61021a61040a3660046124b9565b6113f1565b60006001600160e01b03198216637965db0b60e01b148061044057506301ffc9a760e01b6001600160e01b03198316145b92915050565b600061045181611412565b61045a8261141c565b5050565b60008281526020819052604090206001015461047981611412565b61048383836115c2565b50505050565b6001600160a01b03811633146104b25760405163334bd91960e11b815260040160405180910390fd5b6104bc8282611654565b505050565b60008a8a8a8a8a6040516020016104dc959493929190612b4b565b60405160208183030381529060405280519060200120905060006001808360405160200161050b929190612c03565b60408051601f198184030181528282528051602091820120600084529083018083525260ff881690820152606081018690526080810185905260a0016020604051602081039080840390855afa158015610569573d6000803e3d6000fd5b5050506020604051035190508b6001600160a01b0316816001600160a01b0316146105af5760405162461bcd60e51b81526004016105a690612c7e565b60405180910390fd5b6105be818c8c8c8c8c8c6116bf565b505050505050505050505050565b6060600580548060200260200160405190810160405280929190818152602001828054801561062457602002820191906000526020600020905b81546001600160a01b03168152600190910190602001808311610606575b5050505050905090565b6040516bffffffffffffffffffffffff19606086901b16602082015260009060340160405160208183030381529060405280519060200120905060006001808360405160200161067f929190612c03565b60408051601f198184030181528282528051602091820120600084529083018083525260ff881690820152606081018690526080810185905260a0016020604051602081039080840390855afa1580156106dd573d6000803e3d6000fd5b505050602060405103519050856001600160a01b0316816001600160a01b03161461071a5760405162461bcd60e51b81526004016105a690612c7e565b61072381611ce1565b505050505050565b6040516bffffffffffffffffffffffff19606086901b16602082015260009060340160405160208183030381529060405280519060200120905060006001808360405160200161077c929190612c03565b60408051601f198184030181528282528051602091820120600084529083018083525260ff881690820152606081018690526080810185905260a0016020604051602081039080840390855afa1580156107da573d6000803e3d6000fd5b5050506020604051035190506107238161141c565b6001600160f01b0319821660009081526006602090815260408083206001600160e81b0319851684528252808320546001600160a01b039081168085526009845282852054909116808552600290935292208054919260609290919061085490612bc9565b80601f016020809104026020016040519081016040528092919081815260200182805461088090612bc9565b80156108cd5780601f106108a2576101008083540402835291602001916108cd565b820191906000526020600020905b8154815290600101906020018083116108b057829003601f168201915b50505050509150509250929050565b6108e633826120fc565b50565b600b54604051632222c8a160e21b81526001600160a01b038381166004830152600092169063888b228490602401602060405180830381865afa158015610934573d6000803e3d6000fd5b505050506040513d601f19601f820116820180604052508101906109589190612cca565b6001600160a01b03831660009081526008602052604090206004018054919250829160ff1916600183600381111561099257610992612964565b02179055505050565b6001600160a01b0380821660009081526009602090815260408083205490931680835260029091529190208054606091906109d590612bc9565b80601f0160208091040260200160405190810160405280929190818152602001828054610a0190612bc9565b8015610a4e5780601f10610a2357610100808354040283529160200191610a4e565b820191906000526020600020905b815481529060010190602001808311610a3157829003601f168201915b50505050509050915091565b6000918252602082815260408084206001600160a01b0393909316845291905290205460ff1690565b60008585604051602001610a98929190612ceb565b604051602081830303815290604052805190602001209050600060018083604051602001610ac7929190612c03565b60408051601f198184030181528282528051602091820120600084529083018083525260ff881690820152606081018690526080810185905260a0016020604051602081039080840390855afa158015610b25573d6000803e3d6000fd5b505050602060405103519050610b3b81876120fc565b50505050505050565b6001600160a01b0381166000908152600260205260409020805460609190610b6b90612bc9565b80601f0160208091040260200160405190810160405280929190818152602001828054610b9790612bc9565b8015610be45780601f10610bb957610100808354040283529160200191610be4565b820191906000526020600020905b815481529060010190602001808311610bc757829003601f168201915b50505050509050919050565b6001600160f01b031980831660009081526006602090815260408083206001600160e81b03198087168552908352818420546001600160a01b031680855260088452828520835161010081018552815460f081901b90981681526201000090970460e81b9092168685015260018201805484518187028101870186528181529297606097968896889692959294908601939091830182828015610ce257602002820191906000526020600020906000905b82829054906101000a900460ff166006811115610cc057610cc0612964565b815260206001928301818104948501949093039092029101808411610ca15790505b50505050508152602001600282018054610cfb90612bc9565b80601f0160208091040260200160405190810160405280929190818152602001828054610d2790612bc9565b8015610d745780601f10610d4957610100808354040283529160200191610d74565b820191906000526020600020905b815481529060010190602001808311610d5757829003601f168201915b50505050508152602001600382018054610d8d90612bc9565b80601f0160208091040260200160405190810160405280929190818152602001828054610db990612bc9565b8015610e065780601f10610ddb57610100808354040283529160200191610e06565b820191906000526020600020905b815481529060010190602001808311610de957829003601f168201915b5050509183525050600482015460209091019060ff166003811115610e2d57610e2d612964565b6003811115610e3e57610e3e612964565b81526020016004820160019054906101000a900460ff166002811115610e6657610e66612964565b6002811115610e7757610e77612964565b81526004919091015462010000900460ff1615156020918201526040828101516001600160a01b0389811660009081526009855283812054909116808252600290945291909120805491975091955091925090610ed390612bc9565b80601f0160208091040260200160405190810160405280929190818152602001828054610eff90612bc9565b8015610f4c5780601f10610f2157610100808354040283529160200191610f4c565b820191906000526020600020905b815481529060010190602001808311610f2f57829003601f168201915b505050505091505092959194509250565b6060600a805480602002602001604051908101604052809291908181526020018280548015610624576020028201919060005260206000209081546001600160a01b03168152600190910190602001808311610606575050505050905090565b610fc63361141c565b565b610fc633611ce1565b610723338787878787876116bf565b600082815260208190526040902060010154610ffb81611412565b6104838383611654565b600061101081611412565b6001600160f01b0319831660009081526006602090815260408083206001600160e81b0319861684529091529020546001600160a01b031661048381611ce1565b6001600160a01b0381166000908152600860209081526040808320815161010081018352815460f081901b6001600160f01b031916825262010000900460e81b6001600160e81b03191681850152600182018054845181870281018701865281815287966060968896879689968896919592949386019390919083018282801561112a57602002820191906000526020600020906000905b82829054906101000a900460ff16600681111561110857611108612964565b8152602060019283018181049485019490930390920291018084116110e95790505b5050505050815260200160028201805461114390612bc9565b80601f016020809104026020016040519081016040528092919081815260200182805461116f90612bc9565b80156111bc5780601f10611191576101008083540402835291602001916111bc565b820191906000526020600020905b81548152906001019060200180831161119f57829003601f168201915b505050505081526020016003820180546111d590612bc9565b80601f016020809104026020016040519081016040528092919081815260200182805461120190612bc9565b801561124e5780601f106112235761010080835404028352916020019161124e565b820191906000526020600020905b81548152906001019060200180831161123157829003601f168201915b5050509183525050600482015460209091019060ff16600381111561127557611275612964565b600381111561128657611286612964565b81526020016004820160019054906101000a900460ff1660028111156112ae576112ae612964565b60028111156112bf576112bf612964565b81526020016004820160029054906101000a900460ff16151515158152505090508060000151965080602001519550806040015194508060a00151935060096000896001600160a01b03166001600160a01b0316815260200190815260200160002060009054906101000a90046001600160a01b0316925060026000846001600160a01b03166001600160a01b03168152602001908152602001600020805461136790612bc9565b80601f016020809104026020016040519081016040528092919081815260200182805461139390612bc9565b80156113e05780601f106113b5576101008083540402835291602001916113e0565b820191906000526020600020905b8154815290600101906020018083116113c357829003601f168201915b505050505091505091939550919395565b60006113fc81611412565b61140760008361045e565b61045a600033610fe0565b6108e681336122f6565b6001600160a01b0381166000908152600260205260408120805461143f90612bc9565b80601f016020809104026020016040519081016040528092919081815260200182805461146b90612bc9565b80156114b85780601f1061148d576101008083540402835291602001916114b8565b820191906000526020600020905b81548152906001019060200180831161149b57829003601f168201915b5050505050905060008151116115205760405162461bcd60e51b815260206004820152602760248201527f43616e6e6f742064656c657465206e6f6465207468617420646f6573206e6f746044820152661032bc34b9ba1760c91b60648201526084016105a6565b60006003826040516115329190612d23565b9081526040805160209281900383019020805460ff1916931515939093179092556001600160a01b038416600090815260029091529081206115739161232f565b816001600160a01b03167fb1f254c0ae74a753185ba13a1b17818bc803e32d05ef56851955c0ebf230f0d66040516115b690602080825260009082015260400190565b60405180910390a25050565b60006115ce8383610a5a565b61164c576000838152602081815260408083206001600160a01b03861684529091529020805460ff191660011790556116043390565b6001600160a01b0316826001600160a01b0316847f2f8788117e7eff1d82e926ec794901d17c78024a50270940304540a733656f0d60405160405180910390a4506001610440565b506000610440565b60006116608383610a5a565b1561164c576000838152602081815260408083206001600160a01b0386168085529252808320805460ff1916905551339286917ff6391f5c32d9c69d2a47ea670b442974b53935d1edc7fd64eb21e047a839171b9190a4506001610440565b6001600160f01b0319861661173c5760405162461bcd60e51b815260206004820152603e60248201527f43616e6e6f742073657420656d70747920636f756e7472795f636f64652e205560448201527f73652064656c6574655061727479206d6574686f6420696e73746561642e000060648201526084016105a6565b6001600160e81b031985166117b95760405162461bcd60e51b815260206004820152603a60248201527f43616e6e6f742073657420656d7074792070617274795f69642e20557365206460448201527f656c6574655061727479206d6574686f6420696e73746561642e00000000000060648201526084016105a6565b60008451116117ff5760405162461bcd60e51b81526020600482015260126024820152712737903937b632b990383937bb34b232b21760711b60448201526064016105a6565b6001600160a01b03831661187b5760405162461bcd60e51b815260206004820152603a60248201527f43616e6e6f742073657420656d707479206f70657261746f722e20557365206460448201527f656c6574655061727479206d6574686f6420696e73746561642e00000000000060648201526084016105a6565b6001600160f01b0319861660009081526006602090815260408083206001600160e81b0319891684529091529020546001600160a01b03168015806118d15750876001600160a01b0316816001600160a01b0316145b6119585760405162461bcd60e51b815260206004820152604c60248201527f5061727479207769746820636f756e7472795f636f64652f70617274795f696460448201527f20616c7265616479207265676973746572656420756e6465722064696666657260648201526b32b73a1030b2323932b9b99760a11b608482015260a4016105a6565b6001600160f01b0319871660009081526006602090815260408083206001600160e81b03198a168452825280832080546001600160a01b0319166001600160a01b038d811691909117909155871683526002909152902080546119ba90612bc9565b9050600003611a155760405162461bcd60e51b815260206004820152602160248201527f50726f7669646564206f70657261746f72206e6f7420726567697374657265646044820152601760f91b60648201526084016105a6565b6001600160a01b03881660009081526007602052604081205460ff1615159003611a8557600a80546001810182556000919091527fc65a7bb8d6351c1cf70c95a316cc6a92839c986682d98bc35f958f4883f9d2a80180546001600160a01b0319166001600160a01b038a161790555b6001600160a01b03888116600081815260076020526040808220805460ff19166001179055600b549051632222c8a160e21b815260048101939093529092169063888b228490602401602060405180830381865afa158015611aeb573d6000803e3d6000fd5b505050506040513d601f19601f82011682018060405250810190611b0f9190612cca565b9050604051806101000160405280896001600160f01b0319168152602001886001600160e81b0319168152602001878152602001858152602001848152602001826003811115611b6157611b61612964565b815260200160008152600160209182018190526001600160a01b038c16600090815260088352604090819020845181548686015160e81c620100000264ffffffffff1990911660f09290921c919091171781559084015180519193611bcb93850192910190612369565b5060608201516002820190611be09082612d85565b5060808201516003820190611bf59082612d85565b5060a082015160048201805460ff19166001836003811115611c1957611c19612964565b021790555060c082015160048201805461ff001916610100836002811115611c4357611c43612964565b021790555060e0919091015160049091018054911515620100000262ff0000199092169190911790556001600160a01b03808a166000818152600960205260409081902080549389166001600160a01b031990941684179055517f736c294392ae52241c1dfdf7bde0e86e54fea40d8303157119cb0e8d5855225990611cce908c908c908c90612e45565b60405180910390a3505050505050505050565b6001600160a01b0381811660009081526009602052604090205416611d825760405162461bcd60e51b815260206004820152604b60248201527f43616e6e6f742064656c657465207061727479207468617420646f6573206e6f60448201527f742065786973742e204e6f206f70657261746f7220666f756e6420666f72206760648201526a34bb32b7103830b93a3c9760a91b608482015260a4016105a6565b6001600160a01b038116600090815260096020908152604080832080546001600160a01b031916905560088252808320815161010081018352815460f081901b6001600160f01b031916825262010000900460e81b6001600160e81b03191681850152600182018054845181870281018701865281815292959394860193830182828015611e5f57602002820191906000526020600020906000905b82829054906101000a900460ff166006811115611e3d57611e3d612964565b815260206001928301818104948501949093039092029101808411611e1e5790505b50505050508152602001600282018054611e7890612bc9565b80601f0160208091040260200160405190810160405280929190818152602001828054611ea490612bc9565b8015611ef15780601f10611ec657610100808354040283529160200191611ef1565b820191906000526020600020905b815481529060010190602001808311611ed457829003601f168201915b50505050508152602001600382018054611f0a90612bc9565b80601f0160208091040260200160405190810160405280929190818152602001828054611f3690612bc9565b8015611f835780601f10611f5857610100808354040283529160200191611f83565b820191906000526020600020905b815481529060010190602001808311611f6657829003601f168201915b5050509183525050600482015460209091019060ff166003811115611faa57611faa612964565b6003811115611fbb57611fbb612964565b81526020016004820160019054906101000a900460ff166002811115611fe357611fe3612964565b6002811115611ff457611ff4612964565b81526004919091015462010000900460ff16151560209182015281516001600160f01b0319166000908152600682526040808220848401516001600160e81b0319168352835280822080546001600160a01b03191690556001600160a01b03861682526008909252908120805464ffffffffff1916815591925061207b600183018261241d565b61208960028301600061232f565b61209760038301600061232f565b50600401805462ffffff19169055805160208201516040516060926000926001600160a01b038716927f736c294392ae52241c1dfdf7bde0e86e54fea40d8303157119cb0e8d58552259926120ef9290918790612e45565b60405180910390a3505050565b80516000036121735760405162461bcd60e51b815260206004820152603c60248201527f43616e6e6f742073657420656d70747920646f6d61696e206e616d652e20557360448201527f652064656c6574654e6f6465206d6574686f6420696e73746561642e0000000060648201526084016105a6565b6003816040516121839190612d23565b9081526040519081900360200190205460ff16156121e35760405162461bcd60e51b815260206004820152601f60248201527f446f6d61696e206e616d6520616c726561647920726567697374657265642e0060448201526064016105a6565b60016003826040516121f59190612d23565b9081526040805160209281900383019020805460ff1916931515939093179092556001600160a01b038416600090815260049091529081205460ff161515900361228557600580546001810182556000919091527f036b6384b5eca791c62761152d0c79bb0604c104a5fb6f4eb0703f3154bb3db00180546001600160a01b0319166001600160a01b0384161790555b6001600160a01b0382166000908152600460209081526040808320805460ff19166001179055600290915290206122bc8282612d85565b50816001600160a01b03167fb1f254c0ae74a753185ba13a1b17818bc803e32d05ef56851955c0ebf230f0d6826040516115b69190612951565b6123008282610a5a565b61045a5760405163e2517d3f60e01b81526001600160a01b0382166004820152602481018390526044016105a6565b50805461233b90612bc9565b6000825580601f1061234b575050565b601f0160209004906000526020600020908101906108e6919061243e565b82805482825590600052602060002090601f0160209004810192821561240d5791602002820160005b838211156123de57835183826101000a81548160ff021916908360068111156123bd576123bd612964565b02179055509260200192600101602081600001049283019260010302612392565b801561240b5782816101000a81549060ff02191690556001016020816000010492830192600103026123de565b505b5061241992915061243e565b5090565b50805460008255601f0160209004906000526020600020908101906108e691905b5b80821115612419576000815560010161243f565b60006020828403121561246557600080fd5b81356001600160e01b03198116811461247d57600080fd5b9392505050565b60006020828403121561249657600080fd5b5035919050565b80356001600160a01b03811681146124b457600080fd5b919050565b6000602082840312156124cb57600080fd5b61247d8261249d565b600080604083850312156124e757600080fd5b823591506124f76020840161249d565b90509250929050565b80356001600160f01b0319811681146124b457600080fd5b80356001600160e81b0319811681146124b457600080fd5b634e487b7160e01b600052604160045260246000fd5b604051601f8201601f1916810167ffffffffffffffff8111828210171561256f5761256f612530565b604052919050565b600082601f83011261258857600080fd5b8135602067ffffffffffffffff8211156125a4576125a4612530565b8160051b6125b3828201612546565b92835284810182019282810190878511156125cd57600080fd5b83870192505b848310156125fa578235600781106125eb5760008081fd5b825291830191908301906125d3565b979650505050505050565b600082601f83011261261657600080fd5b813567ffffffffffffffff81111561263057612630612530565b612643601f8201601f1916602001612546565b81815284602083860101111561265857600080fd5b816020850160208301376000918101602001919091529392505050565b803560ff811681146124b457600080fd5b6000806000806000806000806000806101408b8d0312156126a657600080fd5b6126af8b61249d565b99506126bd60208c01612500565b98506126cb60408c01612518565b975060608b013567ffffffffffffffff808211156126e857600080fd5b6126f48e838f01612577565b985061270260808e0161249d565b975060a08d013591508082111561271857600080fd5b6127248e838f01612605565b965060c08d013591508082111561273a57600080fd5b506127478d828e01612605565b94505061275660e08c01612675565b92506101008b013591506101208b013590509295989b9194979a5092959850565b6020808252825182820181905260009190848201906040850190845b818110156127b85783516001600160a01b031683529284019291840191600101612793565b50909695505050505050565b600080600080608085870312156127da57600080fd5b6127e38561249d565b93506127f160208601612675565b93969395505050506040820135916060013590565b6000806040838503121561281957600080fd5b61282283612500565b91506124f760208401612518565b60005b8381101561284b578181015183820152602001612833565b50506000910152565b6000815180845261286c816020860160208601612830565b601f01601f19169290920160200192915050565b6001600160a01b03831681526040602082018190526000906128a490830184612854565b949350505050565b6000602082840312156128be57600080fd5b813567ffffffffffffffff8111156128d557600080fd5b6128a484828501612605565b600080600080600060a086880312156128f957600080fd5b6129028661249d565b9450602086013567ffffffffffffffff81111561291e57600080fd5b61292a88828901612605565b94505061293960408701612675565b94979396509394606081013594506080013592915050565b60208152600061247d6020830184612854565b634e487b7160e01b600052602160045260246000fd5b6007811061298a5761298a612964565b9052565b600081518084526020808501945080840160005b838110156129c5576129b587835161297a565b95820195908201906001016129a2565b509495945050505050565b600060018060a01b038087168352608060208401526129f2608084018761298e565b81861660408501528381036060850152612a0c8186612854565b98975050505050505050565b60008060008060008060c08789031215612a3157600080fd5b612a3a87612500565b9550612a4860208801612518565b9450604087013567ffffffffffffffff80821115612a6557600080fd5b612a718a838b01612577565b9550612a7f60608a0161249d565b94506080890135915080821115612a9557600080fd5b612aa18a838b01612605565b935060a0890135915080821115612ab757600080fd5b50612ac489828a01612605565b9150509295509295509295565b6001600160f01b0319871681526001600160e81b03198616602082015260c060408201819052600090612b069083018761298e565b60048610612b1657612b16612964565b606083018690526001600160a01b038516608084015282810360a0840152612b3e8185612854565b9998505050505050505050565b60006bffffffffffffffffffffffff19808860601b16835261ffff60f01b8716601484015262ffffff60e81b86166016840152601983018551602080880160005b83811015612baf57612b9f85835161297a565b9382019390820190600101612b8c565b5050505060609490941b1683525050601401949350505050565b600181811c90821680612bdd57607f821691505b602082108103612bfd57634e487b7160e01b600052602260045260246000fd5b50919050565b6000808454612c1181612bc9565b60018281168015612c295760018114612c3e57612c6d565b60ff1984168752821515830287019450612c6d565b8860005260208060002060005b85811015612c645781548a820152908401908201612c4b565b50505082870194505b505050938152602001949350505050565b6020808252602c908201527f5369676e657220616e642070726f76696465642070617274792061646472657360408201526b39903234b33332b932b73a1760a11b606082015260800190565b600060208284031215612cdc57600080fd5b81516004811061247d57600080fd5b6bffffffffffffffffffffffff198360601b16815260008251612d15816014850160208701612830565b919091016014019392505050565b60008251612d35818460208701612830565b9190910192915050565b601f8211156104bc57600081815260208120601f850160051c81016020861015612d665750805b601f850160051c820191505b8181101561072357828155600101612d72565b815167ffffffffffffffff811115612d9f57612d9f612530565b612db381612dad8454612bc9565b84612d3f565b602080601f831160018114612de85760008415612dd05750858301515b600019600386901b1c1916600185901b178555610723565b600085815260208120601f198616915b82811015612e1757888601518255948401946001909101908401612df8565b5085821015612e355787850151600019600388901b60f8161c191681555b5050505050600190811b01905550565b6001600160f01b0319841681526001600160e81b031983166020820152606060408201819052600090612e7a9083018461298e565b9594505050505056fea2646970667358221220e4d8c7a3f48acd35bbd0aa71db01b9f3ac28d78e43fad2d25d1e0460f7dad44164736f6c63430008140033",
  "devdoc": {
    "errors": {
      "AccessControlBadConfirmation()": [
        {
          "details": "The caller of a function is not the expected one. NOTE: Don't confuse with {AccessControlUnauthorizedAccount}."
        }
      ],
      "AccessControlUnauthorizedAccount(address,bytes32)": [
        {
          "details": "The `account` is missing a role."
        }
      ]
    },
    "events": {
      "RoleAdminChanged(bytes32,bytes32,bytes32)": {
        "details": "Emitted when `newAdminRole` is set as ``role``'s admin role, replacing `previousAdminRole` `DEFAULT_ADMIN_ROLE` is the starting admin for all roles, despite {RoleAdminChanged} not being emitted signaling this."
      },
      "RoleGranted(bytes32,address,address)": {
        "details": "Emitted when `account` is granted `role`. `sender` is the account that originated the contract call, an admin role bearer except when using {AccessControl-_setupRole}."
      },
      "RoleRevoked(bytes32,address,address)": {
        "details": "Emitted when `account` is revoked `role`. `sender` is the account that originated the contract call:   - if using `revokeRole`, it is the admin role bearer   - if using `renounceRole`, it is the role bearer (i.e. `account`)"
      }
    },
    "kind": "dev",
    "methods": {
      "getRoleAdmin(bytes32)": {
        "details": "Returns the admin role that controls `role`. See {grantRole} and {revokeRole}. To change a role's admin, use {_setRoleAdmin}."
      },
      "grantRole(bytes32,address)": {
        "details": "Grants `role` to `account`. If `account` had not been already granted `role`, emits a {RoleGranted} event. Requirements: - the caller must have ``role``'s admin role. May emit a {RoleGranted} event."
      },
      "hasRole(bytes32,address)": {
        "details": "Returns `true` if `account` has been granted `role`."
      },
      "renounceRole(bytes32,address)": {
        "details": "Revokes `role` from the calling account. Roles are often managed via {grantRole} and {revokeRole}: this function's purpose is to provide a mechanism for accounts to lose their privileges if they are compromised (such as when a trusted device is misplaced). If the calling account had been revoked `role`, emits a {RoleRevoked} event. Requirements: - the caller must be `callerConfirmation`. May emit a {RoleRevoked} event."
      },
      "revokeRole(bytes32,address)": {
        "details": "Revokes `role` from `account`. If `account` had been granted `role`, emits a {RoleRevoked} event. Requirements: - the caller must have ``role``'s admin role. May emit a {RoleRevoked} event."
      },
      "supportsInterface(bytes4)": {
        "details": "See {IERC165-supportsInterface}."
      }
    },
    "stateVariables": {
      "nodeOf": {
        "custom:oz-upgrades-unsafe-allow": "constructor"
      }
    },
    "version": 1
  },
  "userdoc": {
    "kind": "user",
    "methods": {
      "transferOwnership(address)": {
        "notice": "Called when Base Contract upgrades: iterate version   "
      }
    },
    "version": 1
  },
  "storageLayout": {
    "storage": [
      {
        "astId": 26,
        "contract": "contracts/OcnRegistry.sol:OcnRegistry",
        "label": "_roles",
        "offset": 0,
        "slot": "0",
        "type": "t_mapping(t_bytes32,t_struct(RoleData)21_storage)"
      },
      {
        "astId": 588,
        "contract": "contracts/OcnRegistry.sol:OcnRegistry",
        "label": "prefix",
        "offset": 0,
        "slot": "1",
        "type": "t_string_storage"
      },
      {
        "astId": 593,
        "contract": "contracts/OcnRegistry.sol:OcnRegistry",
        "label": "nodeOf",
        "offset": 0,
        "slot": "2",
        "type": "t_mapping(t_address,t_string_storage)"
      },
      {
        "astId": 597,
        "contract": "contracts/OcnRegistry.sol:OcnRegistry",
        "label": "uniqueDomains",
        "offset": 0,
        "slot": "3",
        "type": "t_mapping(t_string_memory_ptr,t_bool)"
      },
      {
        "astId": 601,
        "contract": "contracts/OcnRegistry.sol:OcnRegistry",
        "label": "uniqueOperators",
        "offset": 0,
        "slot": "4",
        "type": "t_mapping(t_address,t_bool)"
      },
      {
        "astId": 604,
        "contract": "contracts/OcnRegistry.sol:OcnRegistry",
        "label": "operators",
        "offset": 0,
        "slot": "5",
        "type": "t_array(t_address)dyn_storage"
      },
      {
        "astId": 651,
        "contract": "contracts/OcnRegistry.sol:OcnRegistry",
        "label": "uniqueParties",
        "offset": 0,
        "slot": "6",
        "type": "t_mapping(t_bytes2,t_mapping(t_bytes3,t_address))"
      },
      {
        "astId": 655,
        "contract": "contracts/OcnRegistry.sol:OcnRegistry",
        "label": "uniquePartyAddresses",
        "offset": 0,
        "slot": "7",
        "type": "t_mapping(t_address,t_bool)"
      },
      {
        "astId": 660,
        "contract": "contracts/OcnRegistry.sol:OcnRegistry",
        "label": "partyOf",
        "offset": 0,
        "slot": "8",
        "type": "t_mapping(t_address,t_struct(PartyDetails)645_storage)"
      },
      {
        "astId": 664,
        "contract": "contracts/OcnRegistry.sol:OcnRegistry",
        "label": "operatorOf",
        "offset": 0,
        "slot": "9",
        "type": "t_mapping(t_address,t_address)"
      },
      {
        "astId": 667,
        "contract": "contracts/OcnRegistry.sol:OcnRegistry",
        "label": "parties",
        "offset": 0,
        "slot": "10",
        "type": "t_array(t_address)dyn_storage"
      },
      {
        "astId": 670,
        "contract": "contracts/OcnRegistry.sol:OcnRegistry",
        "label": "paymentManager",
        "offset": 0,
        "slot": "11",
        "type": "t_contract(IOcnPaymentManager)580"
      }
    ],
    "types": {
      "t_address": {
        "encoding": "inplace",
        "label": "address",
        "numberOfBytes": "20"
      },
      "t_array(t_address)dyn_storage": {
        "base": "t_address",
        "encoding": "dynamic_array",
        "label": "address[]",
        "numberOfBytes": "32"
      },
      "t_array(t_enum(Role)612)dyn_storage": {
        "base": "t_enum(Role)612",
        "encoding": "dynamic_array",
        "label": "enum OcnRegistry.Role[]",
        "numberOfBytes": "32"
      },
      "t_bool": {
        "encoding": "inplace",
        "label": "bool",
        "numberOfBytes": "1"
      },
      "t_bytes2": {
        "encoding": "inplace",
        "label": "bytes2",
        "numberOfBytes": "2"
      },
      "t_bytes3": {
        "encoding": "inplace",
        "label": "bytes3",
        "numberOfBytes": "3"
      },
      "t_bytes32": {
        "encoding": "inplace",
        "label": "bytes32",
        "numberOfBytes": "32"
      },
      "t_contract(IOcnPaymentManager)580": {
        "encoding": "inplace",
        "label": "contract IOcnPaymentManager",
        "numberOfBytes": "20"
      },
      "t_enum(PaymentStatus)530": {
        "encoding": "inplace",
        "label": "enum IOcnPaymentManager.PaymentStatus",
        "numberOfBytes": "1"
      },
      "t_enum(Role)612": {
        "encoding": "inplace",
        "label": "enum OcnRegistry.Role",
        "numberOfBytes": "1"
      },
      "t_enum(VcStatus)624": {
        "encoding": "inplace",
        "label": "enum OcnRegistry.VcStatus",
        "numberOfBytes": "1"
      },
      "t_mapping(t_address,t_address)": {
        "encoding": "mapping",
        "key": "t_address",
        "label": "mapping(address => address)",
        "numberOfBytes": "32",
        "value": "t_address"
      },
      "t_mapping(t_address,t_bool)": {
        "encoding": "mapping",
        "key": "t_address",
        "label": "mapping(address => bool)",
        "numberOfBytes": "32",
        "value": "t_bool"
      },
      "t_mapping(t_address,t_string_storage)": {
        "encoding": "mapping",
        "key": "t_address",
        "label": "mapping(address => string)",
        "numberOfBytes": "32",
        "value": "t_string_storage"
      },
      "t_mapping(t_address,t_struct(PartyDetails)645_storage)": {
        "encoding": "mapping",
        "key": "t_address",
        "label": "mapping(address => struct OcnRegistry.PartyDetails)",
        "numberOfBytes": "32",
        "value": "t_struct(PartyDetails)645_storage"
      },
      "t_mapping(t_bytes2,t_mapping(t_bytes3,t_address))": {
        "encoding": "mapping",
        "key": "t_bytes2",
        "label": "mapping(bytes2 => mapping(bytes3 => address))",
        "numberOfBytes": "32",
        "value": "t_mapping(t_bytes3,t_address)"
      },
      "t_mapping(t_bytes3,t_address)": {
        "encoding": "mapping",
        "key": "t_bytes3",
        "label": "mapping(bytes3 => address)",
        "numberOfBytes": "32",
        "value": "t_address"
      },
      "t_mapping(t_bytes32,t_struct(RoleData)21_storage)": {
        "encoding": "mapping",
        "key": "t_bytes32",
        "label": "mapping(bytes32 => struct AccessControl.RoleData)",
        "numberOfBytes": "32",
        "value": "t_struct(RoleData)21_storage"
      },
      "t_mapping(t_string_memory_ptr,t_bool)": {
        "encoding": "mapping",
        "key": "t_string_memory_ptr",
        "label": "mapping(string => bool)",
        "numberOfBytes": "32",
        "value": "t_bool"
      },
      "t_string_memory_ptr": {
        "encoding": "bytes",
        "label": "string",
        "numberOfBytes": "32"
      },
      "t_string_storage": {
        "encoding": "bytes",
        "label": "string",
        "numberOfBytes": "32"
      },
      "t_struct(PartyDetails)645_storage": {
        "encoding": "inplace",
        "label": "struct OcnRegistry.PartyDetails",
        "members": [
          {
            "astId": 626,
            "contract": "contracts/OcnRegistry.sol:OcnRegistry",
            "label": "countryCode",
            "offset": 0,
            "slot": "0",
            "type": "t_bytes2"
          },
          {
            "astId": 628,
            "contract": "contracts/OcnRegistry.sol:OcnRegistry",
            "label": "partyId",
            "offset": 2,
            "slot": "0",
            "type": "t_bytes3"
          },
          {
            "astId": 632,
            "contract": "contracts/OcnRegistry.sol:OcnRegistry",
            "label": "roles",
            "offset": 0,
            "slot": "1",
            "type": "t_array(t_enum(Role)612)dyn_storage"
          },
          {
            "astId": 634,
            "contract": "contracts/OcnRegistry.sol:OcnRegistry",
            "label": "name",
            "offset": 0,
            "slot": "2",
            "type": "t_string_storage"
          },
          {
            "astId": 636,
            "contract": "contracts/OcnRegistry.sol:OcnRegistry",
            "label": "url",
            "offset": 0,
            "slot": "3",
            "type": "t_string_storage"
          },
          {
            "astId": 639,
            "contract": "contracts/OcnRegistry.sol:OcnRegistry",
            "label": "paymentStatus",
            "offset": 0,
            "slot": "4",
            "type": "t_enum(PaymentStatus)530"
          },
          {
            "astId": 642,
            "contract": "contracts/OcnRegistry.sol:OcnRegistry",
            "label": "vcStatus",
            "offset": 1,
            "slot": "4",
            "type": "t_enum(VcStatus)624"
          },
          {
            "astId": 644,
            "contract": "contracts/OcnRegistry.sol:OcnRegistry",
            "label": "active",
            "offset": 2,
            "slot": "4",
            "type": "t_bool"
          }
        ],
        "numberOfBytes": "160"
      },
      "t_struct(RoleData)21_storage": {
        "encoding": "inplace",
        "label": "struct AccessControl.RoleData",
        "members": [
          {
            "astId": 18,
            "contract": "contracts/OcnRegistry.sol:OcnRegistry",
            "label": "hasRole",
            "offset": 0,
            "slot": "0",
            "type": "t_mapping(t_address,t_bool)"
          },
          {
            "astId": 20,
            "contract": "contracts/OcnRegistry.sol:OcnRegistry",
            "label": "adminRole",
            "offset": 0,
            "slot": "1",
            "type": "t_bytes32"
          }
        ],
        "numberOfBytes": "64"
      }
    }
  }
}