{
  "address": "0xB22cDA9452d52e9D96138132fBAae15Fd8Ba5683",
  "abi": [
    {
      "inputs": [
        {
          "internalType": "address",
          "name": "_paymentManager",
          "type": "address"
        },
        {
          "internalType": "address",
          "name": "_certificateVerifier",
          "type": "address"
        }
      ],
      "stateMutability": "nonpayable",
      "type": "constructor"
    },
    {
      "inputs": [],
      "name": "AccessControlBadConfirmation",
      "type": "error"
    },
    {
      "inputs": [
        {
          "internalType": "address",
          "name": "account",
          "type": "address"
        },
        {
          "internalType": "bytes32",
          "name": "neededRole",
          "type": "bytes32"
        }
      ],
      "name": "AccessControlUnauthorizedAccount",
      "type": "error"
    },
    {
      "inputs": [
        {
          "internalType": "string",
          "name": "reason",
          "type": "string"
        }
      ],
      "name": "CerificateOwnerMismatch",
      "type": "error"
    },
    {
      "inputs": [
        {
          "internalType": "string",
          "name": "reason",
          "type": "string"
        }
      ],
      "name": "DomainNameAlreadyRegistered",
      "type": "error"
    },
    {
      "inputs": [
        {
          "internalType": "string",
          "name": "reason",
          "type": "string"
        }
      ],
      "name": "EmptyCountryCode",
      "type": "error"
    },
    {
      "inputs": [
        {
          "internalType": "string",
          "name": "reason",
          "type": "string"
        }
      ],
      "name": "EmptyDomainName",
      "type": "error"
    },
    {
      "inputs": [
        {
          "internalType": "string",
          "name": "reason",
          "type": "string"
        }
      ],
      "name": "EmptyOperator",
      "type": "error"
    },
    {
      "inputs": [
        {
          "internalType": "string",
          "name": "reason",
          "type": "string"
        }
      ],
      "name": "EmptyPartyId",
      "type": "error"
    },
    {
      "inputs": [
        {
          "internalType": "address",
          "name": "verifier",
          "type": "address"
        },
        {
          "internalType": "string",
          "name": "reason",
          "type": "string"
        }
      ],
      "name": "InvalidCertificate",
      "type": "error"
    },
    {
      "inputs": [
        {
          "internalType": "string",
          "name": "reason",
          "type": "string"
        }
      ],
      "name": "NoRolesProvided",
      "type": "error"
    },
    {
      "inputs": [
        {
          "internalType": "string",
          "name": "reason",
          "type": "string"
        }
      ],
      "name": "PartyAlreadyRegistered",
      "type": "error"
    },
    {
      "inputs": [
        {
          "internalType": "string",
          "name": "reason",
          "type": "string"
        }
      ],
      "name": "PartyNotRegistered",
      "type": "error"
    },
    {
      "inputs": [
        {
          "internalType": "enum OcnRegistry.Role",
          "name": "role",
          "type": "uint8"
        },
        {
          "internalType": "string",
          "name": "reason",
          "type": "string"
        }
      ],
      "name": "ProviderNotFound",
      "type": "error"
    },
    {
      "inputs": [
        {
          "internalType": "string",
          "name": "reason",
          "type": "string"
        }
      ],
      "name": "SignerMismatch",
      "type": "error"
    },
    {
      "anonymous": false,
      "inputs": [
        {
          "indexed": true,
          "internalType": "address",
          "name": "operator",
          "type": "address"
        },
        {
          "indexed": false,
          "internalType": "string",
          "name": "domain",
          "type": "string"
        }
      ],
      "name": "OperatorUpdate",
      "type": "event"
    },
    {
      "anonymous": false,
      "inputs": [
        {
          "indexed": true,
          "internalType": "address",
          "name": "oldAdmin",
          "type": "address"
        },
        {
          "indexed": true,
          "internalType": "address",
          "name": "newAdmin",
          "type": "address"
        }
      ],
      "name": "OwnershipTransferred",
      "type": "event"
    },
    {
      "anonymous": false,
      "inputs": [
        {
          "indexed": false,
          "internalType": "bytes2",
          "name": "countryCode",
          "type": "bytes2"
        },
        {
          "indexed": false,
          "internalType": "bytes3",
          "name": "partyId",
          "type": "bytes3"
        },
        {
          "indexed": true,
          "internalType": "address",
          "name": "partyAddress",
          "type": "address"
        },
        {
          "indexed": false,
          "internalType": "enum OcnRegistry.Role[]",
          "name": "roles",
          "type": "uint8[]"
        },
        {
          "indexed": false,
          "internalType": "string",
          "name": "name",
          "type": "string"
        },
        {
          "indexed": false,
          "internalType": "string",
          "name": "url",
          "type": "string"
        },
        {
          "indexed": false,
          "internalType": "enum IOcnPaymentManager.PaymentStatus",
          "name": "paymentStatus",
          "type": "uint8"
        },
        {
          "indexed": false,
          "internalType": "enum IOcnCvManager.CvStatus",
          "name": "cvStatus",
          "type": "uint8"
        },
        {
          "indexed": false,
          "internalType": "bool",
          "name": "active",
          "type": "bool"
        }
      ],
      "name": "PartyDelete",
      "type": "event"
    },
    {
      "anonymous": false,
      "inputs": [
        {
          "indexed": false,
          "internalType": "bytes2",
          "name": "countryCode",
          "type": "bytes2"
        },
        {
          "indexed": false,
          "internalType": "bytes3",
          "name": "partyId",
          "type": "bytes3"
        },
        {
          "indexed": true,
          "internalType": "address",
          "name": "partyAddress",
          "type": "address"
        },
        {
          "indexed": false,
          "internalType": "enum OcnRegistry.Role[]",
          "name": "roles",
          "type": "uint8[]"
        },
        {
          "indexed": false,
          "internalType": "string",
          "name": "name",
          "type": "string"
        },
        {
          "indexed": false,
          "internalType": "string",
          "name": "url",
          "type": "string"
        },
        {
          "indexed": false,
          "internalType": "enum IOcnPaymentManager.PaymentStatus",
          "name": "paymentStatus",
          "type": "uint8"
        },
        {
          "indexed": false,
          "internalType": "enum IOcnCvManager.CvStatus",
          "name": "cvStatus",
          "type": "uint8"
        },
        {
          "indexed": false,
          "internalType": "bool",
          "name": "active",
          "type": "bool"
        },
        {
          "indexed": true,
          "internalType": "address",
          "name": "operatorAddress",
          "type": "address"
        }
      ],
      "name": "PartyUpdate",
      "type": "event"
    },
    {
      "anonymous": false,
      "inputs": [
        {
          "indexed": true,
          "internalType": "bytes32",
          "name": "role",
          "type": "bytes32"
        },
        {
          "indexed": true,
          "internalType": "bytes32",
          "name": "previousAdminRole",
          "type": "bytes32"
        },
        {
          "indexed": true,
          "internalType": "bytes32",
          "name": "newAdminRole",
          "type": "bytes32"
        }
      ],
      "name": "RoleAdminChanged",
      "type": "event"
    },
    {
      "anonymous": false,
      "inputs": [
        {
          "indexed": true,
          "internalType": "bytes32",
          "name": "role",
          "type": "bytes32"
        },
        {
          "indexed": true,
          "internalType": "address",
          "name": "account",
          "type": "address"
        },
        {
          "indexed": true,
          "internalType": "address",
          "name": "sender",
          "type": "address"
        }
      ],
      "name": "RoleGranted",
      "type": "event"
    },
    {
      "anonymous": false,
      "inputs": [
        {
          "indexed": true,
          "internalType": "bytes32",
          "name": "role",
          "type": "bytes32"
        },
        {
          "indexed": true,
          "internalType": "address",
          "name": "account",
          "type": "address"
        },
        {
          "indexed": true,
          "internalType": "address",
          "name": "sender",
          "type": "address"
        }
      ],
      "name": "RoleRevoked",
      "type": "event"
    },
    {
      "inputs": [],
      "name": "DEFAULT_ADMIN_ROLE",
      "outputs": [
        {
          "internalType": "bytes32",
          "name": "",
          "type": "bytes32"
        }
      ],
      "stateMutability": "view",
      "type": "function"
    },
    {
      "inputs": [
        {
          "internalType": "address",
          "name": "operator",
          "type": "address"
        }
      ],
      "name": "adminDeleteOperator",
      "outputs": [],
      "stateMutability": "nonpayable",
      "type": "function"
    },
    {
      "inputs": [
        {
          "internalType": "bytes2",
          "name": "countryCode",
          "type": "bytes2"
        },
        {
          "internalType": "bytes3",
          "name": "partyId",
          "type": "bytes3"
        }
      ],
      "name": "adminDeleteParty",
      "outputs": [],
      "stateMutability": "nonpayable",
      "type": "function"
    },
    {
      "inputs": [],
      "name": "certificateVerifier",
      "outputs": [
        {
          "internalType": "contract ICertificateVerifier",
          "name": "",
          "type": "address"
        }
      ],
      "stateMutability": "view",
      "type": "function"
    },
    {
      "inputs": [],
      "name": "deleteNode",
      "outputs": [],
      "stateMutability": "nonpayable",
      "type": "function"
    },
    {
      "inputs": [
        {
          "internalType": "address",
          "name": "operator",
          "type": "address"
        },
        {
          "internalType": "uint8",
          "name": "v",
          "type": "uint8"
        },
        {
          "internalType": "bytes32",
          "name": "r",
          "type": "bytes32"
        },
        {
          "internalType": "bytes32",
          "name": "s",
          "type": "bytes32"
        }
      ],
      "name": "deleteNodeRaw",
      "outputs": [],
      "stateMutability": "nonpayable",
      "type": "function"
    },
    {
      "inputs": [],
      "name": "deleteParty",
      "outputs": [],
      "stateMutability": "nonpayable",
      "type": "function"
    },
    {
      "inputs": [
        {
          "internalType": "address",
          "name": "party",
          "type": "address"
        },
        {
          "internalType": "uint8",
          "name": "v",
          "type": "uint8"
        },
        {
          "internalType": "bytes32",
          "name": "r",
          "type": "bytes32"
        },
        {
          "internalType": "bytes32",
          "name": "s",
          "type": "bytes32"
        }
      ],
      "name": "deletePartyRaw",
      "outputs": [],
      "stateMutability": "nonpayable",
      "type": "function"
    },
    {
      "inputs": [
        {
          "internalType": "address",
          "name": "operator",
          "type": "address"
        }
      ],
      "name": "getNode",
      "outputs": [
        {
          "internalType": "string",
          "name": "",
          "type": "string"
        }
      ],
      "stateMutability": "view",
      "type": "function"
    },
    {
      "inputs": [],
      "name": "getNodeOperators",
      "outputs": [
        {
          "internalType": "address[]",
          "name": "",
          "type": "address[]"
        }
      ],
      "stateMutability": "view",
      "type": "function"
    },
    {
      "inputs": [
        {
          "internalType": "address",
          "name": "party",
          "type": "address"
        }
      ],
      "name": "getOperatorByAddress",
      "outputs": [
        {
          "internalType": "address",
          "name": "operator",
          "type": "address"
        },
        {
          "internalType": "string",
          "name": "domain",
          "type": "string"
        }
      ],
      "stateMutability": "view",
      "type": "function"
    },
    {
      "inputs": [
        {
          "internalType": "bytes2",
          "name": "countryCode",
          "type": "bytes2"
        },
        {
          "internalType": "bytes3",
          "name": "partyId",
          "type": "bytes3"
        }
      ],
      "name": "getOperatorByOcpi",
      "outputs": [
        {
          "internalType": "address",
          "name": "operator",
          "type": "address"
        },
        {
          "internalType": "string",
          "name": "domain",
          "type": "string"
        }
      ],
      "stateMutability": "view",
      "type": "function"
    },
    {
      "inputs": [],
      "name": "getParties",
      "outputs": [
        {
          "internalType": "address[]",
          "name": "",
          "type": "address[]"
        }
      ],
      "stateMutability": "view",
      "type": "function"
    },
    {
      "inputs": [
        {
          "internalType": "address",
          "name": "operator",
          "type": "address"
        }
      ],
      "name": "getPartiesByOperator",
      "outputs": [
        {
          "internalType": "address[]",
          "name": "",
          "type": "address[]"
        }
      ],
      "stateMutability": "view",
      "type": "function"
    },
    {
      "inputs": [
        {
          "internalType": "enum OcnRegistry.Role",
          "name": "role",
          "type": "uint8"
        }
      ],
      "name": "getPartiesByRole",
      "outputs": [
        {
          "internalType": "address[]",
          "name": "",
          "type": "address[]"
        }
      ],
      "stateMutability": "view",
      "type": "function"
    },
    {
      "inputs": [],
      "name": "getPartiesCount",
      "outputs": [
        {
          "internalType": "uint256",
          "name": "",
          "type": "uint256"
        }
      ],
      "stateMutability": "view",
      "type": "function"
    },
    {
      "inputs": [
        {
          "internalType": "address",
          "name": "_partyAddress",
          "type": "address"
        }
      ],
      "name": "getPartyDetailsByAddress",
      "outputs": [
        {
          "internalType": "address",
          "name": "partyAddress",
          "type": "address"
        },
        {
          "internalType": "bytes2",
          "name": "countryCode",
          "type": "bytes2"
        },
        {
          "internalType": "bytes3",
          "name": "partyId",
          "type": "bytes3"
        },
        {
          "internalType": "enum OcnRegistry.Role[]",
          "name": "roles",
          "type": "uint8[]"
        },
        {
          "internalType": "enum IOcnPaymentManager.PaymentStatus",
          "name": "paymentStatus",
          "type": "uint8"
        },
        {
          "internalType": "address",
          "name": "operatorAddress",
          "type": "address"
        },
        {
          "internalType": "string",
          "name": "name",
          "type": "string"
        },
        {
          "internalType": "string",
          "name": "url",
          "type": "string"
        },
        {
          "internalType": "bool",
          "name": "active",
          "type": "bool"
        }
      ],
      "stateMutability": "view",
      "type": "function"
    },
    {
      "inputs": [
        {
          "internalType": "bytes2",
          "name": "_countryCode",
          "type": "bytes2"
        },
        {
          "internalType": "bytes3",
          "name": "_partyId",
          "type": "bytes3"
        }
      ],
      "name": "getPartyDetailsByOcpi",
      "outputs": [
        {
          "internalType": "address",
          "name": "partyAddress",
          "type": "address"
        },
        {
          "internalType": "bytes2",
          "name": "countryCode",
          "type": "bytes2"
        },
        {
          "internalType": "bytes3",
          "name": "partyId",
          "type": "bytes3"
        },
        {
          "internalType": "enum OcnRegistry.Role[]",
          "name": "roles",
          "type": "uint8[]"
        },
        {
          "internalType": "enum IOcnPaymentManager.PaymentStatus",
          "name": "paymentStatus",
          "type": "uint8"
        },
        {
          "internalType": "address",
          "name": "operatorAddress",
          "type": "address"
        },
        {
          "internalType": "string",
          "name": "name",
          "type": "string"
        },
        {
          "internalType": "string",
          "name": "url",
          "type": "string"
        },
        {
          "internalType": "bool",
          "name": "active",
          "type": "bool"
        },
        {
          "internalType": "uint256",
          "name": "stakingBlock",
          "type": "uint256"
        }
      ],
      "stateMutability": "view",
      "type": "function"
    },
    {
      "inputs": [
        {
          "internalType": "bytes32",
          "name": "role",
          "type": "bytes32"
        }
      ],
      "name": "getRoleAdmin",
      "outputs": [
        {
          "internalType": "bytes32",
          "name": "",
          "type": "bytes32"
        }
      ],
      "stateMutability": "view",
      "type": "function"
    },
    {
      "inputs": [
        {
          "internalType": "bytes32",
          "name": "role",
          "type": "bytes32"
        },
        {
          "internalType": "address",
          "name": "account",
          "type": "address"
        }
      ],
      "name": "grantRole",
      "outputs": [],
      "stateMutability": "nonpayable",
      "type": "function"
    },
    {
      "inputs": [
        {
          "internalType": "bytes32",
          "name": "role",
          "type": "bytes32"
        },
        {
          "internalType": "address",
          "name": "account",
          "type": "address"
        }
      ],
      "name": "hasRole",
      "outputs": [
        {
          "internalType": "bool",
          "name": "",
          "type": "bool"
        }
      ],
      "stateMutability": "view",
      "type": "function"
    },
    {
      "inputs": [
        {
          "internalType": "address",
          "name": "verifier",
          "type": "address"
        }
      ],
      "name": "isAllowedVerifier",
      "outputs": [
        {
          "internalType": "bool",
          "name": "",
          "type": "bool"
        }
      ],
      "stateMutability": "view",
      "type": "function"
    },
    {
      "inputs": [],
      "name": "paymentManager",
      "outputs": [
        {
          "internalType": "contract IOcnPaymentManager",
          "name": "",
          "type": "address"
        }
      ],
      "stateMutability": "view",
      "type": "function"
    },
    {
      "inputs": [
        {
          "internalType": "address",
          "name": "verifier",
          "type": "address"
        }
      ],
      "name": "removeVerifier",
      "outputs": [],
      "stateMutability": "nonpayable",
      "type": "function"
    },
    {
      "inputs": [
        {
          "internalType": "bytes32",
          "name": "role",
          "type": "bytes32"
        },
        {
          "internalType": "address",
          "name": "callerConfirmation",
          "type": "address"
        }
      ],
      "name": "renounceRole",
      "outputs": [],
      "stateMutability": "nonpayable",
      "type": "function"
    },
    {
      "inputs": [
        {
          "internalType": "bytes32",
          "name": "role",
          "type": "bytes32"
        },
        {
          "internalType": "address",
          "name": "account",
          "type": "address"
        }
      ],
      "name": "revokeRole",
      "outputs": [],
      "stateMutability": "nonpayable",
      "type": "function"
    },
    {
      "inputs": [
        {
          "internalType": "string",
          "name": "domain",
          "type": "string"
        }
      ],
      "name": "setNode",
      "outputs": [],
      "stateMutability": "nonpayable",
      "type": "function"
    },
    {
      "inputs": [
        {
          "internalType": "address",
          "name": "operator",
          "type": "address"
        },
        {
          "internalType": "string",
          "name": "domain",
          "type": "string"
        },
        {
          "internalType": "uint8",
          "name": "v",
          "type": "uint8"
        },
        {
          "internalType": "bytes32",
          "name": "r",
          "type": "bytes32"
        },
        {
          "internalType": "bytes32",
          "name": "s",
          "type": "bytes32"
        }
      ],
      "name": "setNodeRaw",
      "outputs": [],
      "stateMutability": "nonpayable",
      "type": "function"
    },
    {
      "inputs": [
        {
          "internalType": "bytes2",
          "name": "countryCode",
          "type": "bytes2"
        },
        {
          "internalType": "bytes3",
          "name": "partyId",
          "type": "bytes3"
        },
        {
          "components": [
            {
              "internalType": "bytes",
              "name": "certificateData",
              "type": "bytes"
            },
            {
              "internalType": "bytes",
              "name": "signature",
              "type": "bytes"
            },
            {
              "internalType": "enum OcnRegistry.Role",
              "name": "role",
              "type": "uint8"
            }
          ],
          "internalType": "struct OcnRegistry.RoleDetails[]",
          "name": "roles",
          "type": "tuple[]"
        },
        {
          "internalType": "address",
          "name": "operator",
          "type": "address"
        },
        {
          "internalType": "string",
          "name": "name",
          "type": "string"
        },
        {
          "internalType": "string",
          "name": "url",
          "type": "string"
        }
      ],
      "name": "setParty",
      "outputs": [],
      "stateMutability": "nonpayable",
      "type": "function"
    },
    {
      "inputs": [
        {
          "internalType": "address",
          "name": "party",
          "type": "address"
        },
        {
          "internalType": "bytes2",
          "name": "countryCode",
          "type": "bytes2"
        },
        {
          "internalType": "bytes3",
          "name": "partyId",
          "type": "bytes3"
        },
        {
          "components": [
            {
              "internalType": "bytes",
              "name": "certificateData",
              "type": "bytes"
            },
            {
              "internalType": "bytes",
              "name": "signature",
              "type": "bytes"
            },
            {
              "internalType": "enum OcnRegistry.Role",
              "name": "role",
              "type": "uint8"
            }
          ],
          "internalType": "struct OcnRegistry.RoleDetails[]",
          "name": "roles",
          "type": "tuple[]"
        },
        {
          "internalType": "address",
          "name": "operator",
          "type": "address"
        },
        {
          "internalType": "string",
          "name": "name",
          "type": "string"
        },
        {
          "internalType": "string",
          "name": "url",
          "type": "string"
        },
        {
          "internalType": "uint8",
          "name": "v",
          "type": "uint8"
        },
        {
          "internalType": "bytes32",
          "name": "r",
          "type": "bytes32"
        },
        {
          "internalType": "bytes32",
          "name": "s",
          "type": "bytes32"
        }
      ],
      "name": "setPartyRaw",
      "outputs": [],
      "stateMutability": "nonpayable",
      "type": "function"
    },
    {
      "inputs": [
        {
          "internalType": "enum OcnRegistry.Role",
          "name": "role",
          "type": "uint8"
        },
        {
          "internalType": "address",
          "name": "oracleAddress",
          "type": "address"
        }
      ],
      "name": "setProviderOracle",
      "outputs": [],
      "stateMutability": "nonpayable",
      "type": "function"
    },
    {
      "inputs": [
        {
          "internalType": "address",
          "name": "verifier",
          "type": "address"
        }
      ],
      "name": "setVerifier",
      "outputs": [],
      "stateMutability": "nonpayable",
      "type": "function"
    },
    {
      "inputs": [
        {
          "internalType": "bytes4",
          "name": "interfaceId",
          "type": "bytes4"
        }
      ],
      "name": "supportsInterface",
      "outputs": [
        {
          "internalType": "bool",
          "name": "",
          "type": "bool"
        }
      ],
      "stateMutability": "view",
      "type": "function"
    },
    {
      "inputs": [
        {
          "internalType": "address",
          "name": "newOwner",
          "type": "address"
        }
      ],
      "name": "transferOwnership",
      "outputs": [],
      "stateMutability": "nonpayable",
      "type": "function"
    }
  ],
  "transactionHash": "0xf7d80afde1e590804c7a11e51c9c2988dd6fcabc26e2fd773499936fdc19fdd5",
  "args": [
    "0xa622694f4E25Ed310170ee9a36Bb75C79C302790",
    "0x789Ee7dA07388810a4B32Ec53ede3Bb6204f76F4"
  ],
  "numDeployments": 1,
  "solcInputHash": "4423d18d190e86442966c9394c8339df",
  "bytecode": "0x60806040523480156200001157600080fd5b5060405162004aa738038062004aa783398101604081905262000034916200018a565b60408051808201909152601c81527f19457468657265756d205369676e6564204d6573736167653a0a333200000000602082015260019062000077908262000269565b50600c80546001600160a01b038085166001600160a01b031992831617909255600d805492841692909116919091179055620000b5600033620000be565b50505062000335565b6000828152602081815260408083206001600160a01b038516845290915281205460ff1662000163576000838152602081815260408083206001600160a01b03861684529091529020805460ff191660011790556200011a3390565b6001600160a01b0316826001600160a01b0316847f2f8788117e7eff1d82e926ec794901d17c78024a50270940304540a733656f0d60405160405180910390a450600162000167565b5060005b92915050565b80516001600160a01b03811681146200018557600080fd5b919050565b600080604083850312156200019e57600080fd5b620001a9836200016d565b9150620001b9602084016200016d565b90509250929050565b634e487b7160e01b600052604160045260246000fd5b600181811c90821680620001ed57607f821691505b6020821081036200020e57634e487b7160e01b600052602260045260246000fd5b50919050565b601f82111562000264576000816000526020600020601f850160051c810160208610156200023f5750805b601f850160051c820191505b8181101562000260578281556001016200024b565b5050505b505050565b81516001600160401b03811115620002855762000285620001c2565b6200029d81620002968454620001d8565b8462000214565b602080601f831160018114620002d55760008415620002bc5750858301515b600019600386901b1c1916600185901b17855562000260565b600085815260208120601f198616915b828110156200030657888601518255948401946001909101908401620002e5565b5085821015620003255787850151600019600388901b60f8161c191681555b5050505050600190811b01905550565b61476280620003456000396000f3fe608060405234801561001057600080fd5b50600436106102065760003560e01c806391d148541161011a578063aee1fe49116100ad578063d63a84d41161007c578063d63a84d414610490578063df516128146104a3578063dfd93d3b146104cb578063e1e64995146104de578063f2fde38b146104f157600080fd5b8063aee1fe4914610437578063bdb8107814610462578063ca2dfd0a1461046a578063d547741f1461047d57600080fd5b8063a33db09f116100e9578063a33db09f146103eb578063a5b5ffbb146103fe578063a8311aa814610427578063acaef0e01461042f57600080fd5b806391d148541461039d57806399bd6901146103b05780639d209048146103c3578063a217fddf146103e357600080fd5b80635437988d1161019d5780636c265bbc1161016c5780636c265bbc146103305780637a091aa51461034357806381939d661461036457806385cb86021461037757806388cf72a01461038a57600080fd5b80635437988d146102d65780635cf0685f146102e957806366acaa331461031557806366e706fb1461031d57600080fd5b80632d8fe452116101d95780632d8fe4521461027d5780632f2ff15d1461029057806336568abe146102a357806339581c21146102b657600080fd5b806301ffc9a71461020b578063031d2bd5146102335780630799363d14610245578063248a9ca31461025a575b600080fd5b61021e61021936600461361a565b610504565b60405190151581526020015b60405180910390f35b600b545b60405190815260200161022a565b6102586102533660046138c6565b61053b565b005b610237610268366004613982565b60009081526020819052604090206001015490565b61025861028b36600461399b565b611067565b61025861029e3660046139b8565b61107f565b6102586102b13660046139b8565b6110aa565b6102c96102c43660046139e8565b6110e2565b60405161022a9190613a03565b6102586102e436600461399b565b6115b7565b61021e6102f736600461399b565b6001600160a01b03166000908152600a602052604090205460ff1690565b6102c96116a1565b61025861032b366004613a6a565b611703565b61025861033e366004613a6a565b6117fc565b610356610351366004613ab0565b6118bb565b60405161022a929190613b33565b610258610372366004613b5f565b6119a8565b610258610385366004613b8b565b611a12565b61035661039836600461399b565b611a1f565b61021e6103ab3660046139b8565b611ade565b6102586103be366004613bbf565b611b07565b6103d66103d136600461399b565b611bc8565b60405161022a9190613c32565b610237600081565b6102c96103f936600461399b565b611c74565b61041161040c366004613ab0565b611e6e565b60405161022a9a99989796959493929190613cc2565b6102c96121b4565b610258612214565b600c5461044a906001600160a01b031681565b6040516001600160a01b03909116815260200161022a565b61025861221f565b61025861047836600461399b565b612228565b61025861048b3660046139b8565b61230e565b61025861049e366004613ab0565b612333565b6104b66104b136600461399b565b61237f565b60405161022a99989796959493929190613d60565b600d5461044a906001600160a01b031681565b6102586104ec366004613dfc565b6125cc565b6102586104ff36600461399b565b612767565b60006001600160e01b03198216637965db0b60e01b148061053557506301ffc9a760e01b6001600160e01b03198316145b92915050565b6001600160f01b031986166105be57604051633a50519760e21b815260206004820152603e60248201527f43616e6e6f742073657420656d70747920636f756e7472795f636f64652e205560448201527f73652064656c6574655061727479206d6574686f6420696e73746561642e000060648201526084015b60405180910390fd5b6001600160e81b0319851661063c5760405163373a953760e11b815260206004820152603a60248201527f43616e6e6f742073657420656d7074792070617274795f69642e20557365206460448201527f656c6574655061727479206d6574686f6420696e73746561642e00000000000060648201526084016105b5565b83516000036106835760405163cab73b6560e01b81526020600482015260126024820152712737903937b632b990383937bb34b232b21760711b60448201526064016105b5565b6001600160a01b0383166107005760405163fac855f560e01b815260206004820152603a60248201527f43616e6e6f742073657420656d707479206f70657261746f722e20557365206460448201527f656c6574655061727479206d6574686f6420696e73746561642e00000000000060648201526084016105b5565b60606000805b86518160ff16101561091c576000878260ff168151811061072957610729613eec565b6020026020010151905060008061073f836127c2565b90925090506001600160a01b038516610756578094505b806001600160a01b0316856001600160a01b0316146107c3576040516316c7354f60e01b815260206004820152602260248201527f436572746966696361746573206861766520646966666572656e74206f776e65604482015261727360f01b60648201526084016105b5565b6000600e6000856040015160058111156107df576107df613c45565b60058111156107f0576107f0613c45565b81526020810191909152604001600020546001600160a01b0316905080156108bb576040516350cadc8560e01b81526000906001600160a01b038316906350cadc8590610841908790600401613c32565b600060405180830381865afa15801561085e573d6000803e3d6000fd5b505050506040513d6000823e601f3d908101601f191682016040526108869190810190613f47565b9050610896848260200151612b38565b6108b95784604001516040516303458c0d60e21b81526004016105b59190613fed565b505b8360400151878660ff16815181106108d5576108d5613eec565b602002602001019060058111156108ee576108ee613c45565b9081600581111561090157610901613c45565b8152505050505050808061091490614041565b915050610706565b506001600160f01b0319881660009081526006602090815260408083206001600160e81b03198b1684529091529020546001600160a01b031680158015906109765750816001600160a01b0316816001600160a01b031614155b156109ff5760405163618270d960e01b815260206004820152604c60248201527f5061727479207769746820636f756e7472795f636f64652f70617274795f696460448201527f20616c7265616479207265676973746572656420756e6465722064696666657260648201526b32b73a1030b2323932b9b99760a11b608482015260a4016105b5565b6001600160f01b0319891660009081526006602090815260408083206001600160e81b03198c168452825280832080546001600160a01b0319166001600160a01b038781169190911790915589168352600290915290208054610a6190614060565b9050600003610abd57604051634523c97f60e01b815260206004820152602160248201527f50726f7669646564206f70657261746f72206e6f7420726567697374657265646044820152601760f91b60648201526084016105b5565b6001600160a01b03821660009081526008602090815260408083206005015460079092529091205460ff16610b4857600b80546001808201835560008390527f0175b7a638427703f0dbe7bb9bbf987a2551717b34e79f33b5b1008d1fa01db990910180546001600160a01b0319166001600160a01b0387161790559054610b45919061409a565b90505b6001600160a01b03838116600081815260076020526040808220805460ff19166001179055600c549051632222c8a160e21b815260048101939093529092169063888b228490602401602060405180830381865afa158015610bae573d6000803e3d6000fd5b505050506040513d601f19601f82011682018060405250810190610bd291906140ad565b90506040518061012001604052808c6001600160f01b03191681526020018b6001600160e81b0319168152602001868152602001888152602001878152602001826003811115610c2457610c24613c45565b8152602001600081526001602080830182905260409283018690526001600160a01b038816600090815260088252839020845181548684015160e81c620100000264ffffffffff1990911660f09290921c91909117178155928401518051610c939385019291909101906134f6565b5060608201516002820190610ca89082614116565b5060808201516003820190610cbd9082614116565b5060a082015160048201805460ff19166001836003811115610ce157610ce1613c45565b021790555060c082015160048201805461ff001916610100836002811115610d0b57610d0b613c45565b021790555060e082015160048201805462ff00001916620100009215158302179055610100909201516005909101556001600160a01b03858116600090815260096020908152604080832080546001600160a01b031916948e169490941790935560088152828220835161012081018552815460f081901b6001600160f01b03191682529590950460e81b6001600160e81b031916858301526001810180548551818502810185018752818152949695929492860193830182828015610e2057602002820191906000526020600020906000905b82829054906101000a900460ff166005811115610dfe57610dfe613c45565b815260206001928301818104948501949093039092029101808411610ddf5790505b50505050508152602001600282018054610e3990614060565b80601f0160208091040260200160405190810160405280929190818152602001828054610e6590614060565b8015610eb25780601f10610e8757610100808354040283529160200191610eb2565b820191906000526020600020905b815481529060010190602001808311610e9557829003601f168201915b50505050508152602001600382018054610ecb90614060565b80601f0160208091040260200160405190810160405280929190818152602001828054610ef790614060565b8015610f445780601f10610f1957610100808354040283529160200191610f44565b820191906000526020600020905b815481529060010190602001808311610f2757829003601f168201915b5050509183525050600482015460209091019060ff166003811115610f6b57610f6b613c45565b6003811115610f7c57610f7c613c45565b81526020016004820160019054906101000a900460ff166002811115610fa457610fa4613c45565b6002811115610fb557610fb5613c45565b81526020016004820160029054906101000a900460ff161515151581526020016005820154815250509050886001600160a01b0316856001600160a01b03167fc16bf12458bfb0cf1345674275c1e82f2c14cf06a3996e1bb297f2015ff66f78836000015184602001518560400151866060015187608001518860a001518960c001518a60e001516040516110519897969594939291906141d5565b60405180910390a3505050505050505050505050565b600061107281612b91565b61107b82612b9b565b5050565b60008281526020819052604090206001015461109a81612b91565b6110a48383612d42565b50505050565b6001600160a01b03811633146110d35760405163334bd91960e11b815260040160405180910390fd5b6110dd8282612dd4565b505050565b600b546060906000906001600160401b0381111561110257611102613680565b60405190808252806020026020018201604052801561112b578160200160208202803683370190505b5090506000805b600b5463ffffffff821610156114f257600060086000600b8463ffffffff168154811061116157611161613eec565b60009182526020808320909101546001600160a01b03168352828101939093526040918201902081516101208101835281546001600160f01b031960f082901b1682526001600160e81b03196201000090910460e81b168185015260018201805484518187028101870186528181529295939486019383018282801561123657602002820191906000526020600020906000905b82829054906101000a900460ff16600581111561121457611214613c45565b8152602060019283018181049485019490930390920291018084116111f55790505b5050505050815260200160028201805461124f90614060565b80601f016020809104026020016040519081016040528092919081815260200182805461127b90614060565b80156112c85780601f1061129d576101008083540402835291602001916112c8565b820191906000526020600020905b8154815290600101906020018083116112ab57829003601f168201915b505050505081526020016003820180546112e190614060565b80601f016020809104026020016040519081016040528092919081815260200182805461130d90614060565b801561135a5780601f1061132f5761010080835404028352916020019161135a565b820191906000526020600020905b81548152906001019060200180831161133d57829003601f168201915b5050509183525050600482015460209091019060ff16600381111561138157611381613c45565b600381111561139257611392613c45565b81526020016004820160019054906101000a900460ff1660028111156113ba576113ba613c45565b60028111156113cb576113cb613c45565b8152600482015462010000900460ff1615156020820152600590910154604090910152905060005b8160400151518163ffffffff1610156114dd5786600581111561141857611418613c45565b82604001518263ffffffff168151811061143457611434613eec565b6020026020010151600581111561144d5761144d613c45565b036114cb57600b8363ffffffff168154811061146b5761146b613eec565b9060005260206000200160009054906101000a90046001600160a01b0316858563ffffffff16815181106114a1576114a1613eec565b6001600160a01b0390921660209283029190910190910152836114c38161426e565b9450506114dd565b806114d58161426e565b9150506113f3565b505080806114ea9061426e565b915050611132565b5060008163ffffffff166001600160401b0381111561151357611513613680565b60405190808252806020026020018201604052801561153c578160200160208202803683370190505b50905060005b8263ffffffff168163ffffffff1610156115ae57838163ffffffff168151811061156e5761156e613eec565b6020026020010151828263ffffffff168151811061158e5761158e613eec565b6001600160a01b0390921660209283029190910190910152600101611542565b50949350505050565b60006115c281612b91565b6001600160a01b0382166116135760405162461bcd60e51b8152602060048201526018602482015277496e76616c6964207665726966696572206164647265737360401b60448201526064016105b5565b6001600160a01b0382166000908152600a602052604090205460ff161561167c5760405162461bcd60e51b815260206004820152601860248201527f566572696669657220616c726561647920616c6c6f776564000000000000000060448201526064016105b5565b506001600160a01b03166000908152600a60205260409020805460ff19166001179055565b606060058054806020026020016040519081016040528092919081815260200182805480156116f957602002820191906000526020600020905b81546001600160a01b031681526001909101906020018083116116db575b5050505050905090565b6040516001600160601b0319606086901b16602082015260009060340160405160208183030381529060405280519060200120905060006001808360405160200161174f929190614291565b60408051601f198184030181528282528051602091820120600084529083018083525260ff881690820152606081018690526080810185905260a0016020604051602081039080840390855afa1580156117ad573d6000803e3d6000fd5b505050602060405103519050856001600160a01b0316816001600160a01b0316146117eb5760405163331e1b8160e21b81526004016105b59061430c565b6117f481612e3f565b505050505050565b6040516001600160601b0319606086901b166020820152600090603401604051602081830303815290604052805190602001209050600060018083604051602001611848929190614291565b60408051601f198184030181528282528051602091820120600084529083018083525260ff881690820152606081018690526080810185905260a0016020604051602081039080840390855afa1580156118a6573d6000803e3d6000fd5b5050506020604051035190506117f481612b9b565b6001600160f01b0319821660009081526006602090815260408083206001600160e81b0319851684528252808320546001600160a01b039081168085526009845282852054909116808552600290935292208054919260609290919061192090614060565b80601f016020809104026020016040519081016040528092919081815260200182805461194c90614060565b80156119995780601f1061196e57610100808354040283529160200191611999565b820191906000526020600020905b81548152906001019060200180831161197c57829003601f168201915b50505050509150509250929050565b60006119b381612b91565b81600e60008560058111156119ca576119ca613c45565b60058111156119db576119db613c45565b815260200190815260200160002060006101000a8154816001600160a01b0302191690836001600160a01b03160217905550505050565b611a1c33826132c7565b50565b6001600160a01b038082166000908152600960209081526040808320549093168083526002909152919020805460609190611a5990614060565b80601f0160208091040260200160405190810160405280929190818152602001828054611a8590614060565b8015611ad25780601f10611aa757610100808354040283529160200191611ad2565b820191906000526020600020905b815481529060010190602001808311611ab557829003601f168201915b50505050509050915091565b6000918252602082815260408084206001600160a01b0393909316845291905290205460ff1690565b60008585604051602001611b1c929190614358565b604051602081830303815290604052805190602001209050600060018083604051602001611b4b929190614291565b60408051601f198184030181528282528051602091820120600084529083018083525260ff881690820152606081018690526080810185905260a0016020604051602081039080840390855afa158015611ba9573d6000803e3d6000fd5b505050602060405103519050611bbf81876132c7565b50505050505050565b6001600160a01b0381166000908152600260205260409020805460609190611bef90614060565b80601f0160208091040260200160405190810160405280929190818152602001828054611c1b90614060565b8015611c685780601f10611c3d57610100808354040283529160200191611c68565b820191906000526020600020905b815481529060010190602001808311611c4b57829003601f168201915b50505050509050919050565b600b546060906000906001600160401b03811115611c9457611c94613680565b604051908082528060200260200182016040528015611cbd578160200160208202803683370190505b5090506000805b600b5463ffffffff82161015611db257846001600160a01b031660096000600b8463ffffffff1681548110611cfb57611cfb613eec565b60009182526020808320909101546001600160a01b0390811684529083019390935260409091019020541603611da057600b8163ffffffff1681548110611d4457611d44613eec565b9060005260206000200160009054906101000a90046001600160a01b0316838363ffffffff1681518110611d7a57611d7a613eec565b6001600160a01b039092166020928302919091019091015281611d9c8161426e565b9250505b80611daa8161426e565b915050611cc4565b5060008163ffffffff166001600160401b03811115611dd357611dd3613680565b604051908082528060200260200182016040528015611dfc578160200160208202803683370190505b50905060005b8263ffffffff168163ffffffff1610156115ae57838163ffffffff1681518110611e2e57611e2e613eec565b6020026020010151828263ffffffff1681518110611e4e57611e4e613eec565b6001600160a01b0390921660209283029190910190910152600101611e02565b6001600160f01b0319821660009081526006602090815260408083206001600160e81b03198516845290915280822054600c549151631234d3bd60e01b81526001600160a01b039182166004820181905293928392606092849283928592839285928392911690631234d3bd906024016040805180830381865afa158015611efa573d6000803e3d6000fd5b505050506040513d601f19601f82011682018060405250810190611f1e9190614390565b506001600160a01b038b16600090815260086020908152604091829020805460018201805485518186028101860190965280865260f083901b9f506201000090920460e81b9d50949550909391830182828015611fca57602002820191906000526020600020906000905b82829054906101000a900460ff166005811115611fa857611fa8613c45565b815260206001928301818104948501949093039092029101808411611f895790505b5050600c54604051632222c8a160e21b8152949c506001600160a01b03169363888b2284935061200f92508f91506004016001600160a01b0391909116815260200190565b602060405180830381865afa15801561202c573d6000803e3d6000fd5b505050506040513d601f19601f8201168201806040525081019061205091906140ad565b6001600160a01b03808d16600090815260096020526040902054600284018054939a50911697509061208190614060565b80601f01602080910402602001604051908101604052809291908181526020018280546120ad90614060565b80156120fa5780601f106120cf576101008083540402835291602001916120fa565b820191906000526020600020905b8154815290600101906020018083116120dd57829003601f168201915b5050505050945080600301805461211090614060565b80601f016020809104026020016040519081016040528092919081815260200182805461213c90614060565b80156121895780601f1061215e57610100808354040283529160200191612189565b820191906000526020600020905b81548152906001019060200180831161216c57829003601f168201915b505050505093508060040160029054906101000a900460ff169250509295989b9194979a5092959850565b6060600b8054806020026020016040519081016040528092919081815260200182805480156116f9576020028201919060005260206000209081546001600160a01b031681526001909101906020018083116116db575050505050905090565b61221d33612b9b565b565b61221d33612e3f565b600061223381612b91565b6001600160a01b0382166122845760405162461bcd60e51b8152602060048201526018602482015277496e76616c6964207665726966696572206164647265737360401b60448201526064016105b5565b6001600160a01b0382166000908152600a602052604090205460ff166122ec5760405162461bcd60e51b815260206004820152601e60248201527f5665726966696572206e6f742063757272656e746c7920616c6c6f776564000060448201526064016105b5565b506001600160a01b03166000908152600a60205260409020805460ff19169055565b60008281526020819052604090206001015461232981612b91565b6110a48383612dd4565b600061233e81612b91565b6001600160f01b0319831660009081526006602090815260408083206001600160e81b0319861684529091529020546001600160a01b03166110a481612e3f565b6001600160a01b03811660009081526008602090815260408083208054600182018054845181870281018701909552808552879660f084901b966201000090940460e81b956060959194859487948594879490939092919083018282801561243657602002820191906000526020600020906000905b82829054906101000a900460ff16600581111561241457612414613c45565b8152602060019283018181049485019490930390920291018084116123f55790505b505050505096508060040160009054906101000a900460ff169550600960008c6001600160a01b03166001600160a01b0316815260200190815260200160002060009054906101000a90046001600160a01b0316945080600201805461249b90614060565b80601f01602080910402602001604051908101604052809291908181526020018280546124c790614060565b80156125145780601f106124e957610100808354040283529160200191612514565b820191906000526020600020905b8154815290600101906020018083116124f757829003601f168201915b5050505050935080600301805461252a90614060565b80601f016020809104026020016040519081016040528092919081815260200182805461255690614060565b80156125a35780601f10612578576101008083540402835291602001916125a3565b820191906000526020600020905b81548152906001019060200180831161258657829003601f168201915b505050505092508060040160029054906101000a900460ff169150509193959799909294969850565b604080516020810190915260008082525b88518160ff161015612652576000898260ff168151811061260057612600613eec565b602002602001015190508281600001518260200151836040015160405160200161262d94939291906143b4565b604051602081830303815290604052925050808061264a90614041565b9150506125dd565b5060008180519060200120905060008c8c8c848c8c8c60405160200161267e9796959493929190614412565b6040516020818303038152906040528051906020012090506000600180836040516020016126ad929190614291565b60408051601f198184030181528282528051602091820120600084529083018083525260ff8a1690820152606081018890526080810187905260a0016020604051602081039080840390855afa15801561270b573d6000803e3d6000fd5b5050506020604051035190508d6001600160a01b0316816001600160a01b0316146127495760405163331e1b8160e21b81526004016105b59061430c565b6127578d8d8d8d8d8d61053b565b5050505050505050505050505050565b600061277281612b91565b61277d60008361107f565b61278860003361230e565b6040516001600160a01b0383169033907f8be0079c531659141344cd1fd0a4f28419497f9722a3daafe3b4186f6b6457e090600090a35050565b606060006001836040015160058111156127de576127de613c45565b036128fc57600d548351602085015160405163fbb87f9760e01b815260009384936001600160a01b039091169263fbb87f979261281f929190600401614492565b600060405180830381865afa15801561283c573d6000803e3d6000fd5b505050506040513d6000823e601f3d908101601f19168201604052612864919081019061450e565b509150915061288b826001600160a01b03166000908152600a602052604090205460ff1690565b6128e95760408051637a0c0ca960e01b81526001600160a01b03841660048201526024810191909152601760448201527f496e76616c696420454d5020636572746966696361746500000000000000000060648201526084016105b5565b805160a090910151909590945092505050565b60008360400151600581111561291457612914613c45565b03612a3257600d548351602085015160405163055b37fb60e51b815260009384936001600160a01b039091169263ab66ff6092612955929190600401614492565b600060405180830381865afa158015612972573d6000803e3d6000fd5b505050506040513d6000823e601f3d908101601f1916820160405261299a91908101906146b8565b50915091506129c1826001600160a01b03166000908152600a602052604090205460ff1690565b612a1f5760408051637a0c0ca960e01b81526001600160a01b03841660048201526024810191909152601760448201527f496e76616c69642043504f20636572746966696361746500000000000000000060648201526084016105b5565b8051604090910151909590945092505050565b600d548351602085015160405163fab285c960e01b815260009384936001600160a01b039091169263fab285c992612a6e929190600401614492565b600060405180830381865afa158015612a8b573d6000803e3d6000fd5b505050506040513d6000823e601f3d908101601f19168201604052612ab391908101906146b8565b5091509150612ada826001600160a01b03166000908152600a602052604090205460ff1690565b612a1f5760408051637a0c0ca960e01b81526001600160a01b03841660048201526024810191909152601960448201527f496e76616c6964204f746865722063657274696669636174650000000000000060648201526084016105b5565b600081604051602001612b4b9190614710565b6040516020818303038152906040528051906020012083604051602001612b729190614710565b6040516020818303038152906040528051906020012014905092915050565b611a1c81336134bd565b6001600160a01b03811660009081526002602052604081208054612bbe90614060565b80601f0160208091040260200160405190810160405280929190818152602001828054612bea90614060565b8015612c375780601f10612c0c57610100808354040283529160200191612c37565b820191906000526020600020905b815481529060010190602001808311612c1a57829003601f168201915b505050505090508051600003612ca057604051639d8b847760e01b815260206004820152602760248201527f43616e6e6f742064656c657465206e6f6465207468617420646f6573206e6f746044820152661032bc34b9ba1760c91b60648201526084016105b5565b6000600382604051612cb29190614710565b9081526040805160209281900383019020805460ff1916931515939093179092556001600160a01b03841660009081526002909152908120612cf3916135aa565b816001600160a01b03167fb1f254c0ae74a753185ba13a1b17818bc803e32d05ef56851955c0ebf230f0d6604051612d3690602080825260009082015260400190565b60405180910390a25050565b6000612d4e8383611ade565b612dcc576000838152602081815260408083206001600160a01b03861684529091529020805460ff19166001179055612d843390565b6001600160a01b0316826001600160a01b0316847f2f8788117e7eff1d82e926ec794901d17c78024a50270940304540a733656f0d60405160405180910390a4506001610535565b506000610535565b6000612de08383611ade565b15612dcc576000838152602081815260408083206001600160a01b0386168085529252808320805460ff1916905551339286917ff6391f5c32d9c69d2a47ea670b442974b53935d1edc7fd64eb21e047a839171b9190a4506001610535565b6001600160a01b0381811660009081526009602052604090205416612ee157604051634523c97f60e01b815260206004820152604b60248201527f43616e6e6f742064656c657465207061727479207468617420646f6573206e6f60448201527f742065786973742e204e6f206f70657261746f7220666f756e6420666f72206760648201526a34bb32b7103830b93a3c9760a91b608482015260a4016105b5565b6001600160a01b038116600090815260096020908152604080832080546001600160a01b031916905560088252808320815161012081018352815460f081901b6001600160f01b031916825262010000900460e81b6001600160e81b03191681850152600182018054845181870281018701865281815292959394860193830182828015612fbe57602002820191906000526020600020906000905b82829054906101000a900460ff166005811115612f9c57612f9c613c45565b815260206001928301818104948501949093039092029101808411612f7d5790505b50505050508152602001600282018054612fd790614060565b80601f016020809104026020016040519081016040528092919081815260200182805461300390614060565b80156130505780601f1061302557610100808354040283529160200191613050565b820191906000526020600020905b81548152906001019060200180831161303357829003601f168201915b5050505050815260200160038201805461306990614060565b80601f016020809104026020016040519081016040528092919081815260200182805461309590614060565b80156130e25780601f106130b7576101008083540402835291602001916130e2565b820191906000526020600020905b8154815290600101906020018083116130c557829003601f168201915b5050509183525050600482015460209091019060ff16600381111561310957613109613c45565b600381111561311a5761311a613c45565b81526020016004820160019054906101000a900460ff16600281111561314257613142613c45565b600281111561315357613153613c45565b8152600482015462010000900460ff16151560208083019190915260059092015460409182015282516001600160f01b031916600090815260068352818120848401516001600160e81b0319168252835281812080546001600160a01b03191690556001600160a01b038616815260089092528120805464ffffffffff191681559192506131e460018301826135e4565b6131f26002830160006135aa565b6132006003830160006135aa565b5060048101805462ffffff191690556000600590910155610100810151600b8054909190811061323257613232613eec565b6000918252602080832090910180546001600160a01b03191690556001600160a01b03841680835260078252604092839020805460ff19169055835191840151848401516060860151608087015160a088015160c089015160e08a0151985196987ff1cf4c42833aa61e1c774181a5389a7b164a71351b75cf37a76762f31b17073998612d36989097969594939291906141d5565b805160000361333f57604051639d8b847760e01b815260206004820152603c60248201527f43616e6e6f742073657420656d70747920646f6d61696e206e616d652e20557360448201527f652064656c6574654e6f6465206d6574686f6420696e73746561642e0000000060648201526084016105b5565b60038160405161334f9190614710565b9081526040519081900360200190205460ff16156133b05760405163f1f1b1c760e01b815260206004820152601f60248201527f446f6d61696e206e616d6520616c726561647920726567697374657265642e0060448201526064016105b5565b60016003826040516133c29190614710565b9081526040805160209281900383019020805460ff1916931515939093179092556001600160a01b03841660009081526004909152205460ff1661344c57600580546001810182556000919091527f036b6384b5eca791c62761152d0c79bb0604c104a5fb6f4eb0703f3154bb3db00180546001600160a01b0319166001600160a01b0384161790555b6001600160a01b0382166000908152600460209081526040808320805460ff19166001179055600290915290206134838282614116565b50816001600160a01b03167fb1f254c0ae74a753185ba13a1b17818bc803e32d05ef56851955c0ebf230f0d682604051612d369190613c32565b6134c78282611ade565b61107b5760405163e2517d3f60e01b81526001600160a01b0382166004820152602481018390526044016105b5565b82805482825590600052602060002090601f0160209004810192821561359a5791602002820160005b8382111561356b57835183826101000a81548160ff0219169083600581111561354a5761354a613c45565b0217905550926020019260010160208160000104928301926001030261351f565b80156135985782816101000a81549060ff021916905560010160208160000104928301926001030261356b565b505b506135a6929150613605565b5090565b5080546135b690614060565b6000825580601f106135c6575050565b601f016020900490600052602060002090810190611a1c9190613605565b50805460008255601f016020900490600052602060002090810190611a1c91905b5b808211156135a65760008155600101613606565b60006020828403121561362c57600080fd5b81356001600160e01b03198116811461364457600080fd5b9392505050565b80356001600160f01b03198116811461366357600080fd5b919050565b80356001600160e81b03198116811461366357600080fd5b634e487b7160e01b600052604160045260246000fd5b604051606081016001600160401b03811182821017156136b8576136b8613680565b60405290565b60405160c081016001600160401b03811182821017156136b8576136b8613680565b604051601f8201601f191681016001600160401b038111828210171561370857613708613680565b604052919050565b60006001600160401b0382111561372957613729613680565b50601f01601f191660200190565b600082601f83011261374857600080fd5b813561375b61375682613710565b6136e0565b81815284602083860101111561377057600080fd5b816020850160208301376000918101602001919091529392505050565b80356006811061366357600080fd5b600082601f8301126137ad57600080fd5b813560206001600160401b03808311156137c9576137c9613680565b8260051b6137d88382016136e0565b93845285810183019383810190888611156137f257600080fd5b84880192505b8583101561389a578235848111156138105760008081fd5b88016060818b03601f19018113156138285760008081fd5b613830613696565b87830135878111156138425760008081fd5b6138508d8a83870101613737565b825250604080840135888111156138675760008081fd5b6138758e8b83880101613737565b8a8401525061388583850161378d565b908201528452505091840191908401906137f8565b98975050505050505050565b6001600160a01b0381168114611a1c57600080fd5b8035613663816138a6565b60008060008060008060c087890312156138df57600080fd5b6138e88761364b565b95506138f660208801613668565b945060408701356001600160401b038082111561391257600080fd5b61391e8a838b0161379c565b955060608901359150613930826138a6565b9093506080880135908082111561394657600080fd5b6139528a838b01613737565b935060a089013591508082111561396857600080fd5b5061397589828a01613737565b9150509295509295509295565b60006020828403121561399457600080fd5b5035919050565b6000602082840312156139ad57600080fd5b8135613644816138a6565b600080604083850312156139cb57600080fd5b8235915060208301356139dd816138a6565b809150509250929050565b6000602082840312156139fa57600080fd5b6136448261378d565b6020808252825182820181905260009190848201906040850190845b81811015613a445783516001600160a01b031683529284019291840191600101613a1f565b50909695505050505050565b60ff81168114611a1c57600080fd5b803561366381613a50565b60008060008060808587031215613a8057600080fd5b8435613a8b816138a6565b93506020850135613a9b81613a50565b93969395505050506040820135916060013590565b60008060408385031215613ac357600080fd5b613acc8361364b565b9150613ada60208401613668565b90509250929050565b60005b83811015613afe578181015183820152602001613ae6565b50506000910152565b60008151808452613b1f816020860160208601613ae3565b601f01601f19169290920160200192915050565b6001600160a01b0383168152604060208201819052600090613b5790830184613b07565b949350505050565b60008060408385031215613b7257600080fd5b613b7b8361378d565b915060208301356139dd816138a6565b600060208284031215613b9d57600080fd5b81356001600160401b03811115613bb357600080fd5b613b5784828501613737565b600080600080600060a08688031215613bd757600080fd5b8535613be2816138a6565b945060208601356001600160401b03811115613bfd57600080fd5b613c0988828901613737565b9450506040860135613c1a81613a50565b94979396509394606081013594506080013592915050565b6020815260006136446020830184613b07565b634e487b7160e01b600052602160045260246000fd5b60068110613c6b57613c6b613c45565b9052565b60008151808452602080850194506020840160005b83811015613ca757613c97878351613c5b565b9582019590820190600101613c84565b509495945050505050565b60048110613c6b57613c6b613c45565b6001600160a01b038b811682526001600160f01b03198b1660208301526001600160e81b03198a16604083015261014060608301819052600091613d088483018c613c6f565b9150613d17608085018b613cb2565b881660a084015282810360c0840152613d308188613b07565b905082810360e0840152613d448187613b07565b9415156101008401525050610120015298975050505050505050565b6001600160a01b038a811682526001600160f01b03198a1660208301526001600160e81b03198916604083015261012060608301819052600091613da68483018b613c6f565b9150613db5608085018a613cb2565b871660a084015282810360c0840152613dce8187613b07565b905082810360e0840152613de28186613b07565b9150508215156101008301529a9950505050505050505050565b6000806000806000806000806000806101408b8d031215613e1c57600080fd5b613e258b6138bb565b9950613e3360208c0161364b565b9850613e4160408c01613668565b975060608b01356001600160401b0380821115613e5d57600080fd5b613e698e838f0161379c565b9850613e7760808e016138bb565b975060a08d0135915080821115613e8d57600080fd5b613e998e838f01613737565b965060c08d0135915080821115613eaf57600080fd5b50613ebc8d828e01613737565b945050613ecb60e08c01613a5f565b92506101008b013591506101208b013590509295989b9194979a5092959850565b634e487b7160e01b600052603260045260246000fd5b600082601f830112613f1357600080fd5b8151613f2161375682613710565b818152846020838601011115613f3657600080fd5b613b57826020830160208701613ae3565b600060208284031215613f5957600080fd5b81516001600160401b0380821115613f7057600080fd5b9083019060408286031215613f8457600080fd5b604051604081018181108382111715613f9f57613f9f613680565b604052825182811115613fb157600080fd5b613fbd87828601613f02565b825250602083015182811115613fd257600080fd5b613fde87828601613f02565b60208301525095945050505050565b613ff78183613c5b565b604060208201819052601490820152734e6f742061637469766520696e206f7261636c6560601b6060820152608001919050565b634e487b7160e01b600052601160045260246000fd5b600060ff821660ff81036140575761405761402b565b60010192915050565b600181811c9082168061407457607f821691505b60208210810361409457634e487b7160e01b600052602260045260246000fd5b50919050565b818103818111156105355761053561402b565b6000602082840312156140bf57600080fd5b81516004811061364457600080fd5b601f8211156110dd576000816000526020600020601f850160051c810160208610156140f75750805b601f850160051c820191505b818110156117f457828155600101614103565b81516001600160401b0381111561412f5761412f613680565b6141438161413d8454614060565b846140ce565b602080601f83116001811461417857600084156141605750858301515b600019600386901b1c1916600185901b1785556117f4565b600085815260208120601f198616915b828110156141a757888601518255948401946001909101908401614188565b50858210156141c55787850151600019600388901b60f8161c191681555b5050505050600190811b01905550565b6001600160f01b0319891681526001600160e81b0319881660208201526101006040820181905260009061420b8382018a613c6f565b9050828103606084015261421f8189613b07565b905082810360808401526142338188613b07565b91505061424360a0830186613cb2565b6003841061425357614253613c45565b8360c083015282151560e08301529998505050505050505050565b600063ffffffff8083168181036142875761428761402b565b6001019392505050565b600080845461429f81614060565b600182811680156142b757600181146142cc576142fb565b60ff19841687528215158302870194506142fb565b8860005260208060002060005b858110156142f25781548a8201529084019082016142d9565b50505082870194505b505050938152602001949350505050565b6020808252602c908201527f5369676e657220616e642070726f76696465642070617274792061646472657360408201526b39903234b33332b932b73a1760a11b606082015260800190565b6bffffffffffffffffffffffff198360601b16815260008251614382816014850160208701613ae3565b919091016014019392505050565b600080604083850312156143a357600080fd5b505080516020909101519092909150565b600085516143c6818460208a01613ae3565b8551908301906143da818360208a01613ae3565b85519101906143ed818360208901613ae3565b01600684106143fe576143fe613c45565b60f89390931b835250506001019392505050565b6001600160601b0319606089811b821683526001600160f01b0319891660148401526001600160e81b0319881660168401526019830187905285901b166039820152825160009061446a81604d850160208801613ae3565b83519083019061448181604d840160208801613ae3565b01604d019998505050505050505050565b6040815260006144a56040830185613b07565b82810360208401526144b78185613b07565b95945050505050565b8051613663816138a6565b6000606082840312156144dd57600080fd5b6144e5613696565b90508151815260208201516020820152604082015161450381613a50565b604082015292915050565b600080600060a0848603121561452357600080fd5b835161452e816138a6565b60208501519093506001600160401b038082111561454b57600080fd5b9085019060c0828803121561455f57600080fd5b6145676136be565b82518281111561457657600080fd5b61458289828601613f02565b82525060208301518281111561459757600080fd5b6145a389828601613f02565b6020830152506040830151828111156145bb57600080fd5b6145c789828601613f02565b6040830152506060830151828111156145df57600080fd5b6145eb89828601613f02565b60608301525060808301518281111561460357600080fd5b61460f89828601613f02565b60808301525061462160a084016144c0565b60a082015280945050505061463985604086016144cb565b90509250925092565b60006060828403121561465457600080fd5b61465c613696565b905081516001600160401b038082111561467557600080fd5b61468185838601613f02565b8352602084015191508082111561469757600080fd5b506146a484828501613f02565b6020830152506040820151614503816138a6565b600080600060a084860312156146cd57600080fd5b83516146d8816138a6565b60208501519093506001600160401b038111156146f457600080fd5b61470086828701614642565b92505061463985604086016144cb565b60008251614722818460208701613ae3565b919091019291505056fea2646970667358221220fa117be4b546dceb284d1814fe7e8a5a08129a33d43fdea9d60a12496871100c64736f6c63430008180033",
  "devdoc": {
    "errors": {
      "AccessControlBadConfirmation()": [
        {
          "details": "The caller of a function is not the expected one. NOTE: Don't confuse with {AccessControlUnauthorizedAccount}."
        }
      ],
      "AccessControlUnauthorizedAccount(address,bytes32)": [
        {
          "details": "The `account` is missing a role."
        }
      ]
    },
    "events": {
      "RoleAdminChanged(bytes32,bytes32,bytes32)": {
        "details": "Emitted when `newAdminRole` is set as ``role``'s admin role, replacing `previousAdminRole` `DEFAULT_ADMIN_ROLE` is the starting admin for all roles, despite {RoleAdminChanged} not being emitted signaling this."
      },
      "RoleGranted(bytes32,address,address)": {
        "details": "Emitted when `account` is granted `role`. `sender` is the account that originated the contract call, an admin role bearer except when using {AccessControl-_setupRole}."
      },
      "RoleRevoked(bytes32,address,address)": {
        "details": "Emitted when `account` is revoked `role`. `sender` is the account that originated the contract call:   - if using `revokeRole`, it is the admin role bearer   - if using `renounceRole`, it is the role bearer (i.e. `account`)"
      }
    },
    "kind": "dev",
    "methods": {
      "getRoleAdmin(bytes32)": {
        "details": "Returns the admin role that controls `role`. See {grantRole} and {revokeRole}. To change a role's admin, use {_setRoleAdmin}."
      },
      "grantRole(bytes32,address)": {
        "details": "Grants `role` to `account`. If `account` had not been already granted `role`, emits a {RoleGranted} event. Requirements: - the caller must have ``role``'s admin role. May emit a {RoleGranted} event."
      },
      "hasRole(bytes32,address)": {
        "details": "Returns `true` if `account` has been granted `role`."
      },
      "renounceRole(bytes32,address)": {
        "details": "Revokes `role` from the calling account. Roles are often managed via {grantRole} and {revokeRole}: this function's purpose is to provide a mechanism for accounts to lose their privileges if they are compromised (such as when a trusted device is misplaced). If the calling account had been revoked `role`, emits a {RoleRevoked} event. Requirements: - the caller must be `callerConfirmation`. May emit a {RoleRevoked} event."
      },
      "revokeRole(bytes32,address)": {
        "details": "Revokes `role` from `account`. If `account` had been granted `role`, emits a {RoleRevoked} event. Requirements: - the caller must have ``role``'s admin role. May emit a {RoleRevoked} event."
      },
      "supportsInterface(bytes4)": {
        "details": "See {IERC165-supportsInterface}."
      }
    },
    "version": 1
  },
  "userdoc": {
    "kind": "user",
    "methods": {},
    "version": 1
  },
  "storageLayout": {
    "storage": [
      {
        "astId": 911,
        "contract": "contracts/OcnRegistry.sol:OcnRegistry",
        "label": "_roles",
        "offset": 0,
        "slot": "0",
        "type": "t_mapping(t_bytes32,t_struct(RoleData)906_storage)"
      },
      {
        "astId": 2610,
        "contract": "contracts/OcnRegistry.sol:OcnRegistry",
        "label": "prefix",
        "offset": 0,
        "slot": "1",
        "type": "t_string_storage"
      },
      {
        "astId": 2614,
        "contract": "contracts/OcnRegistry.sol:OcnRegistry",
        "label": "nodeOf",
        "offset": 0,
        "slot": "2",
        "type": "t_mapping(t_address,t_string_storage)"
      },
      {
        "astId": 2618,
        "contract": "contracts/OcnRegistry.sol:OcnRegistry",
        "label": "uniqueDomains",
        "offset": 0,
        "slot": "3",
        "type": "t_mapping(t_string_memory_ptr,t_bool)"
      },
      {
        "astId": 2622,
        "contract": "contracts/OcnRegistry.sol:OcnRegistry",
        "label": "uniqueOperators",
        "offset": 0,
        "slot": "4",
        "type": "t_mapping(t_address,t_bool)"
      },
      {
        "astId": 2625,
        "contract": "contracts/OcnRegistry.sol:OcnRegistry",
        "label": "operators",
        "offset": 0,
        "slot": "5",
        "type": "t_array(t_address)dyn_storage"
      },
      {
        "astId": 2669,
        "contract": "contracts/OcnRegistry.sol:OcnRegistry",
        "label": "uniqueParties",
        "offset": 0,
        "slot": "6",
        "type": "t_mapping(t_bytes2,t_mapping(t_bytes3,t_address))"
      },
      {
        "astId": 2673,
        "contract": "contracts/OcnRegistry.sol:OcnRegistry",
        "label": "uniquePartyAddresses",
        "offset": 0,
        "slot": "7",
        "type": "t_mapping(t_address,t_bool)"
      },
      {
        "astId": 2678,
        "contract": "contracts/OcnRegistry.sol:OcnRegistry",
        "label": "partyOf",
        "offset": 0,
        "slot": "8",
        "type": "t_mapping(t_address,t_struct(PartyDetails)2663_storage)"
      },
      {
        "astId": 2682,
        "contract": "contracts/OcnRegistry.sol:OcnRegistry",
        "label": "operatorOf",
        "offset": 0,
        "slot": "9",
        "type": "t_mapping(t_address,t_address)"
      },
      {
        "astId": 2686,
        "contract": "contracts/OcnRegistry.sol:OcnRegistry",
        "label": "allowedCertificateVerifiers",
        "offset": 0,
        "slot": "10",
        "type": "t_mapping(t_address,t_bool)"
      },
      {
        "astId": 2689,
        "contract": "contracts/OcnRegistry.sol:OcnRegistry",
        "label": "parties",
        "offset": 0,
        "slot": "11",
        "type": "t_array(t_address)dyn_storage"
      },
      {
        "astId": 2692,
        "contract": "contracts/OcnRegistry.sol:OcnRegistry",
        "label": "paymentManager",
        "offset": 0,
        "slot": "12",
        "type": "t_contract(IOcnPaymentManager)2196"
      },
      {
        "astId": 2695,
        "contract": "contracts/OcnRegistry.sol:OcnRegistry",
        "label": "certificateVerifier",
        "offset": 0,
        "slot": "13",
        "type": "t_contract(ICertificateVerifier)4484"
      },
      {
        "astId": 2701,
        "contract": "contracts/OcnRegistry.sol:OcnRegistry",
        "label": "roleOracle",
        "offset": 0,
        "slot": "14",
        "type": "t_mapping(t_enum(Role)2632,t_contract(IProviderOracle)4506)"
      }
    ],
    "types": {
      "t_address": {
        "encoding": "inplace",
        "label": "address",
        "numberOfBytes": "20"
      },
      "t_array(t_address)dyn_storage": {
        "base": "t_address",
        "encoding": "dynamic_array",
        "label": "address[]",
        "numberOfBytes": "32"
      },
      "t_array(t_enum(Role)2632)dyn_storage": {
        "base": "t_enum(Role)2632",
        "encoding": "dynamic_array",
        "label": "enum OcnRegistry.Role[]",
        "numberOfBytes": "32"
      },
      "t_bool": {
        "encoding": "inplace",
        "label": "bool",
        "numberOfBytes": "1"
      },
      "t_bytes2": {
        "encoding": "inplace",
        "label": "bytes2",
        "numberOfBytes": "2"
      },
      "t_bytes3": {
        "encoding": "inplace",
        "label": "bytes3",
        "numberOfBytes": "3"
      },
      "t_bytes32": {
        "encoding": "inplace",
        "label": "bytes32",
        "numberOfBytes": "32"
      },
      "t_contract(ICertificateVerifier)4484": {
        "encoding": "inplace",
        "label": "contract ICertificateVerifier",
        "numberOfBytes": "20"
      },
      "t_contract(IOcnPaymentManager)2196": {
        "encoding": "inplace",
        "label": "contract IOcnPaymentManager",
        "numberOfBytes": "20"
      },
      "t_contract(IProviderOracle)4506": {
        "encoding": "inplace",
        "label": "contract IProviderOracle",
        "numberOfBytes": "20"
      },
      "t_enum(CvStatus)2099": {
        "encoding": "inplace",
        "label": "enum IOcnCvManager.CvStatus",
        "numberOfBytes": "1"
      },
      "t_enum(PaymentStatus)2109": {
        "encoding": "inplace",
        "label": "enum IOcnPaymentManager.PaymentStatus",
        "numberOfBytes": "1"
      },
      "t_enum(Role)2632": {
        "encoding": "inplace",
        "label": "enum OcnRegistry.Role",
        "numberOfBytes": "1"
      },
      "t_mapping(t_address,t_address)": {
        "encoding": "mapping",
        "key": "t_address",
        "label": "mapping(address => address)",
        "numberOfBytes": "32",
        "value": "t_address"
      },
      "t_mapping(t_address,t_bool)": {
        "encoding": "mapping",
        "key": "t_address",
        "label": "mapping(address => bool)",
        "numberOfBytes": "32",
        "value": "t_bool"
      },
      "t_mapping(t_address,t_string_storage)": {
        "encoding": "mapping",
        "key": "t_address",
        "label": "mapping(address => string)",
        "numberOfBytes": "32",
        "value": "t_string_storage"
      },
      "t_mapping(t_address,t_struct(PartyDetails)2663_storage)": {
        "encoding": "mapping",
        "key": "t_address",
        "label": "mapping(address => struct OcnRegistry.PartyDetails)",
        "numberOfBytes": "32",
        "value": "t_struct(PartyDetails)2663_storage"
      },
      "t_mapping(t_bytes2,t_mapping(t_bytes3,t_address))": {
        "encoding": "mapping",
        "key": "t_bytes2",
        "label": "mapping(bytes2 => mapping(bytes3 => address))",
        "numberOfBytes": "32",
        "value": "t_mapping(t_bytes3,t_address)"
      },
      "t_mapping(t_bytes3,t_address)": {
        "encoding": "mapping",
        "key": "t_bytes3",
        "label": "mapping(bytes3 => address)",
        "numberOfBytes": "32",
        "value": "t_address"
      },
      "t_mapping(t_bytes32,t_struct(RoleData)906_storage)": {
        "encoding": "mapping",
        "key": "t_bytes32",
        "label": "mapping(bytes32 => struct AccessControl.RoleData)",
        "numberOfBytes": "32",
        "value": "t_struct(RoleData)906_storage"
      },
      "t_mapping(t_enum(Role)2632,t_contract(IProviderOracle)4506)": {
        "encoding": "mapping",
        "key": "t_enum(Role)2632",
        "label": "mapping(enum OcnRegistry.Role => contract IProviderOracle)",
        "numberOfBytes": "32",
        "value": "t_contract(IProviderOracle)4506"
      },
      "t_mapping(t_string_memory_ptr,t_bool)": {
        "encoding": "mapping",
        "key": "t_string_memory_ptr",
        "label": "mapping(string => bool)",
        "numberOfBytes": "32",
        "value": "t_bool"
      },
      "t_string_memory_ptr": {
        "encoding": "bytes",
        "label": "string",
        "numberOfBytes": "32"
      },
      "t_string_storage": {
        "encoding": "bytes",
        "label": "string",
        "numberOfBytes": "32"
      },
      "t_struct(PartyDetails)2663_storage": {
        "encoding": "inplace",
        "label": "struct OcnRegistry.PartyDetails",
        "members": [
          {
            "astId": 2642,
            "contract": "contracts/OcnRegistry.sol:OcnRegistry",
            "label": "countryCode",
            "offset": 0,
            "slot": "0",
            "type": "t_bytes2"
          },
          {
            "astId": 2644,
            "contract": "contracts/OcnRegistry.sol:OcnRegistry",
            "label": "partyId",
            "offset": 2,
            "slot": "0",
            "type": "t_bytes3"
          },
          {
            "astId": 2648,
            "contract": "contracts/OcnRegistry.sol:OcnRegistry",
            "label": "roles",
            "offset": 0,
            "slot": "1",
            "type": "t_array(t_enum(Role)2632)dyn_storage"
          },
          {
            "astId": 2650,
            "contract": "contracts/OcnRegistry.sol:OcnRegistry",
            "label": "name",
            "offset": 0,
            "slot": "2",
            "type": "t_string_storage"
          },
          {
            "astId": 2652,
            "contract": "contracts/OcnRegistry.sol:OcnRegistry",
            "label": "url",
            "offset": 0,
            "slot": "3",
            "type": "t_string_storage"
          },
          {
            "astId": 2655,
            "contract": "contracts/OcnRegistry.sol:OcnRegistry",
            "label": "paymentStatus",
            "offset": 0,
            "slot": "4",
            "type": "t_enum(PaymentStatus)2109"
          },
          {
            "astId": 2658,
            "contract": "contracts/OcnRegistry.sol:OcnRegistry",
            "label": "cvStatus",
            "offset": 1,
            "slot": "4",
            "type": "t_enum(CvStatus)2099"
          },
          {
            "astId": 2660,
            "contract": "contracts/OcnRegistry.sol:OcnRegistry",
            "label": "active",
            "offset": 2,
            "slot": "4",
            "type": "t_bool"
          },
          {
            "astId": 2662,
            "contract": "contracts/OcnRegistry.sol:OcnRegistry",
            "label": "partyIndex",
            "offset": 0,
            "slot": "5",
            "type": "t_uint256"
          }
        ],
        "numberOfBytes": "192"
      },
      "t_struct(RoleData)906_storage": {
        "encoding": "inplace",
        "label": "struct AccessControl.RoleData",
        "members": [
          {
            "astId": 903,
            "contract": "contracts/OcnRegistry.sol:OcnRegistry",
            "label": "hasRole",
            "offset": 0,
            "slot": "0",
            "type": "t_mapping(t_address,t_bool)"
          },
          {
            "astId": 905,
            "contract": "contracts/OcnRegistry.sol:OcnRegistry",
            "label": "adminRole",
            "offset": 0,
            "slot": "1",
            "type": "t_bytes32"
          }
        ],
        "numberOfBytes": "64"
      },
      "t_uint256": {
        "encoding": "inplace",
        "label": "uint256",
        "numberOfBytes": "32"
      }
    }
  }
}