{
  "_format": "hh-sol-artifact-1",
  "contractName": "ProvidersOracle",
  "sourceName": "contracts/oracles/ProvidersOracle.sol",
  "abi": [
    {
      "inputs": [],
      "stateMutability": "nonpayable",
      "type": "constructor"
    },
    {
      "inputs": [
        {
          "internalType": "address",
          "name": "owner",
          "type": "address"
        }
      ],
      "name": "OwnableInvalidOwner",
      "type": "error"
    },
    {
      "inputs": [
        {
          "internalType": "address",
          "name": "account",
          "type": "address"
        }
      ],
      "name": "OwnableUnauthorizedAccount",
      "type": "error"
    },
    {
      "anonymous": false,
      "inputs": [
        {
          "indexed": true,
          "internalType": "address",
          "name": "previousOwner",
          "type": "address"
        },
        {
          "indexed": true,
          "internalType": "address",
          "name": "newOwner",
          "type": "address"
        }
      ],
      "name": "OwnershipTransferred",
      "type": "event"
    },
    {
      "inputs": [
        {
          "components": [
            {
              "internalType": "string",
              "name": "name",
              "type": "string"
            },
            {
              "internalType": "string",
              "name": "identifier",
              "type": "string"
            }
          ],
          "internalType": "struct ProvidersOracle.Provider",
          "name": "provider",
          "type": "tuple"
        }
      ],
      "name": "addProvider",
      "outputs": [],
      "stateMutability": "nonpayable",
      "type": "function"
    },
    {
      "inputs": [
        {
          "components": [
            {
              "internalType": "string",
              "name": "name",
              "type": "string"
            },
            {
              "internalType": "string",
              "name": "identifier",
              "type": "string"
            }
          ],
          "internalType": "struct ProvidersOracle.Provider[]",
          "name": "providers",
          "type": "tuple[]"
        }
      ],
      "name": "addProviderBatch",
      "outputs": [],
      "stateMutability": "nonpayable",
      "type": "function"
    },
    {
      "inputs": [
        {
          "internalType": "string",
          "name": "identifier",
          "type": "string"
        }
      ],
      "name": "getProvider",
      "outputs": [
        {
          "components": [
            {
              "internalType": "string",
              "name": "name",
              "type": "string"
            },
            {
              "internalType": "string",
              "name": "identifier",
              "type": "string"
            }
          ],
          "internalType": "struct ProvidersOracle.Provider",
          "name": "",
          "type": "tuple"
        }
      ],
      "stateMutability": "view",
      "type": "function"
    },
    {
      "inputs": [],
      "name": "getProviders",
      "outputs": [
        {
          "components": [
            {
              "internalType": "string",
              "name": "name",
              "type": "string"
            },
            {
              "internalType": "string",
              "name": "identifier",
              "type": "string"
            }
          ],
          "internalType": "struct ProvidersOracle.Provider[]",
          "name": "",
          "type": "tuple[]"
        }
      ],
      "stateMutability": "view",
      "type": "function"
    },
    {
      "inputs": [],
      "name": "owner",
      "outputs": [
        {
          "internalType": "address",
          "name": "",
          "type": "address"
        }
      ],
      "stateMutability": "view",
      "type": "function"
    },
    {
      "inputs": [
        {
          "internalType": "string",
          "name": "identifier",
          "type": "string"
        }
      ],
      "name": "removeProvider",
      "outputs": [],
      "stateMutability": "nonpayable",
      "type": "function"
    },
    {
      "inputs": [],
      "name": "renounceOwnership",
      "outputs": [],
      "stateMutability": "nonpayable",
      "type": "function"
    },
    {
      "inputs": [
        {
          "internalType": "address",
          "name": "newOwner",
          "type": "address"
        }
      ],
      "name": "transferOwnership",
      "outputs": [],
      "stateMutability": "nonpayable",
      "type": "function"
    }
  ],
  "bytecode": "0x60806040523480156200001157600080fd5b5033600073ffffffffffffffffffffffffffffffffffffffff168173ffffffffffffffffffffffffffffffffffffffff1603620000885760006040517f1e4fbdf70000000000000000000000000000000000000000000000000000000081526004016200007f9190620001b1565b60405180910390fd5b6200009981620000a860201b60201c565b506000600381905550620001ce565b60008060009054906101000a900473ffffffffffffffffffffffffffffffffffffffff169050816000806101000a81548173ffffffffffffffffffffffffffffffffffffffff021916908373ffffffffffffffffffffffffffffffffffffffff1602179055508173ffffffffffffffffffffffffffffffffffffffff168173ffffffffffffffffffffffffffffffffffffffff167f8be0079c531659141344cd1fd0a4f28419497f9722a3daafe3b4186f6b6457e060405160405180910390a35050565b600073ffffffffffffffffffffffffffffffffffffffff82169050919050565b600062000199826200016c565b9050919050565b620001ab816200018c565b82525050565b6000602082019050620001c86000830184620001a0565b92915050565b61178680620001de6000396000f3fe608060405234801561001057600080fd5b50600436106100885760003560e01c8063715018a61161005b578063715018a6146101115780638da5cb5b1461011b578063edc922a914610139578063f2fde38b1461015757610088565b80633927835c1461008d5780633d0cce67146100a957806350cadc85146100c55780635806669f146100f5575b600080fd5b6100a760048036038101906100a29190610eb5565b610173565b005b6100c360048036038101906100be9190610efe565b6101c1565b005b6100df60048036038101906100da9190610f47565b6102de565b6040516100ec9190611053565b60405180910390f35b61010f600480360381019061010a9190610f47565b6104d2565b005b6101196107d3565b005b6101236107e7565b60405161013091906110b6565b60405180910390f35b610141610810565b60405161014e91906111d7565b60405180910390f35b610171600480360381019061016c9190611225565b610993565b005b61017b610a19565b60005b81518110156101bd576101aa82828151811061019d5761019c611252565b5b60200260200101516101c1565b80806101b5906112ba565b91505061017e565b5050565b6101c9610a19565b600081602001516040516020016101e0919061133e565b604051602081830303815290604052805190602001209050600060016000838152602001908152602001600020541461024e576040517f08c379a0000000000000000000000000000000000000000000000000000000008152600401610245906113b2565b60405180910390fd5b60036000815480929190610261906112ba565b9190505550600282908060018154018082558091505060019003906000526020600020906002020160009091909190915060008201518160000190816102a791906115de565b5060208201518160010190816102bd91906115de565b50505060035460016000838152602001908152602001600020819055505050565b6102e6610b6c565b6000826040516020016102f9919061133e565b6040516020818303038152906040528051906020012090506000600160008381526020019081526020016000205490506000810361036c576040517f08c379a0000000000000000000000000000000000000000000000000000000008152600401610363906116fc565b60405180910390fd5b600260018261037b919061171c565b8154811061038c5761038b611252565b5b90600052602060002090600202016040518060400160405290816000820180546103b590611401565b80601f01602080910402602001604051908101604052809291908181526020018280546103e190611401565b801561042e5780601f106104035761010080835404028352916020019161042e565b820191906000526020600020905b81548152906001019060200180831161041157829003601f168201915b5050505050815260200160018201805461044790611401565b80601f016020809104026020016040519081016040528092919081815260200182805461047390611401565b80156104c05780601f10610495576101008083540402835291602001916104c0565b820191906000526020600020905b8154815290600101906020018083116104a357829003601f168201915b50505050508152505092505050919050565b6104da610a19565b6000816040516020016104ed919061133e565b60405160208183030381529060405280519060200120905060006001600083815260200190815260200160002054905060008103610560576040517f08c379a0000000000000000000000000000000000000000000000000000000008152600401610557906116fc565b60405180910390fd5b60006001600354610571919061171c565b90508082146107cd576000600282815481106105905761058f611252565b5b90600052602060002090600202016040518060400160405290816000820180546105b990611401565b80601f01602080910402602001604051908101604052809291908181526020018280546105e590611401565b80156106325780601f1061060757610100808354040283529160200191610632565b820191906000526020600020905b81548152906001019060200180831161061557829003601f168201915b5050505050815260200160018201805461064b90611401565b80601f016020809104026020016040519081016040528092919081815260200182805461067790611401565b80156106c45780601f10610699576101008083540402835291602001916106c4565b820191906000526020600020905b8154815290600101906020018083116106a757829003601f168201915b50505050508152505090508060026001856106df919061171c565b815481106106f0576106ef611252565b5b9060005260206000209060020201600082015181600001908161071391906115de565b50602082015181600101908161072991906115de565b5090505082600160008360200151604051602001610747919061133e565b604051602081830303815290604052805190602001208152602001908152602001600020819055506002828154811061078357610782611252565b5b9060005260206000209060020201600080820160006107a29190610b86565b6001820160006107b29190610b86565b50506001600085815260200190815260200160002060009055505b50505050565b6107db610a19565b6107e56000610aa0565b565b60008060009054906101000a900473ffffffffffffffffffffffffffffffffffffffff16905090565b60606002805480602002602001604051908101604052809291908181526020016000905b8282101561098a578382906000526020600020906002020160405180604001604052908160008201805461086790611401565b80601f016020809104026020016040519081016040528092919081815260200182805461089390611401565b80156108e05780601f106108b5576101008083540402835291602001916108e0565b820191906000526020600020905b8154815290600101906020018083116108c357829003601f168201915b505050505081526020016001820180546108f990611401565b80601f016020809104026020016040519081016040528092919081815260200182805461092590611401565b80156109725780601f1061094757610100808354040283529160200191610972565b820191906000526020600020905b81548152906001019060200180831161095557829003601f168201915b50505050508152505081526020019060010190610834565b50505050905090565b61099b610a19565b600073ffffffffffffffffffffffffffffffffffffffff168173ffffffffffffffffffffffffffffffffffffffff1603610a0d5760006040517f1e4fbdf7000000000000000000000000000000000000000000000000000000008152600401610a0491906110b6565b60405180910390fd5b610a1681610aa0565b50565b610a21610b64565b73ffffffffffffffffffffffffffffffffffffffff16610a3f6107e7565b73ffffffffffffffffffffffffffffffffffffffff1614610a9e57610a62610b64565b6040517f118cdaa7000000000000000000000000000000000000000000000000000000008152600401610a9591906110b6565b60405180910390fd5b565b60008060009054906101000a900473ffffffffffffffffffffffffffffffffffffffff169050816000806101000a81548173ffffffffffffffffffffffffffffffffffffffff021916908373ffffffffffffffffffffffffffffffffffffffff1602179055508173ffffffffffffffffffffffffffffffffffffffff168173ffffffffffffffffffffffffffffffffffffffff167f8be0079c531659141344cd1fd0a4f28419497f9722a3daafe3b4186f6b6457e060405160405180910390a35050565b600033905090565b604051806040016040528060608152602001606081525090565b508054610b9290611401565b6000825580601f10610ba45750610bc3565b601f016020900490600052602060002090810190610bc29190610bc6565b5b50565b5b80821115610bdf576000816000905550600101610bc7565b5090565b6000604051905090565b600080fd5b600080fd5b600080fd5b6000601f19601f8301169050919050565b7f4e487b7100000000000000000000000000000000000000000000000000000000600052604160045260246000fd5b610c4582610bfc565b810181811067ffffffffffffffff82111715610c6457610c63610c0d565b5b80604052505050565b6000610c77610be3565b9050610c838282610c3c565b919050565b600067ffffffffffffffff821115610ca357610ca2610c0d565b5b602082029050602081019050919050565b600080fd5b600080fd5b600080fd5b600080fd5b600067ffffffffffffffff821115610ce357610ce2610c0d565b5b610cec82610bfc565b9050602081019050919050565b82818337600083830152505050565b6000610d1b610d1684610cc8565b610c6d565b905082815260208101848484011115610d3757610d36610cc3565b5b610d42848285610cf9565b509392505050565b600082601f830112610d5f57610d5e610bf7565b5b8135610d6f848260208601610d08565b91505092915050565b600060408284031215610d8e57610d8d610cb9565b5b610d986040610c6d565b9050600082013567ffffffffffffffff811115610db857610db7610cbe565b5b610dc484828501610d4a565b600083015250602082013567ffffffffffffffff811115610de857610de7610cbe565b5b610df484828501610d4a565b60208301525092915050565b6000610e13610e0e84610c88565b610c6d565b90508083825260208201905060208402830185811115610e3657610e35610cb4565b5b835b81811015610e7d57803567ffffffffffffffff811115610e5b57610e5a610bf7565b5b808601610e688982610d78565b85526020850194505050602081019050610e38565b5050509392505050565b600082601f830112610e9c57610e9b610bf7565b5b8135610eac848260208601610e00565b91505092915050565b600060208284031215610ecb57610eca610bed565b5b600082013567ffffffffffffffff811115610ee957610ee8610bf2565b5b610ef584828501610e87565b91505092915050565b600060208284031215610f1457610f13610bed565b5b600082013567ffffffffffffffff811115610f3257610f31610bf2565b5b610f3e84828501610d78565b91505092915050565b600060208284031215610f5d57610f5c610bed565b5b600082013567ffffffffffffffff811115610f7b57610f7a610bf2565b5b610f8784828501610d4a565b91505092915050565b600081519050919050565b600082825260208201905092915050565b60005b83811015610fca578082015181840152602081019050610faf565b60008484015250505050565b6000610fe182610f90565b610feb8185610f9b565b9350610ffb818560208601610fac565b61100481610bfc565b840191505092915050565b6000604083016000830151848203600086015261102c8282610fd6565b915050602083015184820360208601526110468282610fd6565b9150508091505092915050565b6000602082019050818103600083015261106d818461100f565b905092915050565b600073ffffffffffffffffffffffffffffffffffffffff82169050919050565b60006110a082611075565b9050919050565b6110b081611095565b82525050565b60006020820190506110cb60008301846110a7565b92915050565b600081519050919050565b600082825260208201905092915050565b6000819050602082019050919050565b6000604083016000830151848203600086015261111a8282610fd6565b915050602083015184820360208601526111348282610fd6565b9150508091505092915050565b600061114d83836110fd565b905092915050565b6000602082019050919050565b600061116d826110d1565b61117781856110dc565b935083602082028501611189856110ed565b8060005b858110156111c557848403895281516111a68582611141565b94506111b183611155565b925060208a0199505060018101905061118d565b50829750879550505050505092915050565b600060208201905081810360008301526111f18184611162565b905092915050565b61120281611095565b811461120d57600080fd5b50565b60008135905061121f816111f9565b92915050565b60006020828403121561123b5761123a610bed565b5b600061124984828501611210565b91505092915050565b7f4e487b7100000000000000000000000000000000000000000000000000000000600052603260045260246000fd5b7f4e487b7100000000000000000000000000000000000000000000000000000000600052601160045260246000fd5b6000819050919050565b60006112c5826112b0565b91507fffffffffffffffffffffffffffffffffffffffffffffffffffffffffffffffff82036112f7576112f6611281565b5b600182019050919050565b600081905092915050565b600061131882610f90565b6113228185611302565b9350611332818560208601610fac565b80840191505092915050565b600061134a828461130d565b915081905092915050565b600082825260208201905092915050565b7f50726f766964657220616c726561647920657869737473000000000000000000600082015250565b600061139c601783611355565b91506113a782611366565b602082019050919050565b600060208201905081810360008301526113cb8161138f565b9050919050565b7f4e487b7100000000000000000000000000000000000000000000000000000000600052602260045260246000fd5b6000600282049050600182168061141957607f821691505b60208210810361142c5761142b6113d2565b5b50919050565b60008190508160005260206000209050919050565b60006020601f8301049050919050565b600082821b905092915050565b6000600883026114947fffffffffffffffffffffffffffffffffffffffffffffffffffffffffffffffff82611457565b61149e8683611457565b95508019841693508086168417925050509392505050565b6000819050919050565b60006114db6114d66114d1846112b0565b6114b6565b6112b0565b9050919050565b6000819050919050565b6114f5836114c0565b611509611501826114e2565b848454611464565b825550505050565b600090565b61151e611511565b6115298184846114ec565b505050565b5b8181101561154d57611542600082611516565b60018101905061152f565b5050565b601f8211156115925761156381611432565b61156c84611447565b8101602085101561157b578190505b61158f61158785611447565b83018261152e565b50505b505050565b600082821c905092915050565b60006115b560001984600802611597565b1980831691505092915050565b60006115ce83836115a4565b9150826002028217905092915050565b6115e782610f90565b67ffffffffffffffff811115611600576115ff610c0d565b5b61160a8254611401565b611615828285611551565b600060209050601f8311600181146116485760008415611636578287015190505b61164085826115c2565b8655506116a8565b601f19841661165686611432565b60005b8281101561167e57848901518255600182019150602085019450602081019050611659565b8683101561169b5784890151611697601f8916826115a4565b8355505b6001600288020188555050505b505050505050565b7f50726f7669646572206e6f7420666f756e640000000000000000000000000000600082015250565b60006116e6601283611355565b91506116f1826116b0565b602082019050919050565b60006020820190508181036000830152611715816116d9565b9050919050565b6000611727826112b0565b9150611732836112b0565b925082820390508181111561174a57611749611281565b5b9291505056fea2646970667358221220abccb36b58b071c07af94c9283ba28727b3e96da2e3cd51650ece8719a63a93f64736f6c63430008140033",
  "linkReferences": {},
  "deployedLinkReferences": {}
}